{
	".deps/remix-tests/demo13.sol": {
		"Child": {
			"abi": [
				{
					"anonymous": false,
					"inputs": [
						{
							"indexed": false,
							"internalType": "string",
							"name": "msg",
							"type": "string"
						}
					],
					"name": "Log",
					"type": "event"
				},
				{
					"inputs": [
						{
							"internalType": "string",
							"name": "message",
							"type": "string"
						}
					],
					"name": "printLog",
					"outputs": [],
					"stateMutability": "nonpayable",
					"type": "function"
				}
			],
			"devdoc": {
				"kind": "dev",
				"methods": {},
				"version": 1
			},
			"evm": {
				"assembly": "    /* \".deps/remix-tests/demo13.sol\":493:627  contract Child is Parent {... */\n  mstore(0x40, 0x80)\n  callvalue\n  dup1\n  iszero\n  tag_1\n  jumpi\n  0x00\n  dup1\n  revert\ntag_1:\n  pop\n  dataSize(sub_0)\n  dup1\n  dataOffset(sub_0)\n  0x00\n  codecopy\n  0x00\n  return\nstop\n\nsub_0: assembly {\n        /* \".deps/remix-tests/demo13.sol\":493:627  contract Child is Parent {... */\n      mstore(0x40, 0x80)\n      callvalue\n      dup1\n      iszero\n      tag_1\n      jumpi\n      0x00\n      dup1\n      revert\n    tag_1:\n      pop\n      jumpi(tag_2, lt(calldatasize, 0x04))\n      shr(0xe0, calldataload(0x00))\n      dup1\n      0x68d255ef\n      eq\n      tag_3\n      jumpi\n    tag_2:\n      0x00\n      dup1\n      revert\n        /* \".deps/remix-tests/demo13.sol\":524:625  function printLog(string calldata message) public virtual override {... */\n    tag_3:\n      tag_4\n      0x04\n      dup1\n      calldatasize\n      sub\n      dup2\n      add\n      swap1\n      tag_5\n      swap2\n      swap1\n      tag_6\n      jump\t// in\n    tag_5:\n      tag_7\n      jump\t// in\n    tag_4:\n      stop\n    tag_7:\n        /* \".deps/remix-tests/demo13.sol\":606:618  Log(message) */\n      0xcf34ef537ac33ee1ac626ca1587a0a7e8e51561e5514f8cb36afa1c5102b3bab\n        /* \".deps/remix-tests/demo13.sol\":610:617  message */\n      dup3\n      dup3\n        /* \".deps/remix-tests/demo13.sol\":606:618  Log(message) */\n      mload(0x40)\n      tag_9\n      swap3\n      swap2\n      swap1\n      tag_10\n      jump\t// in\n    tag_9:\n      mload(0x40)\n      dup1\n      swap2\n      sub\n      swap1\n      log1\n        /* \".deps/remix-tests/demo13.sol\":524:625  function printLog(string calldata message) public virtual override {... */\n      pop\n      pop\n      jump\t// out\n        /* \"#utility.yul\":88:205   */\n    tag_12:\n        /* \"#utility.yul\":197:198   */\n      0x00\n        /* \"#utility.yul\":194:195   */\n      dup1\n        /* \"#utility.yul\":187:199   */\n      revert\n        /* \"#utility.yul\":211:328   */\n    tag_13:\n        /* \"#utility.yul\":320:321   */\n      0x00\n        /* \"#utility.yul\":317:318   */\n      dup1\n        /* \"#utility.yul\":310:322   */\n      revert\n        /* \"#utility.yul\":334:451   */\n    tag_14:\n        /* \"#utility.yul\":443:444   */\n      0x00\n        /* \"#utility.yul\":440:441   */\n      dup1\n        /* \"#utility.yul\":433:445   */\n      revert\n        /* \"#utility.yul\":457:574   */\n    tag_15:\n        /* \"#utility.yul\":566:567   */\n      0x00\n        /* \"#utility.yul\":563:564   */\n      dup1\n        /* \"#utility.yul\":556:568   */\n      revert\n        /* \"#utility.yul\":580:697   */\n    tag_16:\n        /* \"#utility.yul\":689:690   */\n      0x00\n        /* \"#utility.yul\":686:687   */\n      dup1\n        /* \"#utility.yul\":679:691   */\n      revert\n        /* \"#utility.yul\":717:1270   */\n    tag_17:\n        /* \"#utility.yul\":775:783   */\n      0x00\n        /* \"#utility.yul\":785:791   */\n      dup1\n        /* \"#utility.yul\":835:838   */\n      dup4\n        /* \"#utility.yul\":828:832   */\n      0x1f\n        /* \"#utility.yul\":820:826   */\n      dup5\n        /* \"#utility.yul\":816:833   */\n      add\n        /* \"#utility.yul\":812:839   */\n      slt\n        /* \"#utility.yul\":802:924   */\n      tag_30\n      jumpi\n        /* \"#utility.yul\":843:922   */\n      tag_31\n      tag_14\n      jump\t// in\n    tag_31:\n        /* \"#utility.yul\":802:924   */\n    tag_30:\n        /* \"#utility.yul\":956:962   */\n      dup3\n        /* \"#utility.yul\":943:963   */\n      calldataload\n        /* \"#utility.yul\":933:963   */\n      swap1\n      pop\n        /* \"#utility.yul\":986:1004   */\n      0xffffffffffffffff\n        /* \"#utility.yul\":978:984   */\n      dup2\n        /* \"#utility.yul\":975:1005   */\n      gt\n        /* \"#utility.yul\":972:1089   */\n      iszero\n      tag_32\n      jumpi\n        /* \"#utility.yul\":1008:1087   */\n      tag_33\n      tag_15\n      jump\t// in\n    tag_33:\n        /* \"#utility.yul\":972:1089   */\n    tag_32:\n        /* \"#utility.yul\":1122:1126   */\n      0x20\n        /* \"#utility.yul\":1114:1120   */\n      dup4\n        /* \"#utility.yul\":1110:1127   */\n      add\n        /* \"#utility.yul\":1098:1127   */\n      swap2\n      pop\n        /* \"#utility.yul\":1176:1179   */\n      dup4\n        /* \"#utility.yul\":1168:1172   */\n      0x01\n        /* \"#utility.yul\":1160:1166   */\n      dup3\n        /* \"#utility.yul\":1156:1173   */\n      mul\n        /* \"#utility.yul\":1146:1154   */\n      dup4\n        /* \"#utility.yul\":1142:1174   */\n      add\n        /* \"#utility.yul\":1139:1180   */\n      gt\n        /* \"#utility.yul\":1136:1264   */\n      iszero\n      tag_34\n      jumpi\n        /* \"#utility.yul\":1183:1262   */\n      tag_35\n      tag_16\n      jump\t// in\n    tag_35:\n        /* \"#utility.yul\":1136:1264   */\n    tag_34:\n        /* \"#utility.yul\":717:1270   */\n      swap3\n      pop\n      swap3\n      swap1\n      pop\n      jump\t// out\n        /* \"#utility.yul\":1276:1805   */\n    tag_6:\n        /* \"#utility.yul\":1347:1353   */\n      0x00\n        /* \"#utility.yul\":1355:1361   */\n      dup1\n        /* \"#utility.yul\":1404:1406   */\n      0x20\n        /* \"#utility.yul\":1392:1401   */\n      dup4\n        /* \"#utility.yul\":1383:1390   */\n      dup6\n        /* \"#utility.yul\":1379:1402   */\n      sub\n        /* \"#utility.yul\":1375:1407   */\n      slt\n        /* \"#utility.yul\":1372:1491   */\n      iszero\n      tag_37\n      jumpi\n        /* \"#utility.yul\":1410:1489   */\n      tag_38\n      tag_12\n      jump\t// in\n    tag_38:\n        /* \"#utility.yul\":1372:1491   */\n    tag_37:\n        /* \"#utility.yul\":1558:1559   */\n      0x00\n        /* \"#utility.yul\":1547:1556   */\n      dup4\n        /* \"#utility.yul\":1543:1560   */\n      add\n        /* \"#utility.yul\":1530:1561   */\n      calldataload\n        /* \"#utility.yul\":1588:1606   */\n      0xffffffffffffffff\n        /* \"#utility.yul\":1580:1586   */\n      dup2\n        /* \"#utility.yul\":1577:1607   */\n      gt\n        /* \"#utility.yul\":1574:1691   */\n      iszero\n      tag_39\n      jumpi\n        /* \"#utility.yul\":1610:1689   */\n      tag_40\n      tag_13\n      jump\t// in\n    tag_40:\n        /* \"#utility.yul\":1574:1691   */\n    tag_39:\n        /* \"#utility.yul\":1723:1788   */\n      tag_41\n        /* \"#utility.yul\":1780:1787   */\n      dup6\n        /* \"#utility.yul\":1771:1777   */\n      dup3\n        /* \"#utility.yul\":1760:1769   */\n      dup7\n        /* \"#utility.yul\":1756:1778   */\n      add\n        /* \"#utility.yul\":1723:1788   */\n      tag_17\n      jump\t// in\n    tag_41:\n        /* \"#utility.yul\":1705:1788   */\n      swap3\n      pop\n      swap3\n      pop\n        /* \"#utility.yul\":1501:1798   */\n      pop\n        /* \"#utility.yul\":1276:1805   */\n      swap3\n      pop\n      swap3\n      swap1\n      pop\n      jump\t// out\n        /* \"#utility.yul\":1811:1980   */\n    tag_18:\n        /* \"#utility.yul\":1895:1906   */\n      0x00\n        /* \"#utility.yul\":1929:1935   */\n      dup3\n        /* \"#utility.yul\":1924:1927   */\n      dup3\n        /* \"#utility.yul\":1917:1936   */\n      mstore\n        /* \"#utility.yul\":1969:1973   */\n      0x20\n        /* \"#utility.yul\":1964:1967   */\n      dup3\n        /* \"#utility.yul\":1960:1974   */\n      add\n        /* \"#utility.yul\":1945:1974   */\n      swap1\n      pop\n        /* \"#utility.yul\":1811:1980   */\n      swap3\n      swap2\n      pop\n      pop\n      jump\t// out\n        /* \"#utility.yul\":1986:2134   */\n    tag_19:\n        /* \"#utility.yul\":2084:2090   */\n      dup3\n        /* \"#utility.yul\":2079:2082   */\n      dup2\n        /* \"#utility.yul\":2074:2077   */\n      dup4\n        /* \"#utility.yul\":2061:2091   */\n      calldatacopy\n        /* \"#utility.yul\":2125:2126   */\n      0x00\n        /* \"#utility.yul\":2116:2122   */\n      dup4\n        /* \"#utility.yul\":2111:2114   */\n      dup4\n        /* \"#utility.yul\":2107:2123   */\n      add\n        /* \"#utility.yul\":2100:2127   */\n      mstore\n        /* \"#utility.yul\":1986:2134   */\n      pop\n      pop\n      pop\n      jump\t// out\n        /* \"#utility.yul\":2140:2242   */\n    tag_20:\n        /* \"#utility.yul\":2181:2187   */\n      0x00\n        /* \"#utility.yul\":2232:2234   */\n      0x1f\n        /* \"#utility.yul\":2228:2235   */\n      not\n        /* \"#utility.yul\":2223:2225   */\n      0x1f\n        /* \"#utility.yul\":2216:2221   */\n      dup4\n        /* \"#utility.yul\":2212:2226   */\n      add\n        /* \"#utility.yul\":2208:2236   */\n      and\n        /* \"#utility.yul\":2198:2236   */\n      swap1\n      pop\n        /* \"#utility.yul\":2140:2242   */\n      swap2\n      swap1\n      pop\n      jump\t// out\n        /* \"#utility.yul\":2272:2589   */\n    tag_21:\n        /* \"#utility.yul\":2370:2373   */\n      0x00\n        /* \"#utility.yul\":2391:2462   */\n      tag_46\n        /* \"#utility.yul\":2455:2461   */\n      dup4\n        /* \"#utility.yul\":2450:2453   */\n      dup6\n        /* \"#utility.yul\":2391:2462   */\n      tag_18\n      jump\t// in\n    tag_46:\n        /* \"#utility.yul\":2384:2462   */\n      swap4\n      pop\n        /* \"#utility.yul\":2472:2528   */\n      tag_47\n        /* \"#utility.yul\":2521:2527   */\n      dup4\n        /* \"#utility.yul\":2516:2519   */\n      dup6\n        /* \"#utility.yul\":2509:2514   */\n      dup5\n        /* \"#utility.yul\":2472:2528   */\n      tag_19\n      jump\t// in\n    tag_47:\n        /* \"#utility.yul\":2553:2582   */\n      tag_48\n        /* \"#utility.yul\":2575:2581   */\n      dup4\n        /* \"#utility.yul\":2553:2582   */\n      tag_20\n      jump\t// in\n    tag_48:\n        /* \"#utility.yul\":2548:2551   */\n      dup5\n        /* \"#utility.yul\":2544:2583   */\n      add\n        /* \"#utility.yul\":2537:2583   */\n      swap1\n      pop\n        /* \"#utility.yul\":2272:2589   */\n      swap4\n      swap3\n      pop\n      pop\n      pop\n      jump\t// out\n        /* \"#utility.yul\":2595:2928   */\n    tag_10:\n        /* \"#utility.yul\":2718:2722   */\n      0x00\n        /* \"#utility.yul\":2756:2758   */\n      0x20\n        /* \"#utility.yul\":2745:2754   */\n      dup3\n        /* \"#utility.yul\":2741:2759   */\n      add\n        /* \"#utility.yul\":2733:2759   */\n      swap1\n      pop\n        /* \"#utility.yul\":2805:2814   */\n      dup2\n        /* \"#utility.yul\":2799:2803   */\n      dup2\n        /* \"#utility.yul\":2795:2815   */\n      sub\n        /* \"#utility.yul\":2791:2792   */\n      0x00\n        /* \"#utility.yul\":2780:2789   */\n      dup4\n        /* \"#utility.yul\":2776:2793   */\n      add\n        /* \"#utility.yul\":2769:2816   */\n      mstore\n        /* \"#utility.yul\":2833:2921   */\n      tag_50\n        /* \"#utility.yul\":2916:2920   */\n      dup2\n        /* \"#utility.yul\":2907:2913   */\n      dup5\n        /* \"#utility.yul\":2899:2905   */\n      dup7\n        /* \"#utility.yul\":2833:2921   */\n      tag_21\n      jump\t// in\n    tag_50:\n        /* \"#utility.yul\":2825:2921   */\n      swap1\n      pop\n        /* \"#utility.yul\":2595:2928   */\n      swap4\n      swap3\n      pop\n      pop\n      pop\n      jump\t// out\n\n    auxdata: 0xa26469706673582212204a99b8adee5283a1b4f1b0c70b837b1b6517dc2c848b95036f3737ddc9890bf164736f6c634300081a0033\n}\n",
				"bytecode": {
					"linkReferences": {},
					"object": "6080604052348015600e575f80fd5b506101ec8061001c5f395ff3fe608060405234801561000f575f80fd5b5060043610610029575f3560e01c806368d255ef1461002d575b5f80fd5b610047600480360381019061004291906100ef565b610049565b005b7fcf34ef537ac33ee1ac626ca1587a0a7e8e51561e5514f8cb36afa1c5102b3bab828260405161007a929190610194565b60405180910390a15050565b5f80fd5b5f80fd5b5f80fd5b5f80fd5b5f80fd5b5f8083601f8401126100af576100ae61008e565b5b8235905067ffffffffffffffff8111156100cc576100cb610092565b5b6020830191508360018202830111156100e8576100e7610096565b5b9250929050565b5f806020838503121561010557610104610086565b5b5f83013567ffffffffffffffff8111156101225761012161008a565b5b61012e8582860161009a565b92509250509250929050565b5f82825260208201905092915050565b828183375f83830152505050565b5f601f19601f8301169050919050565b5f610173838561013a565b935061018083858461014a565b61018983610158565b840190509392505050565b5f6020820190508181035f8301526101ad818486610168565b9050939250505056fea26469706673582212204a99b8adee5283a1b4f1b0c70b837b1b6517dc2c848b95036f3737ddc9890bf164736f6c634300081a0033",
					"opcodes": "PUSH1 0x80 PUSH1 0x40 MSTORE CALLVALUE DUP1 ISZERO PUSH1 0xE JUMPI PUSH0 DUP1 REVERT JUMPDEST POP PUSH2 0x1EC DUP1 PUSH2 0x1C PUSH0 CODECOPY PUSH0 RETURN INVALID PUSH1 0x80 PUSH1 0x40 MSTORE CALLVALUE DUP1 ISZERO PUSH2 0xF JUMPI PUSH0 DUP1 REVERT JUMPDEST POP PUSH1 0x4 CALLDATASIZE LT PUSH2 0x29 JUMPI PUSH0 CALLDATALOAD PUSH1 0xE0 SHR DUP1 PUSH4 0x68D255EF EQ PUSH2 0x2D JUMPI JUMPDEST PUSH0 DUP1 REVERT JUMPDEST PUSH2 0x47 PUSH1 0x4 DUP1 CALLDATASIZE SUB DUP2 ADD SWAP1 PUSH2 0x42 SWAP2 SWAP1 PUSH2 0xEF JUMP JUMPDEST PUSH2 0x49 JUMP JUMPDEST STOP JUMPDEST PUSH32 0xCF34EF537AC33EE1AC626CA1587A0A7E8E51561E5514F8CB36AFA1C5102B3BAB DUP3 DUP3 PUSH1 0x40 MLOAD PUSH2 0x7A SWAP3 SWAP2 SWAP1 PUSH2 0x194 JUMP JUMPDEST PUSH1 0x40 MLOAD DUP1 SWAP2 SUB SWAP1 LOG1 POP POP JUMP JUMPDEST PUSH0 DUP1 REVERT JUMPDEST PUSH0 DUP1 REVERT JUMPDEST PUSH0 DUP1 REVERT JUMPDEST PUSH0 DUP1 REVERT JUMPDEST PUSH0 DUP1 REVERT JUMPDEST PUSH0 DUP1 DUP4 PUSH1 0x1F DUP5 ADD SLT PUSH2 0xAF JUMPI PUSH2 0xAE PUSH2 0x8E JUMP JUMPDEST JUMPDEST DUP3 CALLDATALOAD SWAP1 POP PUSH8 0xFFFFFFFFFFFFFFFF DUP2 GT ISZERO PUSH2 0xCC JUMPI PUSH2 0xCB PUSH2 0x92 JUMP JUMPDEST JUMPDEST PUSH1 0x20 DUP4 ADD SWAP2 POP DUP4 PUSH1 0x1 DUP3 MUL DUP4 ADD GT ISZERO PUSH2 0xE8 JUMPI PUSH2 0xE7 PUSH2 0x96 JUMP JUMPDEST JUMPDEST SWAP3 POP SWAP3 SWAP1 POP JUMP JUMPDEST PUSH0 DUP1 PUSH1 0x20 DUP4 DUP6 SUB SLT ISZERO PUSH2 0x105 JUMPI PUSH2 0x104 PUSH2 0x86 JUMP JUMPDEST JUMPDEST PUSH0 DUP4 ADD CALLDATALOAD PUSH8 0xFFFFFFFFFFFFFFFF DUP2 GT ISZERO PUSH2 0x122 JUMPI PUSH2 0x121 PUSH2 0x8A JUMP JUMPDEST JUMPDEST PUSH2 0x12E DUP6 DUP3 DUP7 ADD PUSH2 0x9A JUMP JUMPDEST SWAP3 POP SWAP3 POP POP SWAP3 POP SWAP3 SWAP1 POP JUMP JUMPDEST PUSH0 DUP3 DUP3 MSTORE PUSH1 0x20 DUP3 ADD SWAP1 POP SWAP3 SWAP2 POP POP JUMP JUMPDEST DUP3 DUP2 DUP4 CALLDATACOPY PUSH0 DUP4 DUP4 ADD MSTORE POP POP POP JUMP JUMPDEST PUSH0 PUSH1 0x1F NOT PUSH1 0x1F DUP4 ADD AND SWAP1 POP SWAP2 SWAP1 POP JUMP JUMPDEST PUSH0 PUSH2 0x173 DUP4 DUP6 PUSH2 0x13A JUMP JUMPDEST SWAP4 POP PUSH2 0x180 DUP4 DUP6 DUP5 PUSH2 0x14A JUMP JUMPDEST PUSH2 0x189 DUP4 PUSH2 0x158 JUMP JUMPDEST DUP5 ADD SWAP1 POP SWAP4 SWAP3 POP POP POP JUMP JUMPDEST PUSH0 PUSH1 0x20 DUP3 ADD SWAP1 POP DUP2 DUP2 SUB PUSH0 DUP4 ADD MSTORE PUSH2 0x1AD DUP2 DUP5 DUP7 PUSH2 0x168 JUMP JUMPDEST SWAP1 POP SWAP4 SWAP3 POP POP POP JUMP INVALID LOG2 PUSH5 0x6970667358 0x22 SLT KECCAK256 BLOBBASEFEE SWAP10 0xB8 0xAD 0xEE MSTORE DUP4 LOG1 0xB4 CALL 0xB0 0xC7 SIGNEXTEND DUP4 PUSH28 0x1B6517DC2C848B95036F3737DDC9890BF164736F6C634300081A0033 "
				},
				"gasEstimates": {
					"creation": {
						"codeDepositCost": "98400",
						"executionCost": "145",
						"totalCost": "98545"
					},
					"external": {
						"printLog(string)": "infinite"
					}
				},
				"methodIdentifiers": {
					"printLog(string)": "68d255ef"
				}
			},
			"storageLayout": {
				"storage": [],
				"types": null
			},
			"userdoc": {
				"kind": "user",
				"methods": {},
				"version": 1
			}
		}
	}
}