{
	".deps/remix-tests/demo13.sol": {
		"C": {
			"abi": [
				{
					"inputs": [
						{
							"internalType": "uint256",
							"name": "_c",
							"type": "uint256"
						}
					],
					"stateMutability": "nonpayable",
					"type": "constructor"
				},
				{
					"inputs": [],
					"name": "a",
					"outputs": [
						{
							"internalType": "uint256",
							"name": "",
							"type": "uint256"
						}
					],
					"stateMutability": "view",
					"type": "function"
				}
			],
			"devdoc": {
				"kind": "dev",
				"methods": {},
				"version": 1
			},
			"evm": {
				"assembly": "    /* \".deps/remix-tests/demo13.sol\":1785:1846  contract C is A {... */\n  mstore(0x40, 0x80)\n    /* \".deps/remix-tests/demo13.sol\":1807:1844  constructor(uint256 _c) A(_c * _c) {} */\n  callvalue\n  dup1\n  iszero\n  tag_1\n  jumpi\n  0x00\n  dup1\n  revert\ntag_1:\n  pop\n  mload(0x40)\n  sub(codesize, bytecodeSize)\n  dup1\n  bytecodeSize\n  dup4\n  codecopy\n  dup2\n  dup2\n  add\n  0x40\n  mstore\n  dup2\n  add\n  swap1\n  tag_2\n  swap2\n  swap1\n  tag_3\n  jump\t// in\ntag_2:\n    /* \".deps/remix-tests/demo13.sol\":1838:1840  _c */\n  dup1\n    /* \".deps/remix-tests/demo13.sol\":1833:1835  _c */\n  dup2\n    /* \".deps/remix-tests/demo13.sol\":1833:1840  _c * _c */\n  tag_5\n  swap2\n  swap1\n  tag_6\n  jump\t// in\ntag_5:\n    /* \".deps/remix-tests/demo13.sol\":1772:1774  _a */\n  dup1\n    /* \".deps/remix-tests/demo13.sol\":1768:1769  a */\n  0x00\n    /* \".deps/remix-tests/demo13.sol\":1768:1774  a = _a */\n  dup2\n  swap1\n  sstore\n  pop\n    /* \".deps/remix-tests/demo13.sol\":1734:1781  constructor(uint256 _a) {... */\n  pop\n    /* \".deps/remix-tests/demo13.sol\":1807:1844  constructor(uint256 _c) A(_c * _c) {} */\n  pop\n    /* \".deps/remix-tests/demo13.sol\":1785:1846  contract C is A {... */\n  jump(tag_10)\n    /* \"#utility.yul\":88:205   */\ntag_12:\n    /* \"#utility.yul\":197:198   */\n  0x00\n    /* \"#utility.yul\":194:195   */\n  dup1\n    /* \"#utility.yul\":187:199   */\n  revert\n    /* \"#utility.yul\":334:411   */\ntag_14:\n    /* \"#utility.yul\":371:378   */\n  0x00\n    /* \"#utility.yul\":400:405   */\n  dup2\n    /* \"#utility.yul\":389:405   */\n  swap1\n  pop\n    /* \"#utility.yul\":334:411   */\n  swap2\n  swap1\n  pop\n  jump\t// out\n    /* \"#utility.yul\":417:539   */\ntag_15:\n    /* \"#utility.yul\":490:514   */\n  tag_24\n    /* \"#utility.yul\":508:513   */\n  dup2\n    /* \"#utility.yul\":490:514   */\n  tag_14\n  jump\t// in\ntag_24:\n    /* \"#utility.yul\":483:488   */\n  dup2\n    /* \"#utility.yul\":480:515   */\n  eq\n    /* \"#utility.yul\":470:533   */\n  tag_25\n  jumpi\n    /* \"#utility.yul\":529:530   */\n  0x00\n    /* \"#utility.yul\":526:527   */\n  dup1\n    /* \"#utility.yul\":519:531   */\n  revert\n    /* \"#utility.yul\":470:533   */\ntag_25:\n    /* \"#utility.yul\":417:539   */\n  pop\n  jump\t// out\n    /* \"#utility.yul\":545:688   */\ntag_16:\n    /* \"#utility.yul\":602:607   */\n  0x00\n    /* \"#utility.yul\":633:639   */\n  dup2\n    /* \"#utility.yul\":627:640   */\n  mload\n    /* \"#utility.yul\":618:640   */\n  swap1\n  pop\n    /* \"#utility.yul\":649:682   */\n  tag_27\n    /* \"#utility.yul\":676:681   */\n  dup2\n    /* \"#utility.yul\":649:682   */\n  tag_15\n  jump\t// in\ntag_27:\n    /* \"#utility.yul\":545:688   */\n  swap3\n  swap2\n  pop\n  pop\n  jump\t// out\n    /* \"#utility.yul\":694:1045   */\ntag_3:\n    /* \"#utility.yul\":764:770   */\n  0x00\n    /* \"#utility.yul\":813:815   */\n  0x20\n    /* \"#utility.yul\":801:810   */\n  dup3\n    /* \"#utility.yul\":792:799   */\n  dup5\n    /* \"#utility.yul\":788:811   */\n  sub\n    /* \"#utility.yul\":784:816   */\n  slt\n    /* \"#utility.yul\":781:900   */\n  iszero\n  tag_29\n  jumpi\n    /* \"#utility.yul\":819:898   */\n  tag_30\n  tag_12\n  jump\t// in\ntag_30:\n    /* \"#utility.yul\":781:900   */\ntag_29:\n    /* \"#utility.yul\":939:940   */\n  0x00\n    /* \"#utility.yul\":964:1028   */\n  tag_31\n    /* \"#utility.yul\":1020:1027   */\n  dup5\n    /* \"#utility.yul\":1011:1017   */\n  dup3\n    /* \"#utility.yul\":1000:1009   */\n  dup6\n    /* \"#utility.yul\":996:1018   */\n  add\n    /* \"#utility.yul\":964:1028   */\n  tag_16\n  jump\t// in\ntag_31:\n    /* \"#utility.yul\":954:1028   */\n  swap2\n  pop\n    /* \"#utility.yul\":910:1038   */\n  pop\n    /* \"#utility.yul\":694:1045   */\n  swap3\n  swap2\n  pop\n  pop\n  jump\t// out\n    /* \"#utility.yul\":1051:1231   */\ntag_17:\n    /* \"#utility.yul\":1099:1176   */\n  0x4e487b7100000000000000000000000000000000000000000000000000000000\n    /* \"#utility.yul\":1096:1097   */\n  0x00\n    /* \"#utility.yul\":1089:1177   */\n  mstore\n    /* \"#utility.yul\":1196:1200   */\n  0x11\n    /* \"#utility.yul\":1193:1194   */\n  0x04\n    /* \"#utility.yul\":1186:1201   */\n  mstore\n    /* \"#utility.yul\":1220:1224   */\n  0x24\n    /* \"#utility.yul\":1217:1218   */\n  0x00\n    /* \"#utility.yul\":1210:1225   */\n  revert\n    /* \"#utility.yul\":1237:1647   */\ntag_6:\n    /* \"#utility.yul\":1277:1284   */\n  0x00\n    /* \"#utility.yul\":1300:1320   */\n  tag_34\n    /* \"#utility.yul\":1318:1319   */\n  dup3\n    /* \"#utility.yul\":1300:1320   */\n  tag_14\n  jump\t// in\ntag_34:\n    /* \"#utility.yul\":1295:1320   */\n  swap2\n  pop\n    /* \"#utility.yul\":1334:1354   */\n  tag_35\n    /* \"#utility.yul\":1352:1353   */\n  dup4\n    /* \"#utility.yul\":1334:1354   */\n  tag_14\n  jump\t// in\ntag_35:\n    /* \"#utility.yul\":1329:1354   */\n  swap3\n  pop\n    /* \"#utility.yul\":1389:1390   */\n  dup3\n    /* \"#utility.yul\":1386:1387   */\n  dup3\n    /* \"#utility.yul\":1382:1391   */\n  mul\n    /* \"#utility.yul\":1411:1441   */\n  tag_36\n    /* \"#utility.yul\":1429:1440   */\n  dup2\n    /* \"#utility.yul\":1411:1441   */\n  tag_14\n  jump\t// in\ntag_36:\n    /* \"#utility.yul\":1400:1441   */\n  swap2\n  pop\n    /* \"#utility.yul\":1590:1591   */\n  dup3\n    /* \"#utility.yul\":1581:1588   */\n  dup3\n    /* \"#utility.yul\":1577:1592   */\n  div\n    /* \"#utility.yul\":1574:1575   */\n  dup5\n    /* \"#utility.yul\":1571:1593   */\n  eq\n    /* \"#utility.yul\":1551:1552   */\n  dup4\n    /* \"#utility.yul\":1544:1553   */\n  iszero\n    /* \"#utility.yul\":1524:1607   */\n  or\n    /* \"#utility.yul\":1501:1640   */\n  tag_37\n  jumpi\n    /* \"#utility.yul\":1620:1638   */\n  tag_38\n  tag_17\n  jump\t// in\ntag_38:\n    /* \"#utility.yul\":1501:1640   */\ntag_37:\n    /* \"#utility.yul\":1285:1647   */\n  pop\n    /* \"#utility.yul\":1237:1647   */\n  swap3\n  swap2\n  pop\n  pop\n  jump\t// out\n    /* \".deps/remix-tests/demo13.sol\":1785:1846  contract C is A {... */\ntag_10:\n  dataSize(sub_0)\n  dup1\n  dataOffset(sub_0)\n  0x00\n  codecopy\n  0x00\n  return\nstop\n\nsub_0: assembly {\n        /* \".deps/remix-tests/demo13.sol\":1785:1846  contract C is A {... */\n      mstore(0x40, 0x80)\n      callvalue\n      dup1\n      iszero\n      tag_1\n      jumpi\n      0x00\n      dup1\n      revert\n    tag_1:\n      pop\n      jumpi(tag_2, lt(calldatasize, 0x04))\n      shr(0xe0, calldataload(0x00))\n      dup1\n      0x0dbe671f\n      eq\n      tag_3\n      jumpi\n    tag_2:\n      0x00\n      dup1\n      revert\n        /* \".deps/remix-tests/demo13.sol\":1711:1727  uint256 public a */\n    tag_3:\n      tag_4\n      tag_5\n      jump\t// in\n    tag_4:\n      mload(0x40)\n      tag_6\n      swap2\n      swap1\n      tag_7\n      jump\t// in\n    tag_6:\n      mload(0x40)\n      dup1\n      swap2\n      sub\n      swap1\n      return\n    tag_5:\n      sload(0x00)\n      dup2\n      jump\t// out\n        /* \"#utility.yul\":7:84   */\n    tag_8:\n        /* \"#utility.yul\":44:51   */\n      0x00\n        /* \"#utility.yul\":73:78   */\n      dup2\n        /* \"#utility.yul\":62:78   */\n      swap1\n      pop\n        /* \"#utility.yul\":7:84   */\n      swap2\n      swap1\n      pop\n      jump\t// out\n        /* \"#utility.yul\":90:208   */\n    tag_9:\n        /* \"#utility.yul\":177:201   */\n      tag_13\n        /* \"#utility.yul\":195:200   */\n      dup2\n        /* \"#utility.yul\":177:201   */\n      tag_8\n      jump\t// in\n    tag_13:\n        /* \"#utility.yul\":172:175   */\n      dup3\n        /* \"#utility.yul\":165:202   */\n      mstore\n        /* \"#utility.yul\":90:208   */\n      pop\n      pop\n      jump\t// out\n        /* \"#utility.yul\":214:436   */\n    tag_7:\n        /* \"#utility.yul\":307:311   */\n      0x00\n        /* \"#utility.yul\":345:347   */\n      0x20\n        /* \"#utility.yul\":334:343   */\n      dup3\n        /* \"#utility.yul\":330:348   */\n      add\n        /* \"#utility.yul\":322:348   */\n      swap1\n      pop\n        /* \"#utility.yul\":358:429   */\n      tag_15\n        /* \"#utility.yul\":426:427   */\n      0x00\n        /* \"#utility.yul\":415:424   */\n      dup4\n        /* \"#utility.yul\":411:428   */\n      add\n        /* \"#utility.yul\":402:408   */\n      dup5\n        /* \"#utility.yul\":358:429   */\n      tag_9\n      jump\t// in\n    tag_15:\n        /* \"#utility.yul\":214:436   */\n      swap3\n      swap2\n      pop\n      pop\n      jump\t// out\n\n    auxdata: 0xa26469706673582212204862c44e473721eaa8e841abdaabe5dfcc66d5b146edce45e8eadafbd0a70f3c64736f6c634300081a0033\n}\n",
				"bytecode": {
					"linkReferences": {},
					"object": "608060405234801561000f575f80fd5b506040516101d23803806101d283398181016040528101906100319190610081565b808161003d91906100d9565b805f81905550505061011a565b5f80fd5b5f819050919050565b6100608161004e565b811461006a575f80fd5b50565b5f8151905061007b81610057565b92915050565b5f602082840312156100965761009561004a565b5b5f6100a38482850161006d565b91505092915050565b7f4e487b71000000000000000000000000000000000000000000000000000000005f52601160045260245ffd5b5f6100e38261004e565b91506100ee8361004e565b92508282026100fc8161004e565b91508282048414831517610113576101126100ac565b5b5092915050565b60ac806101265f395ff3fe6080604052348015600e575f80fd5b50600436106026575f3560e01c80630dbe671f14602a575b5f80fd5b60306044565b604051603b9190605f565b60405180910390f35b5f5481565b5f819050919050565b6059816049565b82525050565b5f60208201905060705f8301846052565b9291505056fea26469706673582212204862c44e473721eaa8e841abdaabe5dfcc66d5b146edce45e8eadafbd0a70f3c64736f6c634300081a0033",
					"opcodes": "PUSH1 0x80 PUSH1 0x40 MSTORE CALLVALUE DUP1 ISZERO PUSH2 0xF JUMPI PUSH0 DUP1 REVERT JUMPDEST POP PUSH1 0x40 MLOAD PUSH2 0x1D2 CODESIZE SUB DUP1 PUSH2 0x1D2 DUP4 CODECOPY DUP2 DUP2 ADD PUSH1 0x40 MSTORE DUP2 ADD SWAP1 PUSH2 0x31 SWAP2 SWAP1 PUSH2 0x81 JUMP JUMPDEST DUP1 DUP2 PUSH2 0x3D SWAP2 SWAP1 PUSH2 0xD9 JUMP JUMPDEST DUP1 PUSH0 DUP2 SWAP1 SSTORE POP POP POP PUSH2 0x11A JUMP JUMPDEST PUSH0 DUP1 REVERT JUMPDEST PUSH0 DUP2 SWAP1 POP SWAP2 SWAP1 POP JUMP JUMPDEST PUSH2 0x60 DUP2 PUSH2 0x4E JUMP JUMPDEST DUP2 EQ PUSH2 0x6A JUMPI PUSH0 DUP1 REVERT JUMPDEST POP JUMP JUMPDEST PUSH0 DUP2 MLOAD SWAP1 POP PUSH2 0x7B DUP2 PUSH2 0x57 JUMP JUMPDEST SWAP3 SWAP2 POP POP JUMP JUMPDEST PUSH0 PUSH1 0x20 DUP3 DUP5 SUB SLT ISZERO PUSH2 0x96 JUMPI PUSH2 0x95 PUSH2 0x4A JUMP JUMPDEST JUMPDEST PUSH0 PUSH2 0xA3 DUP5 DUP3 DUP6 ADD PUSH2 0x6D JUMP JUMPDEST SWAP2 POP POP SWAP3 SWAP2 POP POP JUMP JUMPDEST PUSH32 0x4E487B7100000000000000000000000000000000000000000000000000000000 PUSH0 MSTORE PUSH1 0x11 PUSH1 0x4 MSTORE PUSH1 0x24 PUSH0 REVERT JUMPDEST PUSH0 PUSH2 0xE3 DUP3 PUSH2 0x4E JUMP JUMPDEST SWAP2 POP PUSH2 0xEE DUP4 PUSH2 0x4E JUMP JUMPDEST SWAP3 POP DUP3 DUP3 MUL PUSH2 0xFC DUP2 PUSH2 0x4E JUMP JUMPDEST SWAP2 POP DUP3 DUP3 DIV DUP5 EQ DUP4 ISZERO OR PUSH2 0x113 JUMPI PUSH2 0x112 PUSH2 0xAC JUMP JUMPDEST JUMPDEST POP SWAP3 SWAP2 POP POP JUMP JUMPDEST PUSH1 0xAC DUP1 PUSH2 0x126 PUSH0 CODECOPY PUSH0 RETURN INVALID PUSH1 0x80 PUSH1 0x40 MSTORE CALLVALUE DUP1 ISZERO PUSH1 0xE JUMPI PUSH0 DUP1 REVERT JUMPDEST POP PUSH1 0x4 CALLDATASIZE LT PUSH1 0x26 JUMPI PUSH0 CALLDATALOAD PUSH1 0xE0 SHR DUP1 PUSH4 0xDBE671F EQ PUSH1 0x2A JUMPI JUMPDEST PUSH0 DUP1 REVERT JUMPDEST PUSH1 0x30 PUSH1 0x44 JUMP JUMPDEST PUSH1 0x40 MLOAD PUSH1 0x3B SWAP2 SWAP1 PUSH1 0x5F JUMP JUMPDEST PUSH1 0x40 MLOAD DUP1 SWAP2 SUB SWAP1 RETURN JUMPDEST PUSH0 SLOAD DUP2 JUMP JUMPDEST PUSH0 DUP2 SWAP1 POP SWAP2 SWAP1 POP JUMP JUMPDEST PUSH1 0x59 DUP2 PUSH1 0x49 JUMP JUMPDEST DUP3 MSTORE POP POP JUMP JUMPDEST PUSH0 PUSH1 0x20 DUP3 ADD SWAP1 POP PUSH1 0x70 PUSH0 DUP4 ADD DUP5 PUSH1 0x52 JUMP JUMPDEST SWAP3 SWAP2 POP POP JUMP INVALID LOG2 PUSH5 0x6970667358 0x22 SLT KECCAK256 BASEFEE PUSH3 0xC44E47 CALLDATACOPY 0x21 0xEA 0xA8 0xE8 COINBASE 0xAB 0xDA 0xAB 0xE5 0xDF 0xCC PUSH7 0xD5B146EDCE45E8 0xEA 0xDA 0xFB 0xD0 0xA7 0xF EXTCODECOPY PUSH5 0x736F6C6343 STOP ADDMOD BYTE STOP CALLER "
				},
				"gasEstimates": {
					"creation": {
						"codeDepositCost": "34400",
						"executionCost": "infinite",
						"totalCost": "infinite"
					},
					"external": {
						"a()": "2402"
					}
				},
				"methodIdentifiers": {
					"a()": "0dbe671f"
				}
			},
			"storageLayout": {
				"storage": [
					{
						"astId": 120,
						"contract": ".deps/remix-tests/demo13.sol:C",
						"label": "a",
						"offset": 0,
						"slot": "0",
						"type": "t_uint256"
					}
				],
				"types": {
					"t_uint256": {
						"encoding": "inplace",
						"label": "uint256",
						"numberOfBytes": "32"
					}
				}
			},
			"userdoc": {
				"kind": "user",
				"methods": {},
				"version": 1
			}
		}
	}
}