{
	".deps/remix-tests/demo04.sol": {
		"FunctionRetures": {
			"abi": [
				{
					"inputs": [],
					"name": "getReturn",
					"outputs": [],
					"stateMutability": "pure",
					"type": "function"
				},
				{
					"inputs": [],
					"name": "method1",
					"outputs": [
						{
							"internalType": "uint256",
							"name": "",
							"type": "uint256"
						},
						{
							"internalType": "bool",
							"name": "",
							"type": "bool"
						},
						{
							"internalType": "uint256[3]",
							"name": "",
							"type": "uint256[3]"
						}
					],
					"stateMutability": "pure",
					"type": "function"
				},
				{
					"inputs": [],
					"name": "method2",
					"outputs": [
						{
							"internalType": "uint256",
							"name": "number",
							"type": "uint256"
						},
						{
							"internalType": "bool",
							"name": "flag",
							"type": "bool"
						},
						{
							"internalType": "uint256[3]",
							"name": "array",
							"type": "uint256[3]"
						}
					],
					"stateMutability": "pure",
					"type": "function"
				}
			],
			"devdoc": {
				"kind": "dev",
				"methods": {},
				"version": 1
			},
			"evm": {
				"assembly": "    /* \".deps/remix-tests/demo04.sol\":58:997  contract FunctionRetures {... */\n  mstore(0x40, 0x80)\n  callvalue\n  dup1\n  iszero\n  tag_1\n  jumpi\n  0x00\n  dup1\n  revert\ntag_1:\n  pop\n  dataSize(sub_0)\n  dup1\n  dataOffset(sub_0)\n  0x00\n  codecopy\n  0x00\n  return\nstop\n\nsub_0: assembly {\n        /* \".deps/remix-tests/demo04.sol\":58:997  contract FunctionRetures {... */\n      mstore(0x40, 0x80)\n      callvalue\n      dup1\n      iszero\n      tag_1\n      jumpi\n      0x00\n      dup1\n      revert\n    tag_1:\n      pop\n      jumpi(tag_2, lt(calldatasize, 0x04))\n      shr(0xe0, calldataload(0x00))\n      dup1\n      0x159ce057\n      eq\n      tag_3\n      jumpi\n      dup1\n      0x5aee9431\n      eq\n      tag_4\n      jumpi\n      dup1\n      0xf8a47792\n      eq\n      tag_5\n      jumpi\n    tag_2:\n      0x00\n      dup1\n      revert\n        /* \".deps/remix-tests/demo04.sol\":718:995  function getReturn() public pure {... */\n    tag_3:\n      tag_6\n      tag_7\n      jump\t// in\n    tag_6:\n      stop\n        /* \".deps/remix-tests/demo04.sol\":145:347  function method1()... */\n    tag_4:\n      tag_8\n      tag_9\n      jump\t// in\n    tag_8:\n      mload(0x40)\n      tag_10\n      swap4\n      swap3\n      swap2\n      swap1\n      tag_11\n      jump\t// in\n    tag_10:\n      mload(0x40)\n      dup1\n      swap2\n      sub\n      swap1\n      return\n        /* \".deps/remix-tests/demo04.sol\":427:677  function method2()... */\n    tag_5:\n      tag_12\n      tag_13\n      jump\t// in\n    tag_12:\n      mload(0x40)\n      tag_14\n      swap4\n      swap3\n      swap2\n      swap1\n      tag_11\n      jump\t// in\n    tag_14:\n      mload(0x40)\n      dup1\n      swap2\n      sub\n      swap1\n      return\n        /* \".deps/remix-tests/demo04.sol\":718:995  function getReturn() public pure {... */\n    tag_7:\n        /* \".deps/remix-tests/demo04.sol\":789:804  uint256 _number */\n      0x00\n        /* \".deps/remix-tests/demo04.sol\":814:824  bool _flag */\n      dup1\n        /* \".deps/remix-tests/demo04.sol\":834:858  uint256[3] memory _array */\n      tag_16\n      tag_17\n      jump\t// in\n    tag_16:\n        /* \".deps/remix-tests/demo04.sol\":895:904  method2() */\n      tag_18\n        /* \".deps/remix-tests/demo04.sol\":895:902  method2 */\n      tag_13\n        /* \".deps/remix-tests/demo04.sol\":895:904  method2() */\n      jump\t// in\n    tag_18:\n        /* \".deps/remix-tests/demo04.sol\":868:904  (_number, _flag, _array) = method2() */\n      dup1\n      swap4\n      pop\n      dup2\n      swap5\n      pop\n      dup3\n      swap6\n      pop\n      pop\n      pop\n      pop\n        /* \".deps/remix-tests/demo04.sol\":943:954  bool _flag2 */\n      0x00\n        /* \".deps/remix-tests/demo04.sol\":979:988  method2() */\n      tag_19\n        /* \".deps/remix-tests/demo04.sol\":979:986  method2 */\n      tag_13\n        /* \".deps/remix-tests/demo04.sol\":979:988  method2() */\n      jump\t// in\n    tag_19:\n        /* \".deps/remix-tests/demo04.sol\":964:988  (, _flag2, ) = method2() */\n      swap1\n      swap2\n      pop\n      pop\n      dup1\n      swap2\n      pop\n      pop\n        /* \".deps/remix-tests/demo04.sol\":751:995  {... */\n      pop\n      pop\n      pop\n      pop\n        /* \".deps/remix-tests/demo04.sol\":718:995  function getReturn() public pure {... */\n      jump\t// out\n        /* \".deps/remix-tests/demo04.sol\":145:347  function method1()... */\n    tag_9:\n        /* \".deps/remix-tests/demo04.sol\":222:229  uint256 */\n      0x00\n        /* \".deps/remix-tests/demo04.sol\":243:247  bool */\n      dup1\n        /* \".deps/remix-tests/demo04.sol\":261:278  uint256[3] memory */\n      tag_20\n      tag_17\n      jump\t// in\n    tag_20:\n        /* \".deps/remix-tests/demo04.sol\":311:312  1 */\n      0x01\n        /* \".deps/remix-tests/demo04.sol\":314:319  false */\n      0x00\n        /* \".deps/remix-tests/demo04.sol\":303:340  return (1, false, [uint256(1), 2, 3]) */\n      mload(0x40)\n      dup1\n      0x60\n      add\n      0x40\n      mstore\n      dup1\n        /* \".deps/remix-tests/demo04.sol\":330:331  1 */\n      0x01\n        /* \".deps/remix-tests/demo04.sol\":303:340  return (1, false, [uint256(1), 2, 3]) */\n      dup2\n      mstore\n      0x20\n      add\n        /* \".deps/remix-tests/demo04.sol\":334:335  2 */\n      0x02\n        /* \".deps/remix-tests/demo04.sol\":303:340  return (1, false, [uint256(1), 2, 3]) */\n      dup2\n      mstore\n      0x20\n      add\n        /* \".deps/remix-tests/demo04.sol\":337:338  3 */\n      0x03\n        /* \".deps/remix-tests/demo04.sol\":303:340  return (1, false, [uint256(1), 2, 3]) */\n      dup2\n      mstore\n      pop\n      swap3\n      pop\n      swap3\n      pop\n      swap3\n      pop\n        /* \".deps/remix-tests/demo04.sol\":145:347  function method1()... */\n      swap1\n      swap2\n      swap3\n      jump\t// out\n        /* \".deps/remix-tests/demo04.sol\":427:677  function method2()... */\n    tag_13:\n        /* \".deps/remix-tests/demo04.sol\":504:518  uint256 number */\n      0x00\n        /* \".deps/remix-tests/demo04.sol\":532:541  bool flag */\n      dup1\n        /* \".deps/remix-tests/demo04.sol\":555:578  uint256[3] memory array */\n      tag_22\n      tag_17\n      jump\t// in\n    tag_22:\n        /* \".deps/remix-tests/demo04.sol\":612:613  1 */\n      0x01\n        /* \".deps/remix-tests/demo04.sol\":603:613  number = 1 */\n      swap3\n      pop\n        /* \".deps/remix-tests/demo04.sol\":630:634  true */\n      0x01\n        /* \".deps/remix-tests/demo04.sol\":623:634  flag = true */\n      swap2\n      pop\n        /* \".deps/remix-tests/demo04.sol\":644:670  array = [uint256(1), 2, 3] */\n      mload(0x40)\n      dup1\n      0x60\n      add\n      0x40\n      mstore\n      dup1\n        /* \".deps/remix-tests/demo04.sol\":661:662  1 */\n      0x01\n        /* \".deps/remix-tests/demo04.sol\":644:670  array = [uint256(1), 2, 3] */\n      dup2\n      mstore\n      0x20\n      add\n        /* \".deps/remix-tests/demo04.sol\":665:666  2 */\n      0x02\n        /* \".deps/remix-tests/demo04.sol\":644:670  array = [uint256(1), 2, 3] */\n      dup2\n      mstore\n      0x20\n      add\n        /* \".deps/remix-tests/demo04.sol\":668:669  3 */\n      0x03\n        /* \".deps/remix-tests/demo04.sol\":644:670  array = [uint256(1), 2, 3] */\n      dup2\n      mstore\n      pop\n      swap1\n      pop\n        /* \".deps/remix-tests/demo04.sol\":427:677  function method2()... */\n      swap1\n      swap2\n      swap3\n      jump\t// out\n    tag_17:\n      mload(0x40)\n      dup1\n      0x60\n      add\n      0x40\n      mstore\n      dup1\n      0x03\n      swap1\n      0x20\n      dup3\n      mul\n      dup1\n      calldatasize\n      dup4\n      calldatacopy\n      dup1\n      dup3\n      add\n      swap2\n      pop\n      pop\n      swap1\n      pop\n      pop\n      swap1\n      jump\t// out\n        /* \"#utility.yul\":7:84   */\n    tag_24:\n        /* \"#utility.yul\":44:51   */\n      0x00\n        /* \"#utility.yul\":73:78   */\n      dup2\n        /* \"#utility.yul\":62:78   */\n      swap1\n      pop\n        /* \"#utility.yul\":7:84   */\n      swap2\n      swap1\n      pop\n      jump\t// out\n        /* \"#utility.yul\":90:208   */\n    tag_25:\n        /* \"#utility.yul\":177:201   */\n      tag_38\n        /* \"#utility.yul\":195:200   */\n      dup2\n        /* \"#utility.yul\":177:201   */\n      tag_24\n      jump\t// in\n    tag_38:\n        /* \"#utility.yul\":172:175   */\n      dup3\n        /* \"#utility.yul\":165:202   */\n      mstore\n        /* \"#utility.yul\":90:208   */\n      pop\n      pop\n      jump\t// out\n        /* \"#utility.yul\":214:304   */\n    tag_26:\n        /* \"#utility.yul\":248:255   */\n      0x00\n        /* \"#utility.yul\":291:296   */\n      dup2\n        /* \"#utility.yul\":284:297   */\n      iszero\n        /* \"#utility.yul\":277:298   */\n      iszero\n        /* \"#utility.yul\":266:298   */\n      swap1\n      pop\n        /* \"#utility.yul\":214:304   */\n      swap2\n      swap1\n      pop\n      jump\t// out\n        /* \"#utility.yul\":310:419   */\n    tag_27:\n        /* \"#utility.yul\":391:412   */\n      tag_41\n        /* \"#utility.yul\":406:411   */\n      dup2\n        /* \"#utility.yul\":391:412   */\n      tag_26\n      jump\t// in\n    tag_41:\n        /* \"#utility.yul\":386:389   */\n      dup3\n        /* \"#utility.yul\":379:413   */\n      mstore\n        /* \"#utility.yul\":310:419   */\n      pop\n      pop\n      jump\t// out\n        /* \"#utility.yul\":425:529   */\n    tag_28:\n        /* \"#utility.yul\":490:496   */\n      0x00\n        /* \"#utility.yul\":518:522   */\n      0x03\n        /* \"#utility.yul\":508:522   */\n      swap1\n      pop\n        /* \"#utility.yul\":425:529   */\n      swap2\n      swap1\n      pop\n      jump\t// out\n        /* \"#utility.yul\":535:678   */\n    tag_29:\n        /* \"#utility.yul\":632:643   */\n      0x00\n        /* \"#utility.yul\":669:672   */\n      dup2\n        /* \"#utility.yul\":654:672   */\n      swap1\n      pop\n        /* \"#utility.yul\":535:678   */\n      swap3\n      swap2\n      pop\n      pop\n      jump\t// out\n        /* \"#utility.yul\":684:782   */\n    tag_30:\n        /* \"#utility.yul\":749:753   */\n      0x00\n        /* \"#utility.yul\":772:775   */\n      dup2\n        /* \"#utility.yul\":764:775   */\n      swap1\n      pop\n        /* \"#utility.yul\":684:782   */\n      swap2\n      swap1\n      pop\n      jump\t// out\n        /* \"#utility.yul\":788:896   */\n    tag_31:\n        /* \"#utility.yul\":865:889   */\n      tag_46\n        /* \"#utility.yul\":883:888   */\n      dup2\n        /* \"#utility.yul\":865:889   */\n      tag_24\n      jump\t// in\n    tag_46:\n        /* \"#utility.yul\":860:863   */\n      dup3\n        /* \"#utility.yul\":853:890   */\n      mstore\n        /* \"#utility.yul\":788:896   */\n      pop\n      pop\n      jump\t// out\n        /* \"#utility.yul\":902:1081   */\n    tag_32:\n        /* \"#utility.yul\":971:981   */\n      0x00\n        /* \"#utility.yul\":992:1038   */\n      tag_48\n        /* \"#utility.yul\":1034:1037   */\n      dup4\n        /* \"#utility.yul\":1026:1032   */\n      dup4\n        /* \"#utility.yul\":992:1038   */\n      tag_31\n      jump\t// in\n    tag_48:\n        /* \"#utility.yul\":1070:1074   */\n      0x20\n        /* \"#utility.yul\":1065:1068   */\n      dup4\n        /* \"#utility.yul\":1061:1075   */\n      add\n        /* \"#utility.yul\":1047:1075   */\n      swap1\n      pop\n        /* \"#utility.yul\":902:1081   */\n      swap3\n      swap2\n      pop\n      pop\n      jump\t// out\n        /* \"#utility.yul\":1087:1198   */\n    tag_33:\n        /* \"#utility.yul\":1155:1159   */\n      0x00\n        /* \"#utility.yul\":1187:1191   */\n      0x20\n        /* \"#utility.yul\":1182:1185   */\n      dup3\n        /* \"#utility.yul\":1178:1192   */\n      add\n        /* \"#utility.yul\":1170:1192   */\n      swap1\n      pop\n        /* \"#utility.yul\":1087:1198   */\n      swap2\n      swap1\n      pop\n      jump\t// out\n        /* \"#utility.yul\":1236:1930   */\n    tag_34:\n        /* \"#utility.yul\":1372:1424   */\n      tag_51\n        /* \"#utility.yul\":1418:1423   */\n      dup2\n        /* \"#utility.yul\":1372:1424   */\n      tag_28\n      jump\t// in\n    tag_51:\n        /* \"#utility.yul\":1440:1524   */\n      tag_52\n        /* \"#utility.yul\":1517:1523   */\n      dup2\n        /* \"#utility.yul\":1512:1515   */\n      dup5\n        /* \"#utility.yul\":1440:1524   */\n      tag_29\n      jump\t// in\n    tag_52:\n        /* \"#utility.yul\":1433:1524   */\n      swap3\n      pop\n        /* \"#utility.yul\":1548:1602   */\n      tag_53\n        /* \"#utility.yul\":1596:1601   */\n      dup3\n        /* \"#utility.yul\":1548:1602   */\n      tag_30\n      jump\t// in\n    tag_53:\n        /* \"#utility.yul\":1625:1632   */\n      dup1\n        /* \"#utility.yul\":1656:1657   */\n      0x00\n        /* \"#utility.yul\":1641:1923   */\n    tag_54:\n        /* \"#utility.yul\":1666:1672   */\n      dup4\n        /* \"#utility.yul\":1663:1664   */\n      dup2\n        /* \"#utility.yul\":1660:1673   */\n      lt\n        /* \"#utility.yul\":1641:1923   */\n      iszero\n      tag_56\n      jumpi\n        /* \"#utility.yul\":1742:1748   */\n      dup2\n        /* \"#utility.yul\":1736:1749   */\n      mload\n        /* \"#utility.yul\":1769:1832   */\n      tag_57\n        /* \"#utility.yul\":1828:1831   */\n      dup8\n        /* \"#utility.yul\":1813:1826   */\n      dup3\n        /* \"#utility.yul\":1769:1832   */\n      tag_32\n      jump\t// in\n    tag_57:\n        /* \"#utility.yul\":1762:1832   */\n      swap7\n      pop\n        /* \"#utility.yul\":1855:1913   */\n      tag_58\n        /* \"#utility.yul\":1906:1912   */\n      dup4\n        /* \"#utility.yul\":1855:1913   */\n      tag_33\n      jump\t// in\n    tag_58:\n        /* \"#utility.yul\":1845:1913   */\n      swap3\n      pop\n        /* \"#utility.yul\":1701:1923   */\n      pop\n        /* \"#utility.yul\":1688:1689   */\n      0x01\n        /* \"#utility.yul\":1685:1686   */\n      dup2\n        /* \"#utility.yul\":1681:1690   */\n      add\n        /* \"#utility.yul\":1676:1690   */\n      swap1\n      pop\n        /* \"#utility.yul\":1641:1923   */\n      jump(tag_54)\n    tag_56:\n        /* \"#utility.yul\":1645:1659   */\n      pop\n        /* \"#utility.yul\":1348:1930   */\n      pop\n      pop\n      pop\n        /* \"#utility.yul\":1236:1930   */\n      pop\n      pop\n      jump\t// out\n        /* \"#utility.yul\":1936:2459   */\n    tag_11:\n        /* \"#utility.yul\":2125:2129   */\n      0x00\n        /* \"#utility.yul\":2163:2166   */\n      0xa0\n        /* \"#utility.yul\":2152:2161   */\n      dup3\n        /* \"#utility.yul\":2148:2167   */\n      add\n        /* \"#utility.yul\":2140:2167   */\n      swap1\n      pop\n        /* \"#utility.yul\":2177:2248   */\n      tag_60\n        /* \"#utility.yul\":2245:2246   */\n      0x00\n        /* \"#utility.yul\":2234:2243   */\n      dup4\n        /* \"#utility.yul\":2230:2247   */\n      add\n        /* \"#utility.yul\":2221:2227   */\n      dup7\n        /* \"#utility.yul\":2177:2248   */\n      tag_25\n      jump\t// in\n    tag_60:\n        /* \"#utility.yul\":2258:2324   */\n      tag_61\n        /* \"#utility.yul\":2320:2322   */\n      0x20\n        /* \"#utility.yul\":2309:2318   */\n      dup4\n        /* \"#utility.yul\":2305:2323   */\n      add\n        /* \"#utility.yul\":2296:2302   */\n      dup6\n        /* \"#utility.yul\":2258:2324   */\n      tag_27\n      jump\t// in\n    tag_61:\n        /* \"#utility.yul\":2334:2452   */\n      tag_62\n        /* \"#utility.yul\":2448:2450   */\n      0x40\n        /* \"#utility.yul\":2437:2446   */\n      dup4\n        /* \"#utility.yul\":2433:2451   */\n      add\n        /* \"#utility.yul\":2424:2430   */\n      dup5\n        /* \"#utility.yul\":2334:2452   */\n      tag_34\n      jump\t// in\n    tag_62:\n        /* \"#utility.yul\":1936:2459   */\n      swap5\n      swap4\n      pop\n      pop\n      pop\n      pop\n      jump\t// out\n\n    auxdata: 0xa26469706673582212201b955486b9ec61d5332bb8ceaa005709830b609632accfeb082f1a845445512264736f6c634300081a0033\n}\n",
				"bytecode": {
					"linkReferences": {},
					"object": "6080604052348015600e575f80fd5b506102938061001c5f395ff3fe608060405234801561000f575f80fd5b506004361061003f575f3560e01c8063159ce057146100435780635aee94311461004d578063f8a477921461006d575b5f80fd5b61004b61008d565b005b6100556100c2565b60405161006493929190610228565b60405180910390f35b6100756100f8565b60405161008493929190610228565b60405180910390f35b5f8061009761012f565b61009f6100f8565b8093508194508295505050505f6100b46100f8565b909150508091505050505050565b5f806100cc61012f565b60015f604051806060016040528060018152602001600281526020016003815250925092509250909192565b5f8061010261012f565b60019250600191506040518060600160405280600181526020016002815260200160038152509050909192565b6040518060600160405280600390602082028036833780820191505090505090565b5f819050919050565b61016381610151565b82525050565b5f8115159050919050565b61017d81610169565b82525050565b5f60039050919050565b5f81905092915050565b5f819050919050565b6101a981610151565b82525050565b5f6101ba83836101a0565b60208301905092915050565b5f602082019050919050565b6101db81610183565b6101e5818461018d565b92506101f082610197565b805f5b8381101561022057815161020787826101af565b9650610212836101c6565b9250506001810190506101f3565b505050505050565b5f60a08201905061023b5f83018661015a565b6102486020830185610174565b61025560408301846101d2565b94935050505056fea26469706673582212201b955486b9ec61d5332bb8ceaa005709830b609632accfeb082f1a845445512264736f6c634300081a0033",
					"opcodes": "PUSH1 0x80 PUSH1 0x40 MSTORE CALLVALUE DUP1 ISZERO PUSH1 0xE JUMPI PUSH0 DUP1 REVERT JUMPDEST POP PUSH2 0x293 DUP1 PUSH2 0x1C PUSH0 CODECOPY PUSH0 RETURN INVALID PUSH1 0x80 PUSH1 0x40 MSTORE CALLVALUE DUP1 ISZERO PUSH2 0xF JUMPI PUSH0 DUP1 REVERT JUMPDEST POP PUSH1 0x4 CALLDATASIZE LT PUSH2 0x3F JUMPI PUSH0 CALLDATALOAD PUSH1 0xE0 SHR DUP1 PUSH4 0x159CE057 EQ PUSH2 0x43 JUMPI DUP1 PUSH4 0x5AEE9431 EQ PUSH2 0x4D JUMPI DUP1 PUSH4 0xF8A47792 EQ PUSH2 0x6D JUMPI JUMPDEST PUSH0 DUP1 REVERT JUMPDEST PUSH2 0x4B PUSH2 0x8D JUMP JUMPDEST STOP JUMPDEST PUSH2 0x55 PUSH2 0xC2 JUMP JUMPDEST PUSH1 0x40 MLOAD PUSH2 0x64 SWAP4 SWAP3 SWAP2 SWAP1 PUSH2 0x228 JUMP JUMPDEST PUSH1 0x40 MLOAD DUP1 SWAP2 SUB SWAP1 RETURN JUMPDEST PUSH2 0x75 PUSH2 0xF8 JUMP JUMPDEST PUSH1 0x40 MLOAD PUSH2 0x84 SWAP4 SWAP3 SWAP2 SWAP1 PUSH2 0x228 JUMP JUMPDEST PUSH1 0x40 MLOAD DUP1 SWAP2 SUB SWAP1 RETURN JUMPDEST PUSH0 DUP1 PUSH2 0x97 PUSH2 0x12F JUMP JUMPDEST PUSH2 0x9F PUSH2 0xF8 JUMP JUMPDEST DUP1 SWAP4 POP DUP2 SWAP5 POP DUP3 SWAP6 POP POP POP POP PUSH0 PUSH2 0xB4 PUSH2 0xF8 JUMP JUMPDEST SWAP1 SWAP2 POP POP DUP1 SWAP2 POP POP POP POP POP POP JUMP JUMPDEST PUSH0 DUP1 PUSH2 0xCC PUSH2 0x12F JUMP JUMPDEST PUSH1 0x1 PUSH0 PUSH1 0x40 MLOAD DUP1 PUSH1 0x60 ADD PUSH1 0x40 MSTORE DUP1 PUSH1 0x1 DUP2 MSTORE PUSH1 0x20 ADD PUSH1 0x2 DUP2 MSTORE PUSH1 0x20 ADD PUSH1 0x3 DUP2 MSTORE POP SWAP3 POP SWAP3 POP SWAP3 POP SWAP1 SWAP2 SWAP3 JUMP JUMPDEST PUSH0 DUP1 PUSH2 0x102 PUSH2 0x12F JUMP JUMPDEST PUSH1 0x1 SWAP3 POP PUSH1 0x1 SWAP2 POP PUSH1 0x40 MLOAD DUP1 PUSH1 0x60 ADD PUSH1 0x40 MSTORE DUP1 PUSH1 0x1 DUP2 MSTORE PUSH1 0x20 ADD PUSH1 0x2 DUP2 MSTORE PUSH1 0x20 ADD PUSH1 0x3 DUP2 MSTORE POP SWAP1 POP SWAP1 SWAP2 SWAP3 JUMP JUMPDEST PUSH1 0x40 MLOAD DUP1 PUSH1 0x60 ADD PUSH1 0x40 MSTORE DUP1 PUSH1 0x3 SWAP1 PUSH1 0x20 DUP3 MUL DUP1 CALLDATASIZE DUP4 CALLDATACOPY DUP1 DUP3 ADD SWAP2 POP POP SWAP1 POP POP SWAP1 JUMP JUMPDEST PUSH0 DUP2 SWAP1 POP SWAP2 SWAP1 POP JUMP JUMPDEST PUSH2 0x163 DUP2 PUSH2 0x151 JUMP JUMPDEST DUP3 MSTORE POP POP JUMP JUMPDEST PUSH0 DUP2 ISZERO ISZERO SWAP1 POP SWAP2 SWAP1 POP JUMP JUMPDEST PUSH2 0x17D DUP2 PUSH2 0x169 JUMP JUMPDEST DUP3 MSTORE POP POP JUMP JUMPDEST PUSH0 PUSH1 0x3 SWAP1 POP SWAP2 SWAP1 POP JUMP JUMPDEST PUSH0 DUP2 SWAP1 POP SWAP3 SWAP2 POP POP JUMP JUMPDEST PUSH0 DUP2 SWAP1 POP SWAP2 SWAP1 POP JUMP JUMPDEST PUSH2 0x1A9 DUP2 PUSH2 0x151 JUMP JUMPDEST DUP3 MSTORE POP POP JUMP JUMPDEST PUSH0 PUSH2 0x1BA DUP4 DUP4 PUSH2 0x1A0 JUMP JUMPDEST PUSH1 0x20 DUP4 ADD SWAP1 POP SWAP3 SWAP2 POP POP JUMP JUMPDEST PUSH0 PUSH1 0x20 DUP3 ADD SWAP1 POP SWAP2 SWAP1 POP JUMP JUMPDEST PUSH2 0x1DB DUP2 PUSH2 0x183 JUMP JUMPDEST PUSH2 0x1E5 DUP2 DUP5 PUSH2 0x18D JUMP JUMPDEST SWAP3 POP PUSH2 0x1F0 DUP3 PUSH2 0x197 JUMP JUMPDEST DUP1 PUSH0 JUMPDEST DUP4 DUP2 LT ISZERO PUSH2 0x220 JUMPI DUP2 MLOAD PUSH2 0x207 DUP8 DUP3 PUSH2 0x1AF JUMP JUMPDEST SWAP7 POP PUSH2 0x212 DUP4 PUSH2 0x1C6 JUMP JUMPDEST SWAP3 POP POP PUSH1 0x1 DUP2 ADD SWAP1 POP PUSH2 0x1F3 JUMP JUMPDEST POP POP POP POP POP POP JUMP JUMPDEST PUSH0 PUSH1 0xA0 DUP3 ADD SWAP1 POP PUSH2 0x23B PUSH0 DUP4 ADD DUP7 PUSH2 0x15A JUMP JUMPDEST PUSH2 0x248 PUSH1 0x20 DUP4 ADD DUP6 PUSH2 0x174 JUMP JUMPDEST PUSH2 0x255 PUSH1 0x40 DUP4 ADD DUP5 PUSH2 0x1D2 JUMP JUMPDEST SWAP5 SWAP4 POP POP POP POP JUMP INVALID LOG2 PUSH5 0x6970667358 0x22 SLT KECCAK256 SHL SWAP6 SLOAD DUP7 0xB9 0xEC PUSH2 0xD533 0x2B 0xB8 0xCE 0xAA STOP JUMPI MULMOD DUP4 SIGNEXTEND PUSH1 0x96 ORIGIN 0xAC 0xCF 0xEB ADDMOD 0x2F BYTE DUP5 SLOAD GASLIMIT MLOAD 0x22 PUSH5 0x736F6C6343 STOP ADDMOD BYTE STOP CALLER "
				},
				"gasEstimates": {
					"creation": {
						"codeDepositCost": "131800",
						"executionCost": "175",
						"totalCost": "131975"
					},
					"external": {
						"getReturn()": "infinite",
						"method1()": "infinite",
						"method2()": "infinite"
					}
				},
				"methodIdentifiers": {
					"getReturn()": "159ce057",
					"method1()": "5aee9431",
					"method2()": "f8a47792"
				}
			},
			"storageLayout": {
				"storage": [],
				"types": null
			},
			"userdoc": {
				"kind": "user",
				"methods": {},
				"version": 1
			}
		}
	}
}