{
	".deps/remix-tests/fundme/Transaction.sol": {
		"Transaction": {
			"abi": [
				{
					"inputs": [],
					"name": "getMoney",
					"outputs": [],
					"stateMutability": "nonpayable",
					"type": "function"
				},
				{
					"inputs": [],
					"name": "queryMoney",
					"outputs": [
						{
							"internalType": "uint256",
							"name": "",
							"type": "uint256"
						}
					],
					"stateMutability": "view",
					"type": "function"
				},
				{
					"inputs": [],
					"name": "saveMoney",
					"outputs": [],
					"stateMutability": "payable",
					"type": "function"
				}
			],
			"devdoc": {
				"kind": "dev",
				"methods": {},
				"version": 1
			},
			"evm": {
				"assembly": "    /* \".deps/remix-tests/fundme/Transaction.sol\":58:708  contract Transaction {... */\n  mstore(0x40, 0x80)\n  callvalue\n  dup1\n  iszero\n  tag_1\n  jumpi\n  0x00\n  dup1\n  revert\ntag_1:\n  pop\n  dataSize(sub_0)\n  dup1\n  dataOffset(sub_0)\n  0x00\n  codecopy\n  0x00\n  return\nstop\n\nsub_0: assembly {\n        /* \".deps/remix-tests/fundme/Transaction.sol\":58:708  contract Transaction {... */\n      mstore(0x40, 0x80)\n      jumpi(tag_1, lt(calldatasize, 0x04))\n      shr(0xe0, calldataload(0x00))\n      dup1\n      0x2466de24\n      eq\n      tag_2\n      jumpi\n      dup1\n      0x56598e64\n      eq\n      tag_3\n      jumpi\n      dup1\n      0x98e1b410\n      eq\n      tag_4\n      jumpi\n    tag_1:\n      0x00\n      dup1\n      revert\n        /* \".deps/remix-tests/fundme/Transaction.sol\":164:312  function saveMoney() public payable {... */\n    tag_2:\n      tag_5\n      tag_6\n      jump\t// in\n    tag_5:\n      stop\n        /* \".deps/remix-tests/fundme/Transaction.sol\":608:706  function queryMoney() public view returns (uint256) {... */\n    tag_3:\n      callvalue\n      dup1\n      iszero\n      tag_7\n      jumpi\n      0x00\n      dup1\n      revert\n    tag_7:\n      pop\n      tag_8\n      tag_9\n      jump\t// in\n    tag_8:\n      mload(0x40)\n      tag_10\n      swap2\n      swap1\n      tag_11\n      jump\t// in\n    tag_10:\n      mload(0x40)\n      dup1\n      swap2\n      sub\n      swap1\n      return\n        /* \".deps/remix-tests/fundme/Transaction.sol\":332:602  function getMoney() public {... */\n    tag_4:\n      callvalue\n      dup1\n      iszero\n      tag_12\n      jumpi\n      0x00\n      dup1\n      revert\n    tag_12:\n      pop\n      tag_13\n      tag_14\n      jump\t// in\n    tag_13:\n      stop\n        /* \".deps/remix-tests/fundme/Transaction.sol\":164:312  function saveMoney() public payable {... */\n    tag_6:\n        /* \".deps/remix-tests/fundme/Transaction.sol\":230:231  0 */\n      0x00\n        /* \".deps/remix-tests/fundme/Transaction.sol\":218:227  msg.value */\n      callvalue\n        /* \".deps/remix-tests/fundme/Transaction.sol\":218:231  msg.value > 0 */\n      gt\n        /* \".deps/remix-tests/fundme/Transaction.sol\":210:260  require(msg.value > 0, \"Value must be than zero.\") */\n      tag_16\n      jumpi\n      mload(0x40)\n      0x08c379a000000000000000000000000000000000000000000000000000000000\n      dup2\n      mstore\n      0x04\n      add\n      tag_17\n      swap1\n      tag_18\n      jump\t// in\n    tag_17:\n      mload(0x40)\n      dup1\n      swap2\n      sub\n      swap1\n      revert\n    tag_16:\n        /* \".deps/remix-tests/fundme/Transaction.sol\":296:305  msg.value */\n      callvalue\n        /* \".deps/remix-tests/fundme/Transaction.sol\":271:281  accountMap */\n      0x00\n        /* \".deps/remix-tests/fundme/Transaction.sol\":271:293  accountMap[msg.sender] */\n      dup1\n        /* \".deps/remix-tests/fundme/Transaction.sol\":282:292  msg.sender */\n      caller\n        /* \".deps/remix-tests/fundme/Transaction.sol\":271:293  accountMap[msg.sender] */\n      0xffffffffffffffffffffffffffffffffffffffff\n      and\n      0xffffffffffffffffffffffffffffffffffffffff\n      and\n      dup2\n      mstore\n      0x20\n      add\n      swap1\n      dup2\n      mstore\n      0x20\n      add\n      0x00\n      keccak256\n        /* \".deps/remix-tests/fundme/Transaction.sol\":271:305  accountMap[msg.sender] = msg.value */\n      dup2\n      swap1\n      sstore\n      pop\n        /* \".deps/remix-tests/fundme/Transaction.sol\":164:312  function saveMoney() public payable {... */\n      jump\t// out\n        /* \".deps/remix-tests/fundme/Transaction.sol\":608:706  function queryMoney() public view returns (uint256) {... */\n    tag_9:\n        /* \".deps/remix-tests/fundme/Transaction.sol\":651:658  uint256 */\n      0x00\n        /* \".deps/remix-tests/fundme/Transaction.sol\":677:687  accountMap */\n      dup1\n        /* \".deps/remix-tests/fundme/Transaction.sol\":677:699  accountMap[msg.sender] */\n      0x00\n        /* \".deps/remix-tests/fundme/Transaction.sol\":688:698  msg.sender */\n      caller\n        /* \".deps/remix-tests/fundme/Transaction.sol\":677:699  accountMap[msg.sender] */\n      0xffffffffffffffffffffffffffffffffffffffff\n      and\n      0xffffffffffffffffffffffffffffffffffffffff\n      and\n      dup2\n      mstore\n      0x20\n      add\n      swap1\n      dup2\n      mstore\n      0x20\n      add\n      0x00\n      keccak256\n      sload\n        /* \".deps/remix-tests/fundme/Transaction.sol\":670:699  return accountMap[msg.sender] */\n      swap1\n      pop\n        /* \".deps/remix-tests/fundme/Transaction.sol\":608:706  function queryMoney() public view returns (uint256) {... */\n      swap1\n      jump\t// out\n        /* \".deps/remix-tests/fundme/Transaction.sol\":332:602  function getMoney() public {... */\n    tag_14:\n        /* \".deps/remix-tests/fundme/Transaction.sol\":402:417  uint256 balance */\n      0x00\n        /* \".deps/remix-tests/fundme/Transaction.sol\":420:430  accountMap */\n      dup1\n        /* \".deps/remix-tests/fundme/Transaction.sol\":420:442  accountMap[msg.sender] */\n      0x00\n        /* \".deps/remix-tests/fundme/Transaction.sol\":431:441  msg.sender */\n      caller\n        /* \".deps/remix-tests/fundme/Transaction.sol\":420:442  accountMap[msg.sender] */\n      0xffffffffffffffffffffffffffffffffffffffff\n      and\n      0xffffffffffffffffffffffffffffffffffffffff\n      and\n      dup2\n      mstore\n      0x20\n      add\n      swap1\n      dup2\n      mstore\n      0x20\n      add\n      0x00\n      keccak256\n      sload\n        /* \".deps/remix-tests/fundme/Transaction.sol\":402:442  uint256 balance = accountMap[msg.sender] */\n      swap1\n      pop\n        /* \".deps/remix-tests/fundme/Transaction.sol\":470:471  0 */\n      0x00\n        /* \".deps/remix-tests/fundme/Transaction.sol\":460:467  balance */\n      dup2\n        /* \".deps/remix-tests/fundme/Transaction.sol\":460:471  balance > 0 */\n      gt\n        /* \".deps/remix-tests/fundme/Transaction.sol\":452:512  require(balance > 0, \"The account balance is insufficient.\") */\n      tag_21\n      jumpi\n      mload(0x40)\n      0x08c379a000000000000000000000000000000000000000000000000000000000\n      dup2\n      mstore\n      0x04\n      add\n      tag_22\n      swap1\n      tag_23\n      jump\t// in\n    tag_22:\n      mload(0x40)\n      dup1\n      swap2\n      sub\n      swap1\n      revert\n    tag_21:\n        /* \".deps/remix-tests/fundme/Transaction.sol\":566:576  msg.sender */\n      caller\n        /* \".deps/remix-tests/fundme/Transaction.sol\":558:586  payable(msg.sender).transfer */\n      0xffffffffffffffffffffffffffffffffffffffff\n      and\n        /* \".deps/remix-tests/fundme/Transaction.sol\":558:595  payable(msg.sender).transfer(balance) */\n      0x08fc\n        /* \".deps/remix-tests/fundme/Transaction.sol\":587:594  balance */\n      dup3\n        /* \".deps/remix-tests/fundme/Transaction.sol\":558:595  payable(msg.sender).transfer(balance) */\n      swap1\n      dup2\n      iszero\n      mul\n      swap1\n      mload(0x40)\n      0x00\n      mload(0x40)\n      dup1\n      dup4\n      sub\n      dup2\n      dup6\n      dup9\n      dup9\n      call\n      swap4\n      pop\n      pop\n      pop\n      pop\n      iszero\n      dup1\n      iszero\n      tag_25\n      jumpi\n      returndatasize\n      0x00\n      dup1\n      returndatacopy\n      revert(0x00, returndatasize)\n    tag_25:\n      pop\n        /* \".deps/remix-tests/fundme/Transaction.sol\":359:602  {... */\n      pop\n        /* \".deps/remix-tests/fundme/Transaction.sol\":332:602  function getMoney() public {... */\n      jump\t// out\n        /* \"#utility.yul\":7:84   */\n    tag_26:\n        /* \"#utility.yul\":44:51   */\n      0x00\n        /* \"#utility.yul\":73:78   */\n      dup2\n        /* \"#utility.yul\":62:78   */\n      swap1\n      pop\n        /* \"#utility.yul\":7:84   */\n      swap2\n      swap1\n      pop\n      jump\t// out\n        /* \"#utility.yul\":90:208   */\n    tag_27:\n        /* \"#utility.yul\":177:201   */\n      tag_36\n        /* \"#utility.yul\":195:200   */\n      dup2\n        /* \"#utility.yul\":177:201   */\n      tag_26\n      jump\t// in\n    tag_36:\n        /* \"#utility.yul\":172:175   */\n      dup3\n        /* \"#utility.yul\":165:202   */\n      mstore\n        /* \"#utility.yul\":90:208   */\n      pop\n      pop\n      jump\t// out\n        /* \"#utility.yul\":214:436   */\n    tag_11:\n        /* \"#utility.yul\":307:311   */\n      0x00\n        /* \"#utility.yul\":345:347   */\n      0x20\n        /* \"#utility.yul\":334:343   */\n      dup3\n        /* \"#utility.yul\":330:348   */\n      add\n        /* \"#utility.yul\":322:348   */\n      swap1\n      pop\n        /* \"#utility.yul\":358:429   */\n      tag_38\n        /* \"#utility.yul\":426:427   */\n      0x00\n        /* \"#utility.yul\":415:424   */\n      dup4\n        /* \"#utility.yul\":411:428   */\n      add\n        /* \"#utility.yul\":402:408   */\n      dup5\n        /* \"#utility.yul\":358:429   */\n      tag_27\n      jump\t// in\n    tag_38:\n        /* \"#utility.yul\":214:436   */\n      swap3\n      swap2\n      pop\n      pop\n      jump\t// out\n        /* \"#utility.yul\":442:611   */\n    tag_28:\n        /* \"#utility.yul\":526:537   */\n      0x00\n        /* \"#utility.yul\":560:566   */\n      dup3\n        /* \"#utility.yul\":555:558   */\n      dup3\n        /* \"#utility.yul\":548:567   */\n      mstore\n        /* \"#utility.yul\":600:604   */\n      0x20\n        /* \"#utility.yul\":595:598   */\n      dup3\n        /* \"#utility.yul\":591:605   */\n      add\n        /* \"#utility.yul\":576:605   */\n      swap1\n      pop\n        /* \"#utility.yul\":442:611   */\n      swap3\n      swap2\n      pop\n      pop\n      jump\t// out\n        /* \"#utility.yul\":617:791   */\n    tag_29:\n        /* \"#utility.yul\":757:783   */\n      0x56616c7565206d757374206265207468616e207a65726f2e0000000000000000\n        /* \"#utility.yul\":753:754   */\n      0x00\n        /* \"#utility.yul\":745:751   */\n      dup3\n        /* \"#utility.yul\":741:755   */\n      add\n        /* \"#utility.yul\":734:784   */\n      mstore\n        /* \"#utility.yul\":617:791   */\n      pop\n      jump\t// out\n        /* \"#utility.yul\":797:1163   */\n    tag_30:\n        /* \"#utility.yul\":939:942   */\n      0x00\n        /* \"#utility.yul\":960:1027   */\n      tag_42\n        /* \"#utility.yul\":1024:1026   */\n      0x18\n        /* \"#utility.yul\":1019:1022   */\n      dup4\n        /* \"#utility.yul\":960:1027   */\n      tag_28\n      jump\t// in\n    tag_42:\n        /* \"#utility.yul\":953:1027   */\n      swap2\n      pop\n        /* \"#utility.yul\":1036:1129   */\n      tag_43\n        /* \"#utility.yul\":1125:1128   */\n      dup3\n        /* \"#utility.yul\":1036:1129   */\n      tag_29\n      jump\t// in\n    tag_43:\n        /* \"#utility.yul\":1154:1156   */\n      0x20\n        /* \"#utility.yul\":1149:1152   */\n      dup3\n        /* \"#utility.yul\":1145:1157   */\n      add\n        /* \"#utility.yul\":1138:1157   */\n      swap1\n      pop\n        /* \"#utility.yul\":797:1163   */\n      swap2\n      swap1\n      pop\n      jump\t// out\n        /* \"#utility.yul\":1169:1588   */\n    tag_18:\n        /* \"#utility.yul\":1335:1339   */\n      0x00\n        /* \"#utility.yul\":1373:1375   */\n      0x20\n        /* \"#utility.yul\":1362:1371   */\n      dup3\n        /* \"#utility.yul\":1358:1376   */\n      add\n        /* \"#utility.yul\":1350:1376   */\n      swap1\n      pop\n        /* \"#utility.yul\":1422:1431   */\n      dup2\n        /* \"#utility.yul\":1416:1420   */\n      dup2\n        /* \"#utility.yul\":1412:1432   */\n      sub\n        /* \"#utility.yul\":1408:1409   */\n      0x00\n        /* \"#utility.yul\":1397:1406   */\n      dup4\n        /* \"#utility.yul\":1393:1410   */\n      add\n        /* \"#utility.yul\":1386:1433   */\n      mstore\n        /* \"#utility.yul\":1450:1581   */\n      tag_45\n        /* \"#utility.yul\":1576:1580   */\n      dup2\n        /* \"#utility.yul\":1450:1581   */\n      tag_30\n      jump\t// in\n    tag_45:\n        /* \"#utility.yul\":1442:1581   */\n      swap1\n      pop\n        /* \"#utility.yul\":1169:1588   */\n      swap2\n      swap1\n      pop\n      jump\t// out\n        /* \"#utility.yul\":1594:1817   */\n    tag_31:\n        /* \"#utility.yul\":1734:1768   */\n      0x546865206163636f756e742062616c616e636520697320696e73756666696369\n        /* \"#utility.yul\":1730:1731   */\n      0x00\n        /* \"#utility.yul\":1722:1728   */\n      dup3\n        /* \"#utility.yul\":1718:1732   */\n      add\n        /* \"#utility.yul\":1711:1769   */\n      mstore\n        /* \"#utility.yul\":1803:1809   */\n      0x656e742e00000000000000000000000000000000000000000000000000000000\n        /* \"#utility.yul\":1798:1800   */\n      0x20\n        /* \"#utility.yul\":1790:1796   */\n      dup3\n        /* \"#utility.yul\":1786:1801   */\n      add\n        /* \"#utility.yul\":1779:1810   */\n      mstore\n        /* \"#utility.yul\":1594:1817   */\n      pop\n      jump\t// out\n        /* \"#utility.yul\":1823:2189   */\n    tag_32:\n        /* \"#utility.yul\":1965:1968   */\n      0x00\n        /* \"#utility.yul\":1986:2053   */\n      tag_48\n        /* \"#utility.yul\":2050:2052   */\n      0x24\n        /* \"#utility.yul\":2045:2048   */\n      dup4\n        /* \"#utility.yul\":1986:2053   */\n      tag_28\n      jump\t// in\n    tag_48:\n        /* \"#utility.yul\":1979:2053   */\n      swap2\n      pop\n        /* \"#utility.yul\":2062:2155   */\n      tag_49\n        /* \"#utility.yul\":2151:2154   */\n      dup3\n        /* \"#utility.yul\":2062:2155   */\n      tag_31\n      jump\t// in\n    tag_49:\n        /* \"#utility.yul\":2180:2182   */\n      0x40\n        /* \"#utility.yul\":2175:2178   */\n      dup3\n        /* \"#utility.yul\":2171:2183   */\n      add\n        /* \"#utility.yul\":2164:2183   */\n      swap1\n      pop\n        /* \"#utility.yul\":1823:2189   */\n      swap2\n      swap1\n      pop\n      jump\t// out\n        /* \"#utility.yul\":2195:2614   */\n    tag_23:\n        /* \"#utility.yul\":2361:2365   */\n      0x00\n        /* \"#utility.yul\":2399:2401   */\n      0x20\n        /* \"#utility.yul\":2388:2397   */\n      dup3\n        /* \"#utility.yul\":2384:2402   */\n      add\n        /* \"#utility.yul\":2376:2402   */\n      swap1\n      pop\n        /* \"#utility.yul\":2448:2457   */\n      dup2\n        /* \"#utility.yul\":2442:2446   */\n      dup2\n        /* \"#utility.yul\":2438:2458   */\n      sub\n        /* \"#utility.yul\":2434:2435   */\n      0x00\n        /* \"#utility.yul\":2423:2432   */\n      dup4\n        /* \"#utility.yul\":2419:2436   */\n      add\n        /* \"#utility.yul\":2412:2459   */\n      mstore\n        /* \"#utility.yul\":2476:2607   */\n      tag_51\n        /* \"#utility.yul\":2602:2606   */\n      dup2\n        /* \"#utility.yul\":2476:2607   */\n      tag_32\n      jump\t// in\n    tag_51:\n        /* \"#utility.yul\":2468:2607   */\n      swap1\n      pop\n        /* \"#utility.yul\":2195:2614   */\n      swap2\n      swap1\n      pop\n      jump\t// out\n\n    auxdata: 0xa2646970667358221220245c98e90315af072a504289b85c8bce738042a1158b1d49559514b3158dd38864736f6c634300081a0033\n}\n",
				"bytecode": {
					"linkReferences": {},
					"object": "6080604052348015600e575f80fd5b5061037f8061001c5f395ff3fe608060405260043610610033575f3560e01c80632466de241461003757806356598e641461004157806398e1b4101461006b575b5f80fd5b61003f610081565b005b34801561004c575f80fd5b50610055610106565b604051610062919061022a565b60405180910390f35b348015610076575f80fd5b5061007f610149565b005b5f34116100c3576040517f08c379a00000000000000000000000000000000000000000000000000000000081526004016100ba9061029d565b60405180910390fd5b345f803373ffffffffffffffffffffffffffffffffffffffff1673ffffffffffffffffffffffffffffffffffffffff1681526020019081526020015f2081905550565b5f805f3373ffffffffffffffffffffffffffffffffffffffff1673ffffffffffffffffffffffffffffffffffffffff1681526020019081526020015f2054905090565b5f805f3373ffffffffffffffffffffffffffffffffffffffff1673ffffffffffffffffffffffffffffffffffffffff1681526020019081526020015f205490505f81116101cb576040517f08c379a00000000000000000000000000000000000000000000000000000000081526004016101c29061032b565b60405180910390fd5b3373ffffffffffffffffffffffffffffffffffffffff166108fc8290811502906040515f60405180830381858888f1935050505015801561020e573d5f803e3d5ffd5b5050565b5f819050919050565b61022481610212565b82525050565b5f60208201905061023d5f83018461021b565b92915050565b5f82825260208201905092915050565b7f56616c7565206d757374206265207468616e207a65726f2e00000000000000005f82015250565b5f610287601883610243565b915061029282610253565b602082019050919050565b5f6020820190508181035f8301526102b48161027b565b9050919050565b7f546865206163636f756e742062616c616e636520697320696e737566666963695f8201527f656e742e00000000000000000000000000000000000000000000000000000000602082015250565b5f610315602483610243565b9150610320826102bb565b604082019050919050565b5f6020820190508181035f83015261034281610309565b905091905056fea2646970667358221220245c98e90315af072a504289b85c8bce738042a1158b1d49559514b3158dd38864736f6c634300081a0033",
					"opcodes": "PUSH1 0x80 PUSH1 0x40 MSTORE CALLVALUE DUP1 ISZERO PUSH1 0xE JUMPI PUSH0 DUP1 REVERT JUMPDEST POP PUSH2 0x37F DUP1 PUSH2 0x1C PUSH0 CODECOPY PUSH0 RETURN INVALID PUSH1 0x80 PUSH1 0x40 MSTORE PUSH1 0x4 CALLDATASIZE LT PUSH2 0x33 JUMPI PUSH0 CALLDATALOAD PUSH1 0xE0 SHR DUP1 PUSH4 0x2466DE24 EQ PUSH2 0x37 JUMPI DUP1 PUSH4 0x56598E64 EQ PUSH2 0x41 JUMPI DUP1 PUSH4 0x98E1B410 EQ PUSH2 0x6B JUMPI JUMPDEST PUSH0 DUP1 REVERT JUMPDEST PUSH2 0x3F PUSH2 0x81 JUMP JUMPDEST STOP JUMPDEST CALLVALUE DUP1 ISZERO PUSH2 0x4C JUMPI PUSH0 DUP1 REVERT JUMPDEST POP PUSH2 0x55 PUSH2 0x106 JUMP JUMPDEST PUSH1 0x40 MLOAD PUSH2 0x62 SWAP2 SWAP1 PUSH2 0x22A JUMP JUMPDEST PUSH1 0x40 MLOAD DUP1 SWAP2 SUB SWAP1 RETURN JUMPDEST CALLVALUE DUP1 ISZERO PUSH2 0x76 JUMPI PUSH0 DUP1 REVERT JUMPDEST POP PUSH2 0x7F PUSH2 0x149 JUMP JUMPDEST STOP JUMPDEST PUSH0 CALLVALUE GT PUSH2 0xC3 JUMPI PUSH1 0x40 MLOAD PUSH32 0x8C379A000000000000000000000000000000000000000000000000000000000 DUP2 MSTORE PUSH1 0x4 ADD PUSH2 0xBA SWAP1 PUSH2 0x29D JUMP JUMPDEST PUSH1 0x40 MLOAD DUP1 SWAP2 SUB SWAP1 REVERT JUMPDEST CALLVALUE PUSH0 DUP1 CALLER PUSH20 0xFFFFFFFFFFFFFFFFFFFFFFFFFFFFFFFFFFFFFFFF AND PUSH20 0xFFFFFFFFFFFFFFFFFFFFFFFFFFFFFFFFFFFFFFFF AND DUP2 MSTORE PUSH1 0x20 ADD SWAP1 DUP2 MSTORE PUSH1 0x20 ADD PUSH0 KECCAK256 DUP2 SWAP1 SSTORE POP JUMP JUMPDEST PUSH0 DUP1 PUSH0 CALLER PUSH20 0xFFFFFFFFFFFFFFFFFFFFFFFFFFFFFFFFFFFFFFFF AND PUSH20 0xFFFFFFFFFFFFFFFFFFFFFFFFFFFFFFFFFFFFFFFF AND DUP2 MSTORE PUSH1 0x20 ADD SWAP1 DUP2 MSTORE PUSH1 0x20 ADD PUSH0 KECCAK256 SLOAD SWAP1 POP SWAP1 JUMP JUMPDEST PUSH0 DUP1 PUSH0 CALLER PUSH20 0xFFFFFFFFFFFFFFFFFFFFFFFFFFFFFFFFFFFFFFFF AND PUSH20 0xFFFFFFFFFFFFFFFFFFFFFFFFFFFFFFFFFFFFFFFF AND DUP2 MSTORE PUSH1 0x20 ADD SWAP1 DUP2 MSTORE PUSH1 0x20 ADD PUSH0 KECCAK256 SLOAD SWAP1 POP PUSH0 DUP2 GT PUSH2 0x1CB JUMPI PUSH1 0x40 MLOAD PUSH32 0x8C379A000000000000000000000000000000000000000000000000000000000 DUP2 MSTORE PUSH1 0x4 ADD PUSH2 0x1C2 SWAP1 PUSH2 0x32B JUMP JUMPDEST PUSH1 0x40 MLOAD DUP1 SWAP2 SUB SWAP1 REVERT JUMPDEST CALLER PUSH20 0xFFFFFFFFFFFFFFFFFFFFFFFFFFFFFFFFFFFFFFFF AND PUSH2 0x8FC DUP3 SWAP1 DUP2 ISZERO MUL SWAP1 PUSH1 0x40 MLOAD PUSH0 PUSH1 0x40 MLOAD DUP1 DUP4 SUB DUP2 DUP6 DUP9 DUP9 CALL SWAP4 POP POP POP POP ISZERO DUP1 ISZERO PUSH2 0x20E JUMPI RETURNDATASIZE PUSH0 DUP1 RETURNDATACOPY RETURNDATASIZE PUSH0 REVERT JUMPDEST POP POP JUMP JUMPDEST PUSH0 DUP2 SWAP1 POP SWAP2 SWAP1 POP JUMP JUMPDEST PUSH2 0x224 DUP2 PUSH2 0x212 JUMP JUMPDEST DUP3 MSTORE POP POP JUMP JUMPDEST PUSH0 PUSH1 0x20 DUP3 ADD SWAP1 POP PUSH2 0x23D PUSH0 DUP4 ADD DUP5 PUSH2 0x21B JUMP JUMPDEST SWAP3 SWAP2 POP POP JUMP JUMPDEST PUSH0 DUP3 DUP3 MSTORE PUSH1 0x20 DUP3 ADD SWAP1 POP SWAP3 SWAP2 POP POP JUMP JUMPDEST PUSH32 0x56616C7565206D757374206265207468616E207A65726F2E0000000000000000 PUSH0 DUP3 ADD MSTORE POP JUMP JUMPDEST PUSH0 PUSH2 0x287 PUSH1 0x18 DUP4 PUSH2 0x243 JUMP JUMPDEST SWAP2 POP PUSH2 0x292 DUP3 PUSH2 0x253 JUMP JUMPDEST PUSH1 0x20 DUP3 ADD SWAP1 POP SWAP2 SWAP1 POP JUMP JUMPDEST PUSH0 PUSH1 0x20 DUP3 ADD SWAP1 POP DUP2 DUP2 SUB PUSH0 DUP4 ADD MSTORE PUSH2 0x2B4 DUP2 PUSH2 0x27B JUMP JUMPDEST SWAP1 POP SWAP2 SWAP1 POP JUMP JUMPDEST PUSH32 0x546865206163636F756E742062616C616E636520697320696E73756666696369 PUSH0 DUP3 ADD MSTORE PUSH32 0x656E742E00000000000000000000000000000000000000000000000000000000 PUSH1 0x20 DUP3 ADD MSTORE POP JUMP JUMPDEST PUSH0 PUSH2 0x315 PUSH1 0x24 DUP4 PUSH2 0x243 JUMP JUMPDEST SWAP2 POP PUSH2 0x320 DUP3 PUSH2 0x2BB JUMP JUMPDEST PUSH1 0x40 DUP3 ADD SWAP1 POP SWAP2 SWAP1 POP JUMP JUMPDEST PUSH0 PUSH1 0x20 DUP3 ADD SWAP1 POP DUP2 DUP2 SUB PUSH0 DUP4 ADD MSTORE PUSH2 0x342 DUP2 PUSH2 0x309 JUMP JUMPDEST SWAP1 POP SWAP2 SWAP1 POP JUMP INVALID LOG2 PUSH5 0x6970667358 0x22 SLT KECCAK256 0x24 TLOAD SWAP9 0xE9 SUB ISZERO 0xAF SMOD 0x2A POP TIMESTAMP DUP10 0xB8 TLOAD DUP12 0xCE PUSH20 0x8042A1158B1D49559514B3158DD38864736F6C63 NUMBER STOP ADDMOD BYTE STOP CALLER "
				},
				"gasEstimates": {
					"creation": {
						"codeDepositCost": "179000",
						"executionCost": "218",
						"totalCost": "179218"
					},
					"external": {
						"getMoney()": "infinite",
						"queryMoney()": "2519",
						"saveMoney()": "22318"
					}
				},
				"methodIdentifiers": {
					"getMoney()": "98e1b410",
					"queryMoney()": "56598e64",
					"saveMoney()": "2466de24"
				}
			},
			"storageLayout": {
				"storage": [
					{
						"astId": 5,
						"contract": ".deps/remix-tests/fundme/Transaction.sol:Transaction",
						"label": "accountMap",
						"offset": 0,
						"slot": "0",
						"type": "t_mapping(t_address,t_uint256)"
					}
				],
				"types": {
					"t_address": {
						"encoding": "inplace",
						"label": "address",
						"numberOfBytes": "20"
					},
					"t_mapping(t_address,t_uint256)": {
						"encoding": "mapping",
						"key": "t_address",
						"label": "mapping(address => uint256)",
						"numberOfBytes": "32",
						"value": "t_uint256"
					},
					"t_uint256": {
						"encoding": "inplace",
						"label": "uint256",
						"numberOfBytes": "32"
					}
				}
			},
			"userdoc": {
				"kind": "user",
				"methods": {},
				"version": 1
			}
		}
	}
}