{
	".deps/remix-tests/102/demo02.sol": {
		"Library": {
			"abi": [
				{
					"inputs": [
						{
							"internalType": "uint256",
							"name": "value",
							"type": "uint256"
						},
						{
							"internalType": "uint256",
							"name": "length",
							"type": "uint256"
						}
					],
					"name": "StringsInsufficientHexLength",
					"type": "error"
				},
				{
					"inputs": [
						{
							"internalType": "uint256",
							"name": "_number",
							"type": "uint256"
						}
					],
					"name": "toHexString1",
					"outputs": [
						{
							"internalType": "string",
							"name": "",
							"type": "string"
						}
					],
					"stateMutability": "pure",
					"type": "function"
				},
				{
					"inputs": [
						{
							"internalType": "uint256",
							"name": "_number",
							"type": "uint256"
						}
					],
					"name": "toHexString2",
					"outputs": [
						{
							"internalType": "string",
							"name": "",
							"type": "string"
						}
					],
					"stateMutability": "pure",
					"type": "function"
				}
			],
			"devdoc": {
				"errors": {
					"StringsInsufficientHexLength(uint256,uint256)": [
						{
							"details": "The `value` string doesn't fit in the specified `length`."
						}
					]
				},
				"kind": "dev",
				"methods": {},
				"version": 1
			},
			"evm": {
				"assembly": "    /* \".deps/remix-tests/102/demo02.sol\":572:1302  contract Library {... */\n  mstore(0x40, 0x80)\n  callvalue\n  dup1\n  iszero\n  tag_1\n  jumpi\n  0x00\n  dup1\n  revert\ntag_1:\n  pop\n  dataSize(sub_0)\n  dup1\n  dataOffset(sub_0)\n  0x00\n  codecopy\n  0x00\n  return\nstop\n\nsub_0: assembly {\n        /* \".deps/remix-tests/102/demo02.sol\":572:1302  contract Library {... */\n      mstore(0x40, 0x80)\n      callvalue\n      dup1\n      iszero\n      tag_1\n      jumpi\n      0x00\n      dup1\n      revert\n    tag_1:\n      pop\n      jumpi(tag_2, lt(calldatasize, 0x04))\n      shr(0xe0, calldataload(0x00))\n      dup1\n      0x68953f1f\n      eq\n      tag_3\n      jumpi\n      dup1\n      0xae317956\n      eq\n      tag_4\n      jumpi\n    tag_2:\n      0x00\n      dup1\n      revert\n        /* \".deps/remix-tests/102/demo02.sol\":902:1098  function toHexString1(uint256 _number) public pure returns (string memory) {... */\n    tag_3:\n      tag_5\n      0x04\n      dup1\n      calldatasize\n      sub\n      dup2\n      add\n      swap1\n      tag_6\n      swap2\n      swap1\n      tag_7\n      jump\t// in\n    tag_6:\n      tag_8\n      jump\t// in\n    tag_5:\n      mload(0x40)\n      tag_9\n      swap2\n      swap1\n      tag_10\n      jump\t// in\n    tag_9:\n      mload(0x40)\n      dup1\n      swap2\n      sub\n      swap1\n      return\n        /* \".deps/remix-tests/102/demo02.sol\":1173:1300  function toHexString2(uint256 _number) public pure returns (string memory) {... */\n    tag_4:\n      tag_11\n      0x04\n      dup1\n      calldatasize\n      sub\n      dup2\n      add\n      swap1\n      tag_12\n      swap2\n      swap1\n      tag_7\n      jump\t// in\n    tag_12:\n      tag_13\n      jump\t// in\n    tag_11:\n      mload(0x40)\n      tag_14\n      swap2\n      swap1\n      tag_10\n      jump\t// in\n    tag_14:\n      mload(0x40)\n      dup1\n      swap2\n      sub\n      swap1\n      return\n        /* \".deps/remix-tests/102/demo02.sol\":902:1098  function toHexString1(uint256 _number) public pure returns (string memory) {... */\n    tag_8:\n        /* \".deps/remix-tests/102/demo02.sol\":962:975  string memory */\n      0x60\n        /* \".deps/remix-tests/102/demo02.sol\":1070:1091  _number.toHexString() */\n      tag_16\n        /* \".deps/remix-tests/102/demo02.sol\":1070:1077  _number */\n      dup3\n        /* \".deps/remix-tests/102/demo02.sol\":1070:1089  _number.toHexString */\n      tag_17\n        /* \".deps/remix-tests/102/demo02.sol\":1070:1091  _number.toHexString() */\n      jump\t// in\n    tag_16:\n        /* \".deps/remix-tests/102/demo02.sol\":1063:1091  return _number.toHexString() */\n      swap1\n      pop\n        /* \".deps/remix-tests/102/demo02.sol\":902:1098  function toHexString1(uint256 _number) public pure returns (string memory) {... */\n      swap2\n      swap1\n      pop\n      jump\t// out\n        /* \".deps/remix-tests/102/demo02.sol\":1173:1300  function toHexString2(uint256 _number) public pure returns (string memory) {... */\n    tag_13:\n        /* \".deps/remix-tests/102/demo02.sol\":1233:1246  string memory */\n      0x60\n        /* \".deps/remix-tests/102/demo02.sol\":1265:1293  Strings.toHexString(_number) */\n      tag_19\n        /* \".deps/remix-tests/102/demo02.sol\":1285:1292  _number */\n      dup3\n        /* \".deps/remix-tests/102/demo02.sol\":1265:1284  Strings.toHexString */\n      tag_17\n        /* \".deps/remix-tests/102/demo02.sol\":1265:1293  Strings.toHexString(_number) */\n      jump\t// in\n    tag_19:\n        /* \".deps/remix-tests/102/demo02.sol\":1258:1293  return Strings.toHexString(_number) */\n      swap1\n      pop\n        /* \".deps/remix-tests/102/demo02.sol\":1173:1300  function toHexString2(uint256 _number) public pure returns (string memory) {... */\n      swap2\n      swap1\n      pop\n      jump\t// out\n        /* \"@openzeppelin/contracts/utils/Strings.sol\":1992:2166  function toHexString(uint256 value) internal pure returns (string memory) {... */\n    tag_17:\n        /* \"@openzeppelin/contracts/utils/Strings.sol\":2051:2064  string memory */\n      0x60\n        /* \"@openzeppelin/contracts/utils/Strings.sol\":2107:2149  toHexString(value, Math.log256(value) + 1) */\n      tag_21\n        /* \"@openzeppelin/contracts/utils/Strings.sol\":2119:2124  value */\n      dup3\n        /* \"@openzeppelin/contracts/utils/Strings.sol\":2147:2148  1 */\n      0x01\n        /* \"@openzeppelin/contracts/utils/Strings.sol\":2126:2144  Math.log256(value) */\n      tag_22\n        /* \"@openzeppelin/contracts/utils/Strings.sol\":2138:2143  value */\n      dup6\n        /* \"@openzeppelin/contracts/utils/Strings.sol\":2126:2137  Math.log256 */\n      tag_23\n        /* \"@openzeppelin/contracts/utils/Strings.sol\":2126:2144  Math.log256(value) */\n      jump\t// in\n    tag_22:\n        /* \"@openzeppelin/contracts/utils/Strings.sol\":2126:2148  Math.log256(value) + 1 */\n      add\n        /* \"@openzeppelin/contracts/utils/Strings.sol\":2107:2118  toHexString */\n      tag_24\n        /* \"@openzeppelin/contracts/utils/Strings.sol\":2107:2149  toHexString(value, Math.log256(value) + 1) */\n      jump\t// in\n    tag_21:\n        /* \"@openzeppelin/contracts/utils/Strings.sol\":2100:2149  return toHexString(value, Math.log256(value) + 1) */\n      swap1\n      pop\n        /* \"@openzeppelin/contracts/utils/Strings.sol\":1992:2166  function toHexString(uint256 value) internal pure returns (string memory) {... */\n      swap2\n      swap1\n      pop\n      jump\t// out\n        /* \"@openzeppelin/contracts/utils/math/Math.sol\":26901:27638  function log256(uint256 value) internal pure returns (uint256) {... */\n    tag_23:\n        /* \"@openzeppelin/contracts/utils/math/Math.sol\":26955:26962  uint256 */\n      0x00\n        /* \"@openzeppelin/contracts/utils/math/Math.sol\":26974:26988  uint256 result */\n      dup1\n        /* \"@openzeppelin/contracts/utils/math/Math.sol\":26991:26992  0 */\n      0x00\n        /* \"@openzeppelin/contracts/utils/math/Math.sol\":26974:26992  uint256 result = 0 */\n      swap1\n      pop\n        /* \"@openzeppelin/contracts/utils/math/Math.sol\":27002:27014  uint256 isGt */\n      0x00\n        /* \"@openzeppelin/contracts/utils/math/Math.sol\":27055:27094  SafeCast.toUint(value > (1 << 128) - 1) */\n      tag_26\n        /* \"@openzeppelin/contracts/utils/math/Math.sol\":27079:27093  (1 << 128) - 1 */\n      0xffffffffffffffffffffffffffffffff\n        /* \"@openzeppelin/contracts/utils/math/Math.sol\":27071:27076  value */\n      dup6\n        /* \"@openzeppelin/contracts/utils/math/Math.sol\":27071:27093  value > (1 << 128) - 1 */\n      gt\n        /* \"@openzeppelin/contracts/utils/math/Math.sol\":27055:27070  SafeCast.toUint */\n      tag_27\n        /* \"@openzeppelin/contracts/utils/math/Math.sol\":27055:27094  SafeCast.toUint(value > (1 << 128) - 1) */\n      jump\t// in\n    tag_26:\n        /* \"@openzeppelin/contracts/utils/math/Math.sol\":27048:27094  isGt = SafeCast.toUint(value > (1 << 128) - 1) */\n      swap1\n      pop\n        /* \"@openzeppelin/contracts/utils/math/Math.sol\":27125:27128  128 */\n      0x80\n        /* \"@openzeppelin/contracts/utils/math/Math.sol\":27118:27122  isGt */\n      dup2\n        /* \"@openzeppelin/contracts/utils/math/Math.sol\":27118:27128  isGt * 128 */\n      mul\n        /* \"@openzeppelin/contracts/utils/math/Math.sol\":27108:27128  value >>= isGt * 128 */\n      dup5\n      swap1\n      shr\n      swap4\n      pop\n        /* \"@openzeppelin/contracts/utils/math/Math.sol\":27159:27161  16 */\n      0x10\n        /* \"@openzeppelin/contracts/utils/math/Math.sol\":27152:27156  isGt */\n      dup2\n        /* \"@openzeppelin/contracts/utils/math/Math.sol\":27152:27161  isGt * 16 */\n      mul\n        /* \"@openzeppelin/contracts/utils/math/Math.sol\":27142:27161  result += isGt * 16 */\n      dup3\n      add\n      swap2\n      pop\n        /* \"@openzeppelin/contracts/utils/math/Math.sol\":27183:27221  SafeCast.toUint(value > (1 << 64) - 1) */\n      tag_28\n        /* \"@openzeppelin/contracts/utils/math/Math.sol\":27207:27220  (1 << 64) - 1 */\n      0xffffffffffffffff\n        /* \"@openzeppelin/contracts/utils/math/Math.sol\":27199:27204  value */\n      dup6\n        /* \"@openzeppelin/contracts/utils/math/Math.sol\":27199:27220  value > (1 << 64) - 1 */\n      gt\n        /* \"@openzeppelin/contracts/utils/math/Math.sol\":27183:27198  SafeCast.toUint */\n      tag_27\n        /* \"@openzeppelin/contracts/utils/math/Math.sol\":27183:27221  SafeCast.toUint(value > (1 << 64) - 1) */\n      jump\t// in\n    tag_28:\n        /* \"@openzeppelin/contracts/utils/math/Math.sol\":27176:27221  isGt = SafeCast.toUint(value > (1 << 64) - 1) */\n      swap1\n      pop\n        /* \"@openzeppelin/contracts/utils/math/Math.sol\":27252:27254  64 */\n      0x40\n        /* \"@openzeppelin/contracts/utils/math/Math.sol\":27245:27249  isGt */\n      dup2\n        /* \"@openzeppelin/contracts/utils/math/Math.sol\":27245:27254  isGt * 64 */\n      mul\n        /* \"@openzeppelin/contracts/utils/math/Math.sol\":27235:27254  value >>= isGt * 64 */\n      dup5\n      swap1\n      shr\n      swap4\n      pop\n        /* \"@openzeppelin/contracts/utils/math/Math.sol\":27285:27286  8 */\n      0x08\n        /* \"@openzeppelin/contracts/utils/math/Math.sol\":27278:27282  isGt */\n      dup2\n        /* \"@openzeppelin/contracts/utils/math/Math.sol\":27278:27286  isGt * 8 */\n      mul\n        /* \"@openzeppelin/contracts/utils/math/Math.sol\":27268:27286  result += isGt * 8 */\n      dup3\n      add\n      swap2\n      pop\n        /* \"@openzeppelin/contracts/utils/math/Math.sol\":27308:27346  SafeCast.toUint(value > (1 << 32) - 1) */\n      tag_29\n        /* \"@openzeppelin/contracts/utils/math/Math.sol\":27332:27345  (1 << 32) - 1 */\n      0xffffffff\n        /* \"@openzeppelin/contracts/utils/math/Math.sol\":27324:27329  value */\n      dup6\n        /* \"@openzeppelin/contracts/utils/math/Math.sol\":27324:27345  value > (1 << 32) - 1 */\n      gt\n        /* \"@openzeppelin/contracts/utils/math/Math.sol\":27308:27323  SafeCast.toUint */\n      tag_27\n        /* \"@openzeppelin/contracts/utils/math/Math.sol\":27308:27346  SafeCast.toUint(value > (1 << 32) - 1) */\n      jump\t// in\n    tag_29:\n        /* \"@openzeppelin/contracts/utils/math/Math.sol\":27301:27346  isGt = SafeCast.toUint(value > (1 << 32) - 1) */\n      swap1\n      pop\n        /* \"@openzeppelin/contracts/utils/math/Math.sol\":27377:27379  32 */\n      0x20\n        /* \"@openzeppelin/contracts/utils/math/Math.sol\":27370:27374  isGt */\n      dup2\n        /* \"@openzeppelin/contracts/utils/math/Math.sol\":27370:27379  isGt * 32 */\n      mul\n        /* \"@openzeppelin/contracts/utils/math/Math.sol\":27360:27379  value >>= isGt * 32 */\n      dup5\n      swap1\n      shr\n      swap4\n      pop\n        /* \"@openzeppelin/contracts/utils/math/Math.sol\":27410:27411  4 */\n      0x04\n        /* \"@openzeppelin/contracts/utils/math/Math.sol\":27403:27407  isGt */\n      dup2\n        /* \"@openzeppelin/contracts/utils/math/Math.sol\":27403:27411  isGt * 4 */\n      mul\n        /* \"@openzeppelin/contracts/utils/math/Math.sol\":27393:27411  result += isGt * 4 */\n      dup3\n      add\n      swap2\n      pop\n        /* \"@openzeppelin/contracts/utils/math/Math.sol\":27433:27471  SafeCast.toUint(value > (1 << 16) - 1) */\n      tag_30\n        /* \"@openzeppelin/contracts/utils/math/Math.sol\":27457:27470  (1 << 16) - 1 */\n      0xffff\n        /* \"@openzeppelin/contracts/utils/math/Math.sol\":27449:27454  value */\n      dup6\n        /* \"@openzeppelin/contracts/utils/math/Math.sol\":27449:27470  value > (1 << 16) - 1 */\n      gt\n        /* \"@openzeppelin/contracts/utils/math/Math.sol\":27433:27448  SafeCast.toUint */\n      tag_27\n        /* \"@openzeppelin/contracts/utils/math/Math.sol\":27433:27471  SafeCast.toUint(value > (1 << 16) - 1) */\n      jump\t// in\n    tag_30:\n        /* \"@openzeppelin/contracts/utils/math/Math.sol\":27426:27471  isGt = SafeCast.toUint(value > (1 << 16) - 1) */\n      swap1\n      pop\n        /* \"@openzeppelin/contracts/utils/math/Math.sol\":27502:27504  16 */\n      0x10\n        /* \"@openzeppelin/contracts/utils/math/Math.sol\":27495:27499  isGt */\n      dup2\n        /* \"@openzeppelin/contracts/utils/math/Math.sol\":27495:27504  isGt * 16 */\n      mul\n        /* \"@openzeppelin/contracts/utils/math/Math.sol\":27485:27504  value >>= isGt * 16 */\n      dup5\n      swap1\n      shr\n      swap4\n      pop\n        /* \"@openzeppelin/contracts/utils/math/Math.sol\":27535:27536  2 */\n      0x02\n        /* \"@openzeppelin/contracts/utils/math/Math.sol\":27528:27532  isGt */\n      dup2\n        /* \"@openzeppelin/contracts/utils/math/Math.sol\":27528:27536  isGt * 2 */\n      mul\n        /* \"@openzeppelin/contracts/utils/math/Math.sol\":27518:27536  result += isGt * 2 */\n      dup3\n      add\n      swap2\n      pop\n        /* \"@openzeppelin/contracts/utils/math/Math.sol\":27561:27598  SafeCast.toUint(value > (1 << 8) - 1) */\n      tag_31\n        /* \"@openzeppelin/contracts/utils/math/Math.sol\":27585:27597  (1 << 8) - 1 */\n      0xff\n        /* \"@openzeppelin/contracts/utils/math/Math.sol\":27577:27582  value */\n      dup6\n        /* \"@openzeppelin/contracts/utils/math/Math.sol\":27577:27597  value > (1 << 8) - 1 */\n      gt\n        /* \"@openzeppelin/contracts/utils/math/Math.sol\":27561:27576  SafeCast.toUint */\n      tag_27\n        /* \"@openzeppelin/contracts/utils/math/Math.sol\":27561:27598  SafeCast.toUint(value > (1 << 8) - 1) */\n      jump\t// in\n    tag_31:\n        /* \"@openzeppelin/contracts/utils/math/Math.sol\":27551:27598  result += SafeCast.toUint(value > (1 << 8) - 1) */\n      dup3\n      add\n      swap2\n      pop\n        /* \"@openzeppelin/contracts/utils/math/Math.sol\":27625:27631  result */\n      dup2\n        /* \"@openzeppelin/contracts/utils/math/Math.sol\":27618:27631  return result */\n      swap3\n      pop\n      pop\n      pop\n        /* \"@openzeppelin/contracts/utils/math/Math.sol\":26901:27638  function log256(uint256 value) internal pure returns (uint256) {... */\n      swap2\n      swap1\n      pop\n      jump\t// out\n        /* \"@openzeppelin/contracts/utils/Strings.sol\":2289:2814  function toHexString(uint256 value, uint256 length) internal pure returns (string memory) {... */\n    tag_24:\n        /* \"@openzeppelin/contracts/utils/Strings.sol\":2364:2377  string memory */\n      0x60\n        /* \"@openzeppelin/contracts/utils/Strings.sol\":2389:2407  uint256 localValue */\n      0x00\n        /* \"@openzeppelin/contracts/utils/Strings.sol\":2410:2415  value */\n      dup4\n        /* \"@openzeppelin/contracts/utils/Strings.sol\":2389:2415  uint256 localValue = value */\n      swap1\n      pop\n        /* \"@openzeppelin/contracts/utils/Strings.sol\":2425:2444  bytes memory buffer */\n      0x00\n        /* \"@openzeppelin/contracts/utils/Strings.sol\":2470:2471  2 */\n      0x02\n        /* \"@openzeppelin/contracts/utils/Strings.sol\":2461:2467  length */\n      dup5\n        /* \"@openzeppelin/contracts/utils/Strings.sol\":2457:2458  2 */\n      0x02\n        /* \"@openzeppelin/contracts/utils/Strings.sol\":2457:2467  2 * length */\n      tag_33\n      swap2\n      swap1\n      tag_34\n      jump\t// in\n    tag_33:\n        /* \"@openzeppelin/contracts/utils/Strings.sol\":2457:2471  2 * length + 2 */\n      tag_35\n      swap2\n      swap1\n      tag_36\n      jump\t// in\n    tag_35:\n        /* \"@openzeppelin/contracts/utils/Strings.sol\":2447:2472  new bytes(2 * length + 2) */\n      0xffffffffffffffff\n      dup2\n      gt\n      iszero\n      tag_37\n      jumpi\n      tag_38\n      tag_39\n      jump\t// in\n    tag_38:\n    tag_37:\n      mload(0x40)\n      swap1\n      dup1\n      dup3\n      mstore\n      dup1\n      0x1f\n      add\n      not(0x1f)\n      and\n      0x20\n      add\n      dup3\n      add\n      0x40\n      mstore\n      dup1\n      iszero\n      tag_40\n      jumpi\n      dup2\n      0x20\n      add\n      0x01\n      dup3\n      mul\n      dup1\n      calldatasize\n      dup4\n      calldatacopy\n      dup1\n      dup3\n      add\n      swap2\n      pop\n      pop\n      swap1\n      pop\n    tag_40:\n      pop\n        /* \"@openzeppelin/contracts/utils/Strings.sol\":2425:2472  bytes memory buffer = new bytes(2 * length + 2) */\n      swap1\n      pop\n        /* \"@openzeppelin/contracts/utils/Strings.sol\":2482:2497  buffer[0] = \"0\" */\n      0x3000000000000000000000000000000000000000000000000000000000000000\n        /* \"@openzeppelin/contracts/utils/Strings.sol\":2482:2488  buffer */\n      dup2\n        /* \"@openzeppelin/contracts/utils/Strings.sol\":2489:2490  0 */\n      0x00\n        /* \"@openzeppelin/contracts/utils/Strings.sol\":2482:2491  buffer[0] */\n      dup2\n      mload\n      dup2\n      lt\n      tag_41\n      jumpi\n      tag_42\n      tag_43\n      jump\t// in\n    tag_42:\n    tag_41:\n      0x20\n      add\n      add\n        /* \"@openzeppelin/contracts/utils/Strings.sol\":2482:2497  buffer[0] = \"0\" */\n      swap1\n      not(0xffffffffffffffffffffffffffffffffffffffffffffffffffffffffffffff)\n      and\n      swap1\n      dup2\n      0x00\n      byte\n      swap1\n      mstore8\n      pop\n        /* \"@openzeppelin/contracts/utils/Strings.sol\":2507:2522  buffer[1] = \"x\" */\n      0x7800000000000000000000000000000000000000000000000000000000000000\n        /* \"@openzeppelin/contracts/utils/Strings.sol\":2507:2513  buffer */\n      dup2\n        /* \"@openzeppelin/contracts/utils/Strings.sol\":2514:2515  1 */\n      0x01\n        /* \"@openzeppelin/contracts/utils/Strings.sol\":2507:2516  buffer[1] */\n      dup2\n      mload\n      dup2\n      lt\n      tag_44\n      jumpi\n      tag_45\n      tag_43\n      jump\t// in\n    tag_45:\n    tag_44:\n      0x20\n      add\n      add\n        /* \"@openzeppelin/contracts/utils/Strings.sol\":2507:2522  buffer[1] = \"x\" */\n      swap1\n      not(0xffffffffffffffffffffffffffffffffffffffffffffffffffffffffffffff)\n      and\n      swap1\n      dup2\n      0x00\n      byte\n      swap1\n      mstore8\n      pop\n        /* \"@openzeppelin/contracts/utils/Strings.sol\":2537:2546  uint256 i */\n      0x00\n        /* \"@openzeppelin/contracts/utils/Strings.sol\":2562:2563  1 */\n      0x01\n        /* \"@openzeppelin/contracts/utils/Strings.sol\":2553:2559  length */\n      dup6\n        /* \"@openzeppelin/contracts/utils/Strings.sol\":2549:2550  2 */\n      0x02\n        /* \"@openzeppelin/contracts/utils/Strings.sol\":2549:2559  2 * length */\n      tag_49\n      swap2\n      swap1\n      tag_34\n      jump\t// in\n    tag_49:\n        /* \"@openzeppelin/contracts/utils/Strings.sol\":2549:2563  2 * length + 1 */\n      tag_50\n      swap2\n      swap1\n      tag_36\n      jump\t// in\n    tag_50:\n        /* \"@openzeppelin/contracts/utils/Strings.sol\":2537:2563  uint256 i = 2 * length + 1 */\n      swap1\n      pop\n        /* \"@openzeppelin/contracts/utils/Strings.sol\":2532:2672  for (uint256 i = 2 * length + 1; i > 1; --i) {... */\n    tag_46:\n        /* \"@openzeppelin/contracts/utils/Strings.sol\":2569:2570  1 */\n      0x01\n        /* \"@openzeppelin/contracts/utils/Strings.sol\":2565:2566  i */\n      dup2\n        /* \"@openzeppelin/contracts/utils/Strings.sol\":2565:2570  i > 1 */\n      gt\n        /* \"@openzeppelin/contracts/utils/Strings.sol\":2532:2672  for (uint256 i = 2 * length + 1; i > 1; --i) {... */\n      iszero\n      tag_47\n      jumpi\n        /* \"@openzeppelin/contracts/utils/Strings.sol\":2603:2613  HEX_DIGITS */\n      0x3031323334353637383961626364656600000000000000000000000000000000\n        /* \"@openzeppelin/contracts/utils/Strings.sol\":2627:2630  0xf */\n      0x0f\n        /* \"@openzeppelin/contracts/utils/Strings.sol\":2614:2624  localValue */\n      dup5\n        /* \"@openzeppelin/contracts/utils/Strings.sol\":2614:2630  localValue & 0xf */\n      and\n        /* \"@openzeppelin/contracts/utils/Strings.sol\":2603:2631  HEX_DIGITS[localValue & 0xf] */\n      0x10\n      dup2\n      lt\n      tag_51\n      jumpi\n      tag_52\n      tag_43\n      jump\t// in\n    tag_52:\n    tag_51:\n      byte\n      0xf8\n      shl\n        /* \"@openzeppelin/contracts/utils/Strings.sol\":2591:2597  buffer */\n      dup3\n        /* \"@openzeppelin/contracts/utils/Strings.sol\":2598:2599  i */\n      dup3\n        /* \"@openzeppelin/contracts/utils/Strings.sol\":2591:2600  buffer[i] */\n      dup2\n      mload\n      dup2\n      lt\n      tag_53\n      jumpi\n      tag_54\n      tag_43\n      jump\t// in\n    tag_54:\n    tag_53:\n      0x20\n      add\n      add\n        /* \"@openzeppelin/contracts/utils/Strings.sol\":2591:2631  buffer[i] = HEX_DIGITS[localValue & 0xf] */\n      swap1\n      not(0xffffffffffffffffffffffffffffffffffffffffffffffffffffffffffffff)\n      and\n      swap1\n      dup2\n      0x00\n      byte\n      swap1\n      mstore8\n      pop\n        /* \"@openzeppelin/contracts/utils/Strings.sol\":2660:2661  4 */\n      0x04\n        /* \"@openzeppelin/contracts/utils/Strings.sol\":2645:2661  localValue >>= 4 */\n      dup4\n      swap1\n      shr\n      swap3\n      pop\n        /* \"@openzeppelin/contracts/utils/Strings.sol\":2572:2575  --i */\n      dup1\n      tag_55\n      swap1\n      tag_56\n      jump\t// in\n    tag_55:\n      swap1\n      pop\n        /* \"@openzeppelin/contracts/utils/Strings.sol\":2532:2672  for (uint256 i = 2 * length + 1; i > 1; --i) {... */\n      jump(tag_46)\n    tag_47:\n      pop\n        /* \"@openzeppelin/contracts/utils/Strings.sol\":2699:2700  0 */\n      0x00\n        /* \"@openzeppelin/contracts/utils/Strings.sol\":2685:2695  localValue */\n      dup3\n        /* \"@openzeppelin/contracts/utils/Strings.sol\":2685:2700  localValue != 0 */\n      eq\n        /* \"@openzeppelin/contracts/utils/Strings.sol\":2681:2777  if (localValue != 0) {... */\n      tag_57\n      jumpi\n        /* \"@openzeppelin/contracts/utils/Strings.sol\":2752:2757  value */\n      dup5\n        /* \"@openzeppelin/contracts/utils/Strings.sol\":2759:2765  length */\n      dup5\n        /* \"@openzeppelin/contracts/utils/Strings.sol\":2723:2766  StringsInsufficientHexLength(value, length) */\n      mload(0x40)\n      0xe22e27eb00000000000000000000000000000000000000000000000000000000\n      dup2\n      mstore\n      0x04\n      add\n      tag_58\n      swap3\n      swap2\n      swap1\n      tag_59\n      jump\t// in\n    tag_58:\n      mload(0x40)\n      dup1\n      swap2\n      sub\n      swap1\n      revert\n        /* \"@openzeppelin/contracts/utils/Strings.sol\":2681:2777  if (localValue != 0) {... */\n    tag_57:\n        /* \"@openzeppelin/contracts/utils/Strings.sol\":2800:2806  buffer */\n      dup1\n        /* \"@openzeppelin/contracts/utils/Strings.sol\":2786:2807  return string(buffer) */\n      swap3\n      pop\n      pop\n      pop\n        /* \"@openzeppelin/contracts/utils/Strings.sol\":2289:2814  function toHexString(uint256 value, uint256 length) internal pure returns (string memory) {... */\n      swap3\n      swap2\n      pop\n      pop\n      jump\t// out\n        /* \"@openzeppelin/contracts/utils/math/SafeCast.sol\":34795:34940  function toUint(bool b) internal pure returns (uint256 u) {... */\n    tag_27:\n        /* \"@openzeppelin/contracts/utils/math/SafeCast.sol\":34842:34851  uint256 u */\n      0x00\n        /* \"@openzeppelin/contracts/utils/math/SafeCast.sol\":34921:34922  b */\n      dup2\n        /* \"@openzeppelin/contracts/utils/math/SafeCast.sol\":34914:34923  iszero(b) */\n      iszero\n        /* \"@openzeppelin/contracts/utils/math/SafeCast.sol\":34907:34924  iszero(iszero(b)) */\n      iszero\n        /* \"@openzeppelin/contracts/utils/math/SafeCast.sol\":34902:34924  u := iszero(iszero(b)) */\n      swap1\n      pop\n        /* \"@openzeppelin/contracts/utils/math/SafeCast.sol\":34795:34940  function toUint(bool b) internal pure returns (uint256 u) {... */\n      swap2\n      swap1\n      pop\n      jump\t// out\n        /* \"#utility.yul\":88:205   */\n    tag_62:\n        /* \"#utility.yul\":197:198   */\n      0x00\n        /* \"#utility.yul\":194:195   */\n      dup1\n        /* \"#utility.yul\":187:199   */\n      revert\n        /* \"#utility.yul\":334:411   */\n    tag_64:\n        /* \"#utility.yul\":371:378   */\n      0x00\n        /* \"#utility.yul\":400:405   */\n      dup2\n        /* \"#utility.yul\":389:405   */\n      swap1\n      pop\n        /* \"#utility.yul\":334:411   */\n      swap2\n      swap1\n      pop\n      jump\t// out\n        /* \"#utility.yul\":417:539   */\n    tag_65:\n        /* \"#utility.yul\":490:514   */\n      tag_80\n        /* \"#utility.yul\":508:513   */\n      dup2\n        /* \"#utility.yul\":490:514   */\n      tag_64\n      jump\t// in\n    tag_80:\n        /* \"#utility.yul\":483:488   */\n      dup2\n        /* \"#utility.yul\":480:515   */\n      eq\n        /* \"#utility.yul\":470:533   */\n      tag_81\n      jumpi\n        /* \"#utility.yul\":529:530   */\n      0x00\n        /* \"#utility.yul\":526:527   */\n      dup1\n        /* \"#utility.yul\":519:531   */\n      revert\n        /* \"#utility.yul\":470:533   */\n    tag_81:\n        /* \"#utility.yul\":417:539   */\n      pop\n      jump\t// out\n        /* \"#utility.yul\":545:684   */\n    tag_66:\n        /* \"#utility.yul\":591:596   */\n      0x00\n        /* \"#utility.yul\":629:635   */\n      dup2\n        /* \"#utility.yul\":616:636   */\n      calldataload\n        /* \"#utility.yul\":607:636   */\n      swap1\n      pop\n        /* \"#utility.yul\":645:678   */\n      tag_83\n        /* \"#utility.yul\":672:677   */\n      dup2\n        /* \"#utility.yul\":645:678   */\n      tag_65\n      jump\t// in\n    tag_83:\n        /* \"#utility.yul\":545:684   */\n      swap3\n      swap2\n      pop\n      pop\n      jump\t// out\n        /* \"#utility.yul\":690:1019   */\n    tag_7:\n        /* \"#utility.yul\":749:755   */\n      0x00\n        /* \"#utility.yul\":798:800   */\n      0x20\n        /* \"#utility.yul\":786:795   */\n      dup3\n        /* \"#utility.yul\":777:784   */\n      dup5\n        /* \"#utility.yul\":773:796   */\n      sub\n        /* \"#utility.yul\":769:801   */\n      slt\n        /* \"#utility.yul\":766:885   */\n      iszero\n      tag_85\n      jumpi\n        /* \"#utility.yul\":804:883   */\n      tag_86\n      tag_62\n      jump\t// in\n    tag_86:\n        /* \"#utility.yul\":766:885   */\n    tag_85:\n        /* \"#utility.yul\":924:925   */\n      0x00\n        /* \"#utility.yul\":949:1002   */\n      tag_87\n        /* \"#utility.yul\":994:1001   */\n      dup5\n        /* \"#utility.yul\":985:991   */\n      dup3\n        /* \"#utility.yul\":974:983   */\n      dup6\n        /* \"#utility.yul\":970:992   */\n      add\n        /* \"#utility.yul\":949:1002   */\n      tag_66\n      jump\t// in\n    tag_87:\n        /* \"#utility.yul\":939:1002   */\n      swap2\n      pop\n        /* \"#utility.yul\":895:1012   */\n      pop\n        /* \"#utility.yul\":690:1019   */\n      swap3\n      swap2\n      pop\n      pop\n      jump\t// out\n        /* \"#utility.yul\":1025:1124   */\n    tag_67:\n        /* \"#utility.yul\":1077:1083   */\n      0x00\n        /* \"#utility.yul\":1111:1116   */\n      dup2\n        /* \"#utility.yul\":1105:1117   */\n      mload\n        /* \"#utility.yul\":1095:1117   */\n      swap1\n      pop\n        /* \"#utility.yul\":1025:1124   */\n      swap2\n      swap1\n      pop\n      jump\t// out\n        /* \"#utility.yul\":1130:1299   */\n    tag_68:\n        /* \"#utility.yul\":1214:1225   */\n      0x00\n        /* \"#utility.yul\":1248:1254   */\n      dup3\n        /* \"#utility.yul\":1243:1246   */\n      dup3\n        /* \"#utility.yul\":1236:1255   */\n      mstore\n        /* \"#utility.yul\":1288:1292   */\n      0x20\n        /* \"#utility.yul\":1283:1286   */\n      dup3\n        /* \"#utility.yul\":1279:1293   */\n      add\n        /* \"#utility.yul\":1264:1293   */\n      swap1\n      pop\n        /* \"#utility.yul\":1130:1299   */\n      swap3\n      swap2\n      pop\n      pop\n      jump\t// out\n        /* \"#utility.yul\":1305:1444   */\n    tag_69:\n        /* \"#utility.yul\":1394:1400   */\n      dup3\n        /* \"#utility.yul\":1389:1392   */\n      dup2\n        /* \"#utility.yul\":1384:1387   */\n      dup4\n        /* \"#utility.yul\":1378:1401   */\n      mcopy\n        /* \"#utility.yul\":1435:1436   */\n      0x00\n        /* \"#utility.yul\":1426:1432   */\n      dup4\n        /* \"#utility.yul\":1421:1424   */\n      dup4\n        /* \"#utility.yul\":1417:1433   */\n      add\n        /* \"#utility.yul\":1410:1437   */\n      mstore\n        /* \"#utility.yul\":1305:1444   */\n      pop\n      pop\n      pop\n      jump\t// out\n        /* \"#utility.yul\":1450:1552   */\n    tag_70:\n        /* \"#utility.yul\":1491:1497   */\n      0x00\n        /* \"#utility.yul\":1542:1544   */\n      0x1f\n        /* \"#utility.yul\":1538:1545   */\n      not\n        /* \"#utility.yul\":1533:1535   */\n      0x1f\n        /* \"#utility.yul\":1526:1531   */\n      dup4\n        /* \"#utility.yul\":1522:1536   */\n      add\n        /* \"#utility.yul\":1518:1546   */\n      and\n        /* \"#utility.yul\":1508:1546   */\n      swap1\n      pop\n        /* \"#utility.yul\":1450:1552   */\n      swap2\n      swap1\n      pop\n      jump\t// out\n        /* \"#utility.yul\":1558:1935   */\n    tag_71:\n        /* \"#utility.yul\":1646:1649   */\n      0x00\n        /* \"#utility.yul\":1674:1713   */\n      tag_93\n        /* \"#utility.yul\":1707:1712   */\n      dup3\n        /* \"#utility.yul\":1674:1713   */\n      tag_67\n      jump\t// in\n    tag_93:\n        /* \"#utility.yul\":1729:1800   */\n      tag_94\n        /* \"#utility.yul\":1793:1799   */\n      dup2\n        /* \"#utility.yul\":1788:1791   */\n      dup6\n        /* \"#utility.yul\":1729:1800   */\n      tag_68\n      jump\t// in\n    tag_94:\n        /* \"#utility.yul\":1722:1800   */\n      swap4\n      pop\n        /* \"#utility.yul\":1809:1874   */\n      tag_95\n        /* \"#utility.yul\":1867:1873   */\n      dup2\n        /* \"#utility.yul\":1862:1865   */\n      dup6\n        /* \"#utility.yul\":1855:1859   */\n      0x20\n        /* \"#utility.yul\":1848:1853   */\n      dup7\n        /* \"#utility.yul\":1844:1860   */\n      add\n        /* \"#utility.yul\":1809:1874   */\n      tag_69\n      jump\t// in\n    tag_95:\n        /* \"#utility.yul\":1899:1928   */\n      tag_96\n        /* \"#utility.yul\":1921:1927   */\n      dup2\n        /* \"#utility.yul\":1899:1928   */\n      tag_70\n      jump\t// in\n    tag_96:\n        /* \"#utility.yul\":1894:1897   */\n      dup5\n        /* \"#utility.yul\":1890:1929   */\n      add\n        /* \"#utility.yul\":1883:1929   */\n      swap2\n      pop\n        /* \"#utility.yul\":1650:1935   */\n      pop\n        /* \"#utility.yul\":1558:1935   */\n      swap3\n      swap2\n      pop\n      pop\n      jump\t// out\n        /* \"#utility.yul\":1941:2254   */\n    tag_10:\n        /* \"#utility.yul\":2054:2058   */\n      0x00\n        /* \"#utility.yul\":2092:2094   */\n      0x20\n        /* \"#utility.yul\":2081:2090   */\n      dup3\n        /* \"#utility.yul\":2077:2095   */\n      add\n        /* \"#utility.yul\":2069:2095   */\n      swap1\n      pop\n        /* \"#utility.yul\":2141:2150   */\n      dup2\n        /* \"#utility.yul\":2135:2139   */\n      dup2\n        /* \"#utility.yul\":2131:2151   */\n      sub\n        /* \"#utility.yul\":2127:2128   */\n      0x00\n        /* \"#utility.yul\":2116:2125   */\n      dup4\n        /* \"#utility.yul\":2112:2129   */\n      add\n        /* \"#utility.yul\":2105:2152   */\n      mstore\n        /* \"#utility.yul\":2169:2247   */\n      tag_98\n        /* \"#utility.yul\":2242:2246   */\n      dup2\n        /* \"#utility.yul\":2233:2239   */\n      dup5\n        /* \"#utility.yul\":2169:2247   */\n      tag_71\n      jump\t// in\n    tag_98:\n        /* \"#utility.yul\":2161:2247   */\n      swap1\n      pop\n        /* \"#utility.yul\":1941:2254   */\n      swap3\n      swap2\n      pop\n      pop\n      jump\t// out\n        /* \"#utility.yul\":2260:2440   */\n    tag_72:\n        /* \"#utility.yul\":2308:2385   */\n      0x4e487b7100000000000000000000000000000000000000000000000000000000\n        /* \"#utility.yul\":2305:2306   */\n      0x00\n        /* \"#utility.yul\":2298:2386   */\n      mstore\n        /* \"#utility.yul\":2405:2409   */\n      0x11\n        /* \"#utility.yul\":2402:2403   */\n      0x04\n        /* \"#utility.yul\":2395:2410   */\n      mstore\n        /* \"#utility.yul\":2429:2433   */\n      0x24\n        /* \"#utility.yul\":2426:2427   */\n      0x00\n        /* \"#utility.yul\":2419:2434   */\n      revert\n        /* \"#utility.yul\":2446:2856   */\n    tag_34:\n        /* \"#utility.yul\":2486:2493   */\n      0x00\n        /* \"#utility.yul\":2509:2529   */\n      tag_101\n        /* \"#utility.yul\":2527:2528   */\n      dup3\n        /* \"#utility.yul\":2509:2529   */\n      tag_64\n      jump\t// in\n    tag_101:\n        /* \"#utility.yul\":2504:2529   */\n      swap2\n      pop\n        /* \"#utility.yul\":2543:2563   */\n      tag_102\n        /* \"#utility.yul\":2561:2562   */\n      dup4\n        /* \"#utility.yul\":2543:2563   */\n      tag_64\n      jump\t// in\n    tag_102:\n        /* \"#utility.yul\":2538:2563   */\n      swap3\n      pop\n        /* \"#utility.yul\":2598:2599   */\n      dup3\n        /* \"#utility.yul\":2595:2596   */\n      dup3\n        /* \"#utility.yul\":2591:2600   */\n      mul\n        /* \"#utility.yul\":2620:2650   */\n      tag_103\n        /* \"#utility.yul\":2638:2649   */\n      dup2\n        /* \"#utility.yul\":2620:2650   */\n      tag_64\n      jump\t// in\n    tag_103:\n        /* \"#utility.yul\":2609:2650   */\n      swap2\n      pop\n        /* \"#utility.yul\":2799:2800   */\n      dup3\n        /* \"#utility.yul\":2790:2797   */\n      dup3\n        /* \"#utility.yul\":2786:2801   */\n      div\n        /* \"#utility.yul\":2783:2784   */\n      dup5\n        /* \"#utility.yul\":2780:2802   */\n      eq\n        /* \"#utility.yul\":2760:2761   */\n      dup4\n        /* \"#utility.yul\":2753:2762   */\n      iszero\n        /* \"#utility.yul\":2733:2816   */\n      or\n        /* \"#utility.yul\":2710:2849   */\n      tag_104\n      jumpi\n        /* \"#utility.yul\":2829:2847   */\n      tag_105\n      tag_72\n      jump\t// in\n    tag_105:\n        /* \"#utility.yul\":2710:2849   */\n    tag_104:\n        /* \"#utility.yul\":2494:2856   */\n      pop\n        /* \"#utility.yul\":2446:2856   */\n      swap3\n      swap2\n      pop\n      pop\n      jump\t// out\n        /* \"#utility.yul\":2862:3053   */\n    tag_36:\n        /* \"#utility.yul\":2902:2905   */\n      0x00\n        /* \"#utility.yul\":2921:2941   */\n      tag_107\n        /* \"#utility.yul\":2939:2940   */\n      dup3\n        /* \"#utility.yul\":2921:2941   */\n      tag_64\n      jump\t// in\n    tag_107:\n        /* \"#utility.yul\":2916:2941   */\n      swap2\n      pop\n        /* \"#utility.yul\":2955:2975   */\n      tag_108\n        /* \"#utility.yul\":2973:2974   */\n      dup4\n        /* \"#utility.yul\":2955:2975   */\n      tag_64\n      jump\t// in\n    tag_108:\n        /* \"#utility.yul\":2950:2975   */\n      swap3\n      pop\n        /* \"#utility.yul\":2998:2999   */\n      dup3\n        /* \"#utility.yul\":2995:2996   */\n      dup3\n        /* \"#utility.yul\":2991:3000   */\n      add\n        /* \"#utility.yul\":2984:3000   */\n      swap1\n      pop\n        /* \"#utility.yul\":3019:3022   */\n      dup1\n        /* \"#utility.yul\":3016:3017   */\n      dup3\n        /* \"#utility.yul\":3013:3023   */\n      gt\n        /* \"#utility.yul\":3010:3046   */\n      iszero\n      tag_109\n      jumpi\n        /* \"#utility.yul\":3026:3044   */\n      tag_110\n      tag_72\n      jump\t// in\n    tag_110:\n        /* \"#utility.yul\":3010:3046   */\n    tag_109:\n        /* \"#utility.yul\":2862:3053   */\n      swap3\n      swap2\n      pop\n      pop\n      jump\t// out\n        /* \"#utility.yul\":3059:3239   */\n    tag_39:\n        /* \"#utility.yul\":3107:3184   */\n      0x4e487b7100000000000000000000000000000000000000000000000000000000\n        /* \"#utility.yul\":3104:3105   */\n      0x00\n        /* \"#utility.yul\":3097:3185   */\n      mstore\n        /* \"#utility.yul\":3204:3208   */\n      0x41\n        /* \"#utility.yul\":3201:3202   */\n      0x04\n        /* \"#utility.yul\":3194:3209   */\n      mstore\n        /* \"#utility.yul\":3228:3232   */\n      0x24\n        /* \"#utility.yul\":3225:3226   */\n      0x00\n        /* \"#utility.yul\":3218:3233   */\n      revert\n        /* \"#utility.yul\":3245:3425   */\n    tag_43:\n        /* \"#utility.yul\":3293:3370   */\n      0x4e487b7100000000000000000000000000000000000000000000000000000000\n        /* \"#utility.yul\":3290:3291   */\n      0x00\n        /* \"#utility.yul\":3283:3371   */\n      mstore\n        /* \"#utility.yul\":3390:3394   */\n      0x32\n        /* \"#utility.yul\":3387:3388   */\n      0x04\n        /* \"#utility.yul\":3380:3395   */\n      mstore\n        /* \"#utility.yul\":3414:3418   */\n      0x24\n        /* \"#utility.yul\":3411:3412   */\n      0x00\n        /* \"#utility.yul\":3404:3419   */\n      revert\n        /* \"#utility.yul\":3431:3602   */\n    tag_56:\n        /* \"#utility.yul\":3470:3473   */\n      0x00\n        /* \"#utility.yul\":3493:3517   */\n      tag_114\n        /* \"#utility.yul\":3511:3516   */\n      dup3\n        /* \"#utility.yul\":3493:3517   */\n      tag_64\n      jump\t// in\n    tag_114:\n        /* \"#utility.yul\":3484:3517   */\n      swap2\n      pop\n        /* \"#utility.yul\":3539:3543   */\n      0x00\n        /* \"#utility.yul\":3532:3537   */\n      dup3\n        /* \"#utility.yul\":3529:3544   */\n      sub\n        /* \"#utility.yul\":3526:3567   */\n      tag_115\n      jumpi\n        /* \"#utility.yul\":3547:3565   */\n      tag_116\n      tag_72\n      jump\t// in\n    tag_116:\n        /* \"#utility.yul\":3526:3567   */\n    tag_115:\n        /* \"#utility.yul\":3594:3595   */\n      0x01\n        /* \"#utility.yul\":3587:3592   */\n      dup3\n        /* \"#utility.yul\":3583:3596   */\n      sub\n        /* \"#utility.yul\":3576:3596   */\n      swap1\n      pop\n        /* \"#utility.yul\":3431:3602   */\n      swap2\n      swap1\n      pop\n      jump\t// out\n        /* \"#utility.yul\":3608:3726   */\n    tag_73:\n        /* \"#utility.yul\":3695:3719   */\n      tag_118\n        /* \"#utility.yul\":3713:3718   */\n      dup2\n        /* \"#utility.yul\":3695:3719   */\n      tag_64\n      jump\t// in\n    tag_118:\n        /* \"#utility.yul\":3690:3693   */\n      dup3\n        /* \"#utility.yul\":3683:3720   */\n      mstore\n        /* \"#utility.yul\":3608:3726   */\n      pop\n      pop\n      jump\t// out\n        /* \"#utility.yul\":3732:4064   */\n    tag_59:\n        /* \"#utility.yul\":3853:3857   */\n      0x00\n        /* \"#utility.yul\":3891:3893   */\n      0x40\n        /* \"#utility.yul\":3880:3889   */\n      dup3\n        /* \"#utility.yul\":3876:3894   */\n      add\n        /* \"#utility.yul\":3868:3894   */\n      swap1\n      pop\n        /* \"#utility.yul\":3904:3975   */\n      tag_120\n        /* \"#utility.yul\":3972:3973   */\n      0x00\n        /* \"#utility.yul\":3961:3970   */\n      dup4\n        /* \"#utility.yul\":3957:3974   */\n      add\n        /* \"#utility.yul\":3948:3954   */\n      dup6\n        /* \"#utility.yul\":3904:3975   */\n      tag_73\n      jump\t// in\n    tag_120:\n        /* \"#utility.yul\":3985:4057   */\n      tag_121\n        /* \"#utility.yul\":4053:4055   */\n      0x20\n        /* \"#utility.yul\":4042:4051   */\n      dup4\n        /* \"#utility.yul\":4038:4056   */\n      add\n        /* \"#utility.yul\":4029:4035   */\n      dup5\n        /* \"#utility.yul\":3985:4057   */\n      tag_73\n      jump\t// in\n    tag_121:\n        /* \"#utility.yul\":3732:4064   */\n      swap4\n      swap3\n      pop\n      pop\n      pop\n      jump\t// out\n\n    auxdata: 0xa26469706673582212205b176344624ffb40ae165833ffd6997ee65d9f79b0fc120c2d6db6f7178f2a9264736f6c634300081a0033\n}\n",
				"bytecode": {
					"linkReferences": {},
					"object": "6080604052348015600e575f80fd5b506106598061001c5f395ff3fe608060405234801561000f575f80fd5b5060043610610034575f3560e01c806368953f1f14610038578063ae31795614610068575b5f80fd5b610052600480360381019061004d9190610410565b610098565b60405161005f91906104ab565b60405180910390f35b610082600480360381019061007d9190610410565b6100aa565b60405161008f91906104ab565b60405180910390f35b60606100a3826100bc565b9050919050565b60606100b5826100bc565b9050919050565b60606100d38260016100cd856100da565b01610190565b9050919050565b5f805f90505f6100fb6fffffffffffffffffffffffffffffffff85116103ce565b90506080810284901c9350601081028201915061012167ffffffffffffffff85116103ce565b90506040810284901c9350600881028201915061014363ffffffff85116103ce565b90506020810284901c9350600481028201915061016361ffff85116103ce565b90506010810284901c9350600281028201915061018260ff85116103ce565b820191508192505050919050565b60605f8390505f60028460026101a691906104f8565b6101b09190610539565b67ffffffffffffffff8111156101c9576101c861056c565b5b6040519080825280601f01601f1916602001820160405280156101fb5781602001600182028036833780820191505090505b5090507f3000000000000000000000000000000000000000000000000000000000000000815f8151811061023257610231610599565b5b60200101907effffffffffffffffffffffffffffffffffffffffffffffffffffffffffffff191690815f1a9053507f78000000000000000000000000000000000000000000000000000000000000008160018151811061029557610294610599565b5b60200101907effffffffffffffffffffffffffffffffffffffffffffffffffffffffffffff191690815f1a9053505f60018560026102d391906104f8565b6102dd9190610539565b90505b600181111561037c577f3031323334353637383961626364656600000000000000000000000000000000600f84166010811061031f5761031e610599565b5b1a60f81b82828151811061033657610335610599565b5b60200101907effffffffffffffffffffffffffffffffffffffffffffffffffffffffffffff191690815f1a905350600483901c925080610375906105c6565b90506102e0565b505f82146103c35784846040517fe22e27eb0000000000000000000000000000000000000000000000000000000081526004016103ba9291906105fc565b60405180910390fd5b809250505092915050565b5f8115159050919050565b5f80fd5b5f819050919050565b6103ef816103dd565b81146103f9575f80fd5b50565b5f8135905061040a816103e6565b92915050565b5f60208284031215610425576104246103d9565b5b5f610432848285016103fc565b91505092915050565b5f81519050919050565b5f82825260208201905092915050565b8281835e5f83830152505050565b5f601f19601f8301169050919050565b5f61047d8261043b565b6104878185610445565b9350610497818560208601610455565b6104a081610463565b840191505092915050565b5f6020820190508181035f8301526104c38184610473565b905092915050565b7f4e487b71000000000000000000000000000000000000000000000000000000005f52601160045260245ffd5b5f610502826103dd565b915061050d836103dd565b925082820261051b816103dd565b91508282048414831517610532576105316104cb565b5b5092915050565b5f610543826103dd565b915061054e836103dd565b9250828201905080821115610566576105656104cb565b5b92915050565b7f4e487b71000000000000000000000000000000000000000000000000000000005f52604160045260245ffd5b7f4e487b71000000000000000000000000000000000000000000000000000000005f52603260045260245ffd5b5f6105d0826103dd565b91505f82036105e2576105e16104cb565b5b600182039050919050565b6105f6816103dd565b82525050565b5f60408201905061060f5f8301856105ed565b61061c60208301846105ed565b939250505056fea26469706673582212205b176344624ffb40ae165833ffd6997ee65d9f79b0fc120c2d6db6f7178f2a9264736f6c634300081a0033",
					"opcodes": "PUSH1 0x80 PUSH1 0x40 MSTORE CALLVALUE DUP1 ISZERO PUSH1 0xE JUMPI PUSH0 DUP1 REVERT JUMPDEST POP PUSH2 0x659 DUP1 PUSH2 0x1C PUSH0 CODECOPY PUSH0 RETURN INVALID PUSH1 0x80 PUSH1 0x40 MSTORE CALLVALUE DUP1 ISZERO PUSH2 0xF JUMPI PUSH0 DUP1 REVERT JUMPDEST POP PUSH1 0x4 CALLDATASIZE LT PUSH2 0x34 JUMPI PUSH0 CALLDATALOAD PUSH1 0xE0 SHR DUP1 PUSH4 0x68953F1F EQ PUSH2 0x38 JUMPI DUP1 PUSH4 0xAE317956 EQ PUSH2 0x68 JUMPI JUMPDEST PUSH0 DUP1 REVERT JUMPDEST PUSH2 0x52 PUSH1 0x4 DUP1 CALLDATASIZE SUB DUP2 ADD SWAP1 PUSH2 0x4D SWAP2 SWAP1 PUSH2 0x410 JUMP JUMPDEST PUSH2 0x98 JUMP JUMPDEST PUSH1 0x40 MLOAD PUSH2 0x5F SWAP2 SWAP1 PUSH2 0x4AB JUMP JUMPDEST PUSH1 0x40 MLOAD DUP1 SWAP2 SUB SWAP1 RETURN JUMPDEST PUSH2 0x82 PUSH1 0x4 DUP1 CALLDATASIZE SUB DUP2 ADD SWAP1 PUSH2 0x7D SWAP2 SWAP1 PUSH2 0x410 JUMP JUMPDEST PUSH2 0xAA JUMP JUMPDEST PUSH1 0x40 MLOAD PUSH2 0x8F SWAP2 SWAP1 PUSH2 0x4AB JUMP JUMPDEST PUSH1 0x40 MLOAD DUP1 SWAP2 SUB SWAP1 RETURN JUMPDEST PUSH1 0x60 PUSH2 0xA3 DUP3 PUSH2 0xBC JUMP JUMPDEST SWAP1 POP SWAP2 SWAP1 POP JUMP JUMPDEST PUSH1 0x60 PUSH2 0xB5 DUP3 PUSH2 0xBC JUMP JUMPDEST SWAP1 POP SWAP2 SWAP1 POP JUMP JUMPDEST PUSH1 0x60 PUSH2 0xD3 DUP3 PUSH1 0x1 PUSH2 0xCD DUP6 PUSH2 0xDA JUMP JUMPDEST ADD PUSH2 0x190 JUMP JUMPDEST SWAP1 POP SWAP2 SWAP1 POP JUMP JUMPDEST PUSH0 DUP1 PUSH0 SWAP1 POP PUSH0 PUSH2 0xFB PUSH16 0xFFFFFFFFFFFFFFFFFFFFFFFFFFFFFFFF DUP6 GT PUSH2 0x3CE JUMP JUMPDEST SWAP1 POP PUSH1 0x80 DUP2 MUL DUP5 SWAP1 SHR SWAP4 POP PUSH1 0x10 DUP2 MUL DUP3 ADD SWAP2 POP PUSH2 0x121 PUSH8 0xFFFFFFFFFFFFFFFF DUP6 GT PUSH2 0x3CE JUMP JUMPDEST SWAP1 POP PUSH1 0x40 DUP2 MUL DUP5 SWAP1 SHR SWAP4 POP PUSH1 0x8 DUP2 MUL DUP3 ADD SWAP2 POP PUSH2 0x143 PUSH4 0xFFFFFFFF DUP6 GT PUSH2 0x3CE JUMP JUMPDEST SWAP1 POP PUSH1 0x20 DUP2 MUL DUP5 SWAP1 SHR SWAP4 POP PUSH1 0x4 DUP2 MUL DUP3 ADD SWAP2 POP PUSH2 0x163 PUSH2 0xFFFF DUP6 GT PUSH2 0x3CE JUMP JUMPDEST SWAP1 POP PUSH1 0x10 DUP2 MUL DUP5 SWAP1 SHR SWAP4 POP PUSH1 0x2 DUP2 MUL DUP3 ADD SWAP2 POP PUSH2 0x182 PUSH1 0xFF DUP6 GT PUSH2 0x3CE JUMP JUMPDEST DUP3 ADD SWAP2 POP DUP2 SWAP3 POP POP POP SWAP2 SWAP1 POP JUMP JUMPDEST PUSH1 0x60 PUSH0 DUP4 SWAP1 POP PUSH0 PUSH1 0x2 DUP5 PUSH1 0x2 PUSH2 0x1A6 SWAP2 SWAP1 PUSH2 0x4F8 JUMP JUMPDEST PUSH2 0x1B0 SWAP2 SWAP1 PUSH2 0x539 JUMP JUMPDEST PUSH8 0xFFFFFFFFFFFFFFFF DUP2 GT ISZERO PUSH2 0x1C9 JUMPI PUSH2 0x1C8 PUSH2 0x56C JUMP JUMPDEST JUMPDEST PUSH1 0x40 MLOAD SWAP1 DUP1 DUP3 MSTORE DUP1 PUSH1 0x1F ADD PUSH1 0x1F NOT AND PUSH1 0x20 ADD DUP3 ADD PUSH1 0x40 MSTORE DUP1 ISZERO PUSH2 0x1FB JUMPI DUP2 PUSH1 0x20 ADD PUSH1 0x1 DUP3 MUL DUP1 CALLDATASIZE DUP4 CALLDATACOPY DUP1 DUP3 ADD SWAP2 POP POP SWAP1 POP JUMPDEST POP SWAP1 POP PUSH32 0x3000000000000000000000000000000000000000000000000000000000000000 DUP2 PUSH0 DUP2 MLOAD DUP2 LT PUSH2 0x232 JUMPI PUSH2 0x231 PUSH2 0x599 JUMP JUMPDEST JUMPDEST PUSH1 0x20 ADD ADD SWAP1 PUSH31 0xFFFFFFFFFFFFFFFFFFFFFFFFFFFFFFFFFFFFFFFFFFFFFFFFFFFFFFFFFFFFFF NOT AND SWAP1 DUP2 PUSH0 BYTE SWAP1 MSTORE8 POP PUSH32 0x7800000000000000000000000000000000000000000000000000000000000000 DUP2 PUSH1 0x1 DUP2 MLOAD DUP2 LT PUSH2 0x295 JUMPI PUSH2 0x294 PUSH2 0x599 JUMP JUMPDEST JUMPDEST PUSH1 0x20 ADD ADD SWAP1 PUSH31 0xFFFFFFFFFFFFFFFFFFFFFFFFFFFFFFFFFFFFFFFFFFFFFFFFFFFFFFFFFFFFFF NOT AND SWAP1 DUP2 PUSH0 BYTE SWAP1 MSTORE8 POP PUSH0 PUSH1 0x1 DUP6 PUSH1 0x2 PUSH2 0x2D3 SWAP2 SWAP1 PUSH2 0x4F8 JUMP JUMPDEST PUSH2 0x2DD SWAP2 SWAP1 PUSH2 0x539 JUMP JUMPDEST SWAP1 POP JUMPDEST PUSH1 0x1 DUP2 GT ISZERO PUSH2 0x37C JUMPI PUSH32 0x3031323334353637383961626364656600000000000000000000000000000000 PUSH1 0xF DUP5 AND PUSH1 0x10 DUP2 LT PUSH2 0x31F JUMPI PUSH2 0x31E PUSH2 0x599 JUMP JUMPDEST JUMPDEST BYTE PUSH1 0xF8 SHL DUP3 DUP3 DUP2 MLOAD DUP2 LT PUSH2 0x336 JUMPI PUSH2 0x335 PUSH2 0x599 JUMP JUMPDEST JUMPDEST PUSH1 0x20 ADD ADD SWAP1 PUSH31 0xFFFFFFFFFFFFFFFFFFFFFFFFFFFFFFFFFFFFFFFFFFFFFFFFFFFFFFFFFFFFFF NOT AND SWAP1 DUP2 PUSH0 BYTE SWAP1 MSTORE8 POP PUSH1 0x4 DUP4 SWAP1 SHR SWAP3 POP DUP1 PUSH2 0x375 SWAP1 PUSH2 0x5C6 JUMP JUMPDEST SWAP1 POP PUSH2 0x2E0 JUMP JUMPDEST POP PUSH0 DUP3 EQ PUSH2 0x3C3 JUMPI DUP5 DUP5 PUSH1 0x40 MLOAD PUSH32 0xE22E27EB00000000000000000000000000000000000000000000000000000000 DUP2 MSTORE PUSH1 0x4 ADD PUSH2 0x3BA SWAP3 SWAP2 SWAP1 PUSH2 0x5FC JUMP JUMPDEST PUSH1 0x40 MLOAD DUP1 SWAP2 SUB SWAP1 REVERT JUMPDEST DUP1 SWAP3 POP POP POP SWAP3 SWAP2 POP POP JUMP JUMPDEST PUSH0 DUP2 ISZERO ISZERO SWAP1 POP SWAP2 SWAP1 POP JUMP JUMPDEST PUSH0 DUP1 REVERT JUMPDEST PUSH0 DUP2 SWAP1 POP SWAP2 SWAP1 POP JUMP JUMPDEST PUSH2 0x3EF DUP2 PUSH2 0x3DD JUMP JUMPDEST DUP2 EQ PUSH2 0x3F9 JUMPI PUSH0 DUP1 REVERT JUMPDEST POP JUMP JUMPDEST PUSH0 DUP2 CALLDATALOAD SWAP1 POP PUSH2 0x40A DUP2 PUSH2 0x3E6 JUMP JUMPDEST SWAP3 SWAP2 POP POP JUMP JUMPDEST PUSH0 PUSH1 0x20 DUP3 DUP5 SUB SLT ISZERO PUSH2 0x425 JUMPI PUSH2 0x424 PUSH2 0x3D9 JUMP JUMPDEST JUMPDEST PUSH0 PUSH2 0x432 DUP5 DUP3 DUP6 ADD PUSH2 0x3FC JUMP JUMPDEST SWAP2 POP POP SWAP3 SWAP2 POP POP JUMP JUMPDEST PUSH0 DUP2 MLOAD SWAP1 POP SWAP2 SWAP1 POP JUMP JUMPDEST PUSH0 DUP3 DUP3 MSTORE PUSH1 0x20 DUP3 ADD SWAP1 POP SWAP3 SWAP2 POP POP JUMP JUMPDEST DUP3 DUP2 DUP4 MCOPY PUSH0 DUP4 DUP4 ADD MSTORE POP POP POP JUMP JUMPDEST PUSH0 PUSH1 0x1F NOT PUSH1 0x1F DUP4 ADD AND SWAP1 POP SWAP2 SWAP1 POP JUMP JUMPDEST PUSH0 PUSH2 0x47D DUP3 PUSH2 0x43B JUMP JUMPDEST PUSH2 0x487 DUP2 DUP6 PUSH2 0x445 JUMP JUMPDEST SWAP4 POP PUSH2 0x497 DUP2 DUP6 PUSH1 0x20 DUP7 ADD PUSH2 0x455 JUMP JUMPDEST PUSH2 0x4A0 DUP2 PUSH2 0x463 JUMP JUMPDEST DUP5 ADD SWAP2 POP POP SWAP3 SWAP2 POP POP JUMP JUMPDEST PUSH0 PUSH1 0x20 DUP3 ADD SWAP1 POP DUP2 DUP2 SUB PUSH0 DUP4 ADD MSTORE PUSH2 0x4C3 DUP2 DUP5 PUSH2 0x473 JUMP JUMPDEST SWAP1 POP SWAP3 SWAP2 POP POP JUMP JUMPDEST PUSH32 0x4E487B7100000000000000000000000000000000000000000000000000000000 PUSH0 MSTORE PUSH1 0x11 PUSH1 0x4 MSTORE PUSH1 0x24 PUSH0 REVERT JUMPDEST PUSH0 PUSH2 0x502 DUP3 PUSH2 0x3DD JUMP JUMPDEST SWAP2 POP PUSH2 0x50D DUP4 PUSH2 0x3DD JUMP JUMPDEST SWAP3 POP DUP3 DUP3 MUL PUSH2 0x51B DUP2 PUSH2 0x3DD JUMP JUMPDEST SWAP2 POP DUP3 DUP3 DIV DUP5 EQ DUP4 ISZERO OR PUSH2 0x532 JUMPI PUSH2 0x531 PUSH2 0x4CB JUMP JUMPDEST JUMPDEST POP SWAP3 SWAP2 POP POP JUMP JUMPDEST PUSH0 PUSH2 0x543 DUP3 PUSH2 0x3DD JUMP JUMPDEST SWAP2 POP PUSH2 0x54E DUP4 PUSH2 0x3DD JUMP JUMPDEST SWAP3 POP DUP3 DUP3 ADD SWAP1 POP DUP1 DUP3 GT ISZERO PUSH2 0x566 JUMPI PUSH2 0x565 PUSH2 0x4CB JUMP JUMPDEST JUMPDEST SWAP3 SWAP2 POP POP JUMP JUMPDEST PUSH32 0x4E487B7100000000000000000000000000000000000000000000000000000000 PUSH0 MSTORE PUSH1 0x41 PUSH1 0x4 MSTORE PUSH1 0x24 PUSH0 REVERT JUMPDEST PUSH32 0x4E487B7100000000000000000000000000000000000000000000000000000000 PUSH0 MSTORE PUSH1 0x32 PUSH1 0x4 MSTORE PUSH1 0x24 PUSH0 REVERT JUMPDEST PUSH0 PUSH2 0x5D0 DUP3 PUSH2 0x3DD JUMP JUMPDEST SWAP2 POP PUSH0 DUP3 SUB PUSH2 0x5E2 JUMPI PUSH2 0x5E1 PUSH2 0x4CB JUMP JUMPDEST JUMPDEST PUSH1 0x1 DUP3 SUB SWAP1 POP SWAP2 SWAP1 POP JUMP JUMPDEST PUSH2 0x5F6 DUP2 PUSH2 0x3DD JUMP JUMPDEST DUP3 MSTORE POP POP JUMP JUMPDEST PUSH0 PUSH1 0x40 DUP3 ADD SWAP1 POP PUSH2 0x60F PUSH0 DUP4 ADD DUP6 PUSH2 0x5ED JUMP JUMPDEST PUSH2 0x61C PUSH1 0x20 DUP4 ADD DUP5 PUSH2 0x5ED JUMP JUMPDEST SWAP4 SWAP3 POP POP POP JUMP INVALID LOG2 PUSH5 0x6970667358 0x22 SLT KECCAK256 JUMPDEST OR PUSH4 0x44624FFB BLOCKHASH 0xAE AND PC CALLER SELFDESTRUCT 0xD6 SWAP10 PUSH31 0xE65D9F79B0FC120C2D6DB6F7178F2A9264736F6C634300081A003300000000 "
				},
				"gasEstimates": {
					"creation": {
						"codeDepositCost": "325000",
						"executionCost": "360",
						"totalCost": "325360"
					},
					"external": {
						"toHexString1(uint256)": "infinite",
						"toHexString2(uint256)": "infinite"
					}
				},
				"methodIdentifiers": {
					"toHexString1(uint256)": "68953f1f",
					"toHexString2(uint256)": "ae317956"
				}
			},
			"storageLayout": {
				"storage": [],
				"types": null
			},
			"userdoc": {
				"kind": "user",
				"methods": {},
				"version": 1
			}
		}
	}
}