{
	"data": {
		"bytecode": {
			"linkReferences": {},
			"object": "6080604052348015600e575f80fd5b506109ba8061001c5f395ff3fe608060405234801561000f575f80fd5b506004361061007b575f3560e01c80637a38f9eb116100595780637a38f9eb1461010f5780639c6f47d91461013f578063d1dce4881461016f578063fe4d46ff1461019f5761007b565b8063120c8d921461007f5780631b8182a0146100af578063420a11a0146100df575b5f80fd5b61009960048036038101906100949190610504565b6101cf565b6040516100a6919061053e565b60405180910390f35b6100c960048036038101906100c49190610504565b610208565b6040516100d6919061053e565b60405180910390f35b6100f960048036038101906100f491906106a7565b610245565b60405161010691906107a5565b60405180910390f35b61012960048036038101906101249190610504565b610345565b60405161013691906107df565b60405180910390f35b61015960048036038101906101549190610504565b61035f565b604051610166919061053e565b60405180910390f35b6101896004803603810190610184919061082b565b61039c565b60405161019691906107df565b60405180910390f35b6101b960048036038101906101b491906106a7565b6103b5565b6040516101c691906107a5565b60405180910390f35b5f805f90505f600190505b80826101e69190610883565b915080806101f3906108b6565b915050838111156101da578192505050919050565b5f805f90505f600190505b83811161023b5780826102269190610883565b91508080610233906108b6565b915050610213565b5080915050919050565b60605f600190505b825181101561033c575f83828151811061026a576102696108fd565b5b602002602001015190505f8290505b600181101580156102af575084600182610293919061092a565b815181106102a4576102a36108fd565b5b602002602001015182105b1561030d57846001826102c2919061092a565b815181106102d3576102d26108fd565b5b60200260200101518582815181106102ee576102ed6108fd565b5b60200260200101818152505080806103059061095d565b915050610279565b81858281518110610321576103206108fd565b5b6020026020010181815250505050808060010191505061024d565b50819050919050565b5f808203610356576001905061035a565b5f90505b919050565b5f805f90505f600190505b83811161039257808261037d9190610883565b9150808061038a906108b6565b91505061036a565b8192505050919050565b5f808212156103ab575f6103ae565b60015b9050919050565b60605f600190505b82518110156104b7575f8382815181106103da576103d96108fd565b5b602002602001015190505f6001836103f2919061092a565b90505b5f811015801561041e5750848181518110610413576104126108fd565b5b602002602001015182105b1561047c57848181518110610436576104356108fd565b5b60200260200101518560018361044c9190610883565b8151811061045d5761045c6108fd565b5b60200260200101818152505080806104749061095d565b9150506103f5565b818560018361048b9190610883565b8151811061049c5761049b6108fd565b5b602002602001018181525050505080806001019150506103bd565b50819050919050565b5f604051905090565b5f80fd5b5f80fd5b5f819050919050565b6104e3816104d1565b81146104ed575f80fd5b50565b5f813590506104fe816104da565b92915050565b5f60208284031215610519576105186104c9565b5b5f610526848285016104f0565b91505092915050565b610538816104d1565b82525050565b5f6020820190506105515f83018461052f565b92915050565b5f80fd5b5f601f19601f8301169050919050565b7f4e487b71000000000000000000000000000000000000000000000000000000005f52604160045260245ffd5b6105a18261055b565b810181811067ffffffffffffffff821117156105c0576105bf61056b565b5b80604052505050565b5f6105d26104c0565b90506105de8282610598565b919050565b5f67ffffffffffffffff8211156105fd576105fc61056b565b5b602082029050602081019050919050565b5f80fd5b5f61062461061f846105e3565b6105c9565b905080838252602082019050602084028301858111156106475761064661060e565b5b835b81811015610670578061065c88826104f0565b845260208401935050602081019050610649565b5050509392505050565b5f82601f83011261068e5761068d610557565b5b813561069e848260208601610612565b91505092915050565b5f602082840312156106bc576106bb6104c9565b5b5f82013567ffffffffffffffff8111156106d9576106d86104cd565b5b6106e58482850161067a565b91505092915050565b5f81519050919050565b5f82825260208201905092915050565b5f819050602082019050919050565b610720816104d1565b82525050565b5f6107318383610717565b60208301905092915050565b5f602082019050919050565b5f610753826106ee565b61075d81856106f8565b935061076883610708565b805f5b8381101561079857815161077f8882610726565b975061078a8361073d565b92505060018101905061076b565b5085935050505092915050565b5f6020820190508181035f8301526107bd8184610749565b905092915050565b5f8115159050919050565b6107d9816107c5565b82525050565b5f6020820190506107f25f8301846107d0565b92915050565b5f819050919050565b61080a816107f8565b8114610814575f80fd5b50565b5f8135905061082581610801565b92915050565b5f602082840312156108405761083f6104c9565b5b5f61084d84828501610817565b91505092915050565b7f4e487b71000000000000000000000000000000000000000000000000000000005f52601160045260245ffd5b5f61088d826104d1565b9150610898836104d1565b92508282019050808211156108b0576108af610856565b5b92915050565b5f6108c0826104d1565b91507fffffffffffffffffffffffffffffffffffffffffffffffffffffffffffffffff82036108f2576108f1610856565b5b600182019050919050565b7f4e487b71000000000000000000000000000000000000000000000000000000005f52603260045260245ffd5b5f610934826104d1565b915061093f836104d1565b925082820390508181111561095757610956610856565b5b92915050565b5f610967826104d1565b91505f820361097957610978610856565b5b60018203905091905056fea26469706673582212205efbc10add8b389e5de85fcc11327a5527123f7065afdaaa9e10ede47355ec9664736f6c634300081a0033",
			"opcodes": "PUSH1 0x80 PUSH1 0x40 MSTORE CALLVALUE DUP1 ISZERO PUSH1 0xE JUMPI PUSH0 DUP1 REVERT JUMPDEST POP PUSH2 0x9BA DUP1 PUSH2 0x1C PUSH0 CODECOPY PUSH0 RETURN INVALID PUSH1 0x80 PUSH1 0x40 MSTORE CALLVALUE DUP1 ISZERO PUSH2 0xF JUMPI PUSH0 DUP1 REVERT JUMPDEST POP PUSH1 0x4 CALLDATASIZE LT PUSH2 0x7B JUMPI PUSH0 CALLDATALOAD PUSH1 0xE0 SHR DUP1 PUSH4 0x7A38F9EB GT PUSH2 0x59 JUMPI DUP1 PUSH4 0x7A38F9EB EQ PUSH2 0x10F JUMPI DUP1 PUSH4 0x9C6F47D9 EQ PUSH2 0x13F JUMPI DUP1 PUSH4 0xD1DCE488 EQ PUSH2 0x16F JUMPI DUP1 PUSH4 0xFE4D46FF EQ PUSH2 0x19F JUMPI PUSH2 0x7B JUMP JUMPDEST DUP1 PUSH4 0x120C8D92 EQ PUSH2 0x7F JUMPI DUP1 PUSH4 0x1B8182A0 EQ PUSH2 0xAF JUMPI DUP1 PUSH4 0x420A11A0 EQ PUSH2 0xDF JUMPI JUMPDEST PUSH0 DUP1 REVERT JUMPDEST PUSH2 0x99 PUSH1 0x4 DUP1 CALLDATASIZE SUB DUP2 ADD SWAP1 PUSH2 0x94 SWAP2 SWAP1 PUSH2 0x504 JUMP JUMPDEST PUSH2 0x1CF JUMP JUMPDEST PUSH1 0x40 MLOAD PUSH2 0xA6 SWAP2 SWAP1 PUSH2 0x53E JUMP JUMPDEST PUSH1 0x40 MLOAD DUP1 SWAP2 SUB SWAP1 RETURN JUMPDEST PUSH2 0xC9 PUSH1 0x4 DUP1 CALLDATASIZE SUB DUP2 ADD SWAP1 PUSH2 0xC4 SWAP2 SWAP1 PUSH2 0x504 JUMP JUMPDEST PUSH2 0x208 JUMP JUMPDEST PUSH1 0x40 MLOAD PUSH2 0xD6 SWAP2 SWAP1 PUSH2 0x53E JUMP JUMPDEST PUSH1 0x40 MLOAD DUP1 SWAP2 SUB SWAP1 RETURN JUMPDEST PUSH2 0xF9 PUSH1 0x4 DUP1 CALLDATASIZE SUB DUP2 ADD SWAP1 PUSH2 0xF4 SWAP2 SWAP1 PUSH2 0x6A7 JUMP JUMPDEST PUSH2 0x245 JUMP JUMPDEST PUSH1 0x40 MLOAD PUSH2 0x106 SWAP2 SWAP1 PUSH2 0x7A5 JUMP JUMPDEST PUSH1 0x40 MLOAD DUP1 SWAP2 SUB SWAP1 RETURN JUMPDEST PUSH2 0x129 PUSH1 0x4 DUP1 CALLDATASIZE SUB DUP2 ADD SWAP1 PUSH2 0x124 SWAP2 SWAP1 PUSH2 0x504 JUMP JUMPDEST PUSH2 0x345 JUMP JUMPDEST PUSH1 0x40 MLOAD PUSH2 0x136 SWAP2 SWAP1 PUSH2 0x7DF JUMP JUMPDEST PUSH1 0x40 MLOAD DUP1 SWAP2 SUB SWAP1 RETURN JUMPDEST PUSH2 0x159 PUSH1 0x4 DUP1 CALLDATASIZE SUB DUP2 ADD SWAP1 PUSH2 0x154 SWAP2 SWAP1 PUSH2 0x504 JUMP JUMPDEST PUSH2 0x35F JUMP JUMPDEST PUSH1 0x40 MLOAD PUSH2 0x166 SWAP2 SWAP1 PUSH2 0x53E JUMP JUMPDEST PUSH1 0x40 MLOAD DUP1 SWAP2 SUB SWAP1 RETURN JUMPDEST PUSH2 0x189 PUSH1 0x4 DUP1 CALLDATASIZE SUB DUP2 ADD SWAP1 PUSH2 0x184 SWAP2 SWAP1 PUSH2 0x82B JUMP JUMPDEST PUSH2 0x39C JUMP JUMPDEST PUSH1 0x40 MLOAD PUSH2 0x196 SWAP2 SWAP1 PUSH2 0x7DF JUMP JUMPDEST PUSH1 0x40 MLOAD DUP1 SWAP2 SUB SWAP1 RETURN JUMPDEST PUSH2 0x1B9 PUSH1 0x4 DUP1 CALLDATASIZE SUB DUP2 ADD SWAP1 PUSH2 0x1B4 SWAP2 SWAP1 PUSH2 0x6A7 JUMP JUMPDEST PUSH2 0x3B5 JUMP JUMPDEST PUSH1 0x40 MLOAD PUSH2 0x1C6 SWAP2 SWAP1 PUSH2 0x7A5 JUMP JUMPDEST PUSH1 0x40 MLOAD DUP1 SWAP2 SUB SWAP1 RETURN JUMPDEST PUSH0 DUP1 PUSH0 SWAP1 POP PUSH0 PUSH1 0x1 SWAP1 POP JUMPDEST DUP1 DUP3 PUSH2 0x1E6 SWAP2 SWAP1 PUSH2 0x883 JUMP JUMPDEST SWAP2 POP DUP1 DUP1 PUSH2 0x1F3 SWAP1 PUSH2 0x8B6 JUMP JUMPDEST SWAP2 POP POP DUP4 DUP2 GT ISZERO PUSH2 0x1DA JUMPI DUP2 SWAP3 POP POP POP SWAP2 SWAP1 POP JUMP JUMPDEST PUSH0 DUP1 PUSH0 SWAP1 POP PUSH0 PUSH1 0x1 SWAP1 POP JUMPDEST DUP4 DUP2 GT PUSH2 0x23B JUMPI DUP1 DUP3 PUSH2 0x226 SWAP2 SWAP1 PUSH2 0x883 JUMP JUMPDEST SWAP2 POP DUP1 DUP1 PUSH2 0x233 SWAP1 PUSH2 0x8B6 JUMP JUMPDEST SWAP2 POP POP PUSH2 0x213 JUMP JUMPDEST POP DUP1 SWAP2 POP POP SWAP2 SWAP1 POP JUMP JUMPDEST PUSH1 0x60 PUSH0 PUSH1 0x1 SWAP1 POP JUMPDEST DUP3 MLOAD DUP2 LT ISZERO PUSH2 0x33C JUMPI PUSH0 DUP4 DUP3 DUP2 MLOAD DUP2 LT PUSH2 0x26A JUMPI PUSH2 0x269 PUSH2 0x8FD JUMP JUMPDEST JUMPDEST PUSH1 0x20 MUL PUSH1 0x20 ADD ADD MLOAD SWAP1 POP PUSH0 DUP3 SWAP1 POP JUMPDEST PUSH1 0x1 DUP2 LT ISZERO DUP1 ISZERO PUSH2 0x2AF JUMPI POP DUP5 PUSH1 0x1 DUP3 PUSH2 0x293 SWAP2 SWAP1 PUSH2 0x92A JUMP JUMPDEST DUP2 MLOAD DUP2 LT PUSH2 0x2A4 JUMPI PUSH2 0x2A3 PUSH2 0x8FD JUMP JUMPDEST JUMPDEST PUSH1 0x20 MUL PUSH1 0x20 ADD ADD MLOAD DUP3 LT JUMPDEST ISZERO PUSH2 0x30D JUMPI DUP5 PUSH1 0x1 DUP3 PUSH2 0x2C2 SWAP2 SWAP1 PUSH2 0x92A JUMP JUMPDEST DUP2 MLOAD DUP2 LT PUSH2 0x2D3 JUMPI PUSH2 0x2D2 PUSH2 0x8FD JUMP JUMPDEST JUMPDEST PUSH1 0x20 MUL PUSH1 0x20 ADD ADD MLOAD DUP6 DUP3 DUP2 MLOAD DUP2 LT PUSH2 0x2EE JUMPI PUSH2 0x2ED PUSH2 0x8FD JUMP JUMPDEST JUMPDEST PUSH1 0x20 MUL PUSH1 0x20 ADD ADD DUP2 DUP2 MSTORE POP POP DUP1 DUP1 PUSH2 0x305 SWAP1 PUSH2 0x95D JUMP JUMPDEST SWAP2 POP POP PUSH2 0x279 JUMP JUMPDEST DUP2 DUP6 DUP3 DUP2 MLOAD DUP2 LT PUSH2 0x321 JUMPI PUSH2 0x320 PUSH2 0x8FD JUMP JUMPDEST JUMPDEST PUSH1 0x20 MUL PUSH1 0x20 ADD ADD DUP2 DUP2 MSTORE POP POP POP POP DUP1 DUP1 PUSH1 0x1 ADD SWAP2 POP POP PUSH2 0x24D JUMP JUMPDEST POP DUP2 SWAP1 POP SWAP2 SWAP1 POP JUMP JUMPDEST PUSH0 DUP1 DUP3 SUB PUSH2 0x356 JUMPI PUSH1 0x1 SWAP1 POP PUSH2 0x35A JUMP JUMPDEST PUSH0 SWAP1 POP JUMPDEST SWAP2 SWAP1 POP JUMP JUMPDEST PUSH0 DUP1 PUSH0 SWAP1 POP PUSH0 PUSH1 0x1 SWAP1 POP JUMPDEST DUP4 DUP2 GT PUSH2 0x392 JUMPI DUP1 DUP3 PUSH2 0x37D SWAP2 SWAP1 PUSH2 0x883 JUMP JUMPDEST SWAP2 POP DUP1 DUP1 PUSH2 0x38A SWAP1 PUSH2 0x8B6 JUMP JUMPDEST SWAP2 POP POP PUSH2 0x36A JUMP JUMPDEST DUP2 SWAP3 POP POP POP SWAP2 SWAP1 POP JUMP JUMPDEST PUSH0 DUP1 DUP3 SLT ISZERO PUSH2 0x3AB JUMPI PUSH0 PUSH2 0x3AE JUMP JUMPDEST PUSH1 0x1 JUMPDEST SWAP1 POP SWAP2 SWAP1 POP JUMP JUMPDEST PUSH1 0x60 PUSH0 PUSH1 0x1 SWAP1 POP JUMPDEST DUP3 MLOAD DUP2 LT ISZERO PUSH2 0x4B7 JUMPI PUSH0 DUP4 DUP3 DUP2 MLOAD DUP2 LT PUSH2 0x3DA JUMPI PUSH2 0x3D9 PUSH2 0x8FD JUMP JUMPDEST JUMPDEST PUSH1 0x20 MUL PUSH1 0x20 ADD ADD MLOAD SWAP1 POP PUSH0 PUSH1 0x1 DUP4 PUSH2 0x3F2 SWAP2 SWAP1 PUSH2 0x92A JUMP JUMPDEST SWAP1 POP JUMPDEST PUSH0 DUP2 LT ISZERO DUP1 ISZERO PUSH2 0x41E JUMPI POP DUP5 DUP2 DUP2 MLOAD DUP2 LT PUSH2 0x413 JUMPI PUSH2 0x412 PUSH2 0x8FD JUMP JUMPDEST JUMPDEST PUSH1 0x20 MUL PUSH1 0x20 ADD ADD MLOAD DUP3 LT JUMPDEST ISZERO PUSH2 0x47C JUMPI DUP5 DUP2 DUP2 MLOAD DUP2 LT PUSH2 0x436 JUMPI PUSH2 0x435 PUSH2 0x8FD JUMP JUMPDEST JUMPDEST PUSH1 0x20 MUL PUSH1 0x20 ADD ADD MLOAD DUP6 PUSH1 0x1 DUP4 PUSH2 0x44C SWAP2 SWAP1 PUSH2 0x883 JUMP JUMPDEST DUP2 MLOAD DUP2 LT PUSH2 0x45D JUMPI PUSH2 0x45C PUSH2 0x8FD JUMP JUMPDEST JUMPDEST PUSH1 0x20 MUL PUSH1 0x20 ADD ADD DUP2 DUP2 MSTORE POP POP DUP1 DUP1 PUSH2 0x474 SWAP1 PUSH2 0x95D JUMP JUMPDEST SWAP2 POP POP PUSH2 0x3F5 JUMP JUMPDEST DUP2 DUP6 PUSH1 0x1 DUP4 PUSH2 0x48B SWAP2 SWAP1 PUSH2 0x883 JUMP JUMPDEST DUP2 MLOAD DUP2 LT PUSH2 0x49C JUMPI PUSH2 0x49B PUSH2 0x8FD JUMP JUMPDEST JUMPDEST PUSH1 0x20 MUL PUSH1 0x20 ADD ADD DUP2 DUP2 MSTORE POP POP POP POP DUP1 DUP1 PUSH1 0x1 ADD SWAP2 POP POP PUSH2 0x3BD JUMP JUMPDEST POP DUP2 SWAP1 POP SWAP2 SWAP1 POP JUMP JUMPDEST PUSH0 PUSH1 0x40 MLOAD SWAP1 POP SWAP1 JUMP JUMPDEST PUSH0 DUP1 REVERT JUMPDEST PUSH0 DUP1 REVERT JUMPDEST PUSH0 DUP2 SWAP1 POP SWAP2 SWAP1 POP JUMP JUMPDEST PUSH2 0x4E3 DUP2 PUSH2 0x4D1 JUMP JUMPDEST DUP2 EQ PUSH2 0x4ED JUMPI PUSH0 DUP1 REVERT JUMPDEST POP JUMP JUMPDEST PUSH0 DUP2 CALLDATALOAD SWAP1 POP PUSH2 0x4FE DUP2 PUSH2 0x4DA JUMP JUMPDEST SWAP3 SWAP2 POP POP JUMP JUMPDEST PUSH0 PUSH1 0x20 DUP3 DUP5 SUB SLT ISZERO PUSH2 0x519 JUMPI PUSH2 0x518 PUSH2 0x4C9 JUMP JUMPDEST JUMPDEST PUSH0 PUSH2 0x526 DUP5 DUP3 DUP6 ADD PUSH2 0x4F0 JUMP JUMPDEST SWAP2 POP POP SWAP3 SWAP2 POP POP JUMP JUMPDEST PUSH2 0x538 DUP2 PUSH2 0x4D1 JUMP JUMPDEST DUP3 MSTORE POP POP JUMP JUMPDEST PUSH0 PUSH1 0x20 DUP3 ADD SWAP1 POP PUSH2 0x551 PUSH0 DUP4 ADD DUP5 PUSH2 0x52F JUMP JUMPDEST SWAP3 SWAP2 POP POP JUMP JUMPDEST PUSH0 DUP1 REVERT JUMPDEST PUSH0 PUSH1 0x1F NOT PUSH1 0x1F DUP4 ADD AND SWAP1 POP SWAP2 SWAP1 POP JUMP JUMPDEST PUSH32 0x4E487B7100000000000000000000000000000000000000000000000000000000 PUSH0 MSTORE PUSH1 0x41 PUSH1 0x4 MSTORE PUSH1 0x24 PUSH0 REVERT JUMPDEST PUSH2 0x5A1 DUP3 PUSH2 0x55B JUMP JUMPDEST DUP2 ADD DUP2 DUP2 LT PUSH8 0xFFFFFFFFFFFFFFFF DUP3 GT OR ISZERO PUSH2 0x5C0 JUMPI PUSH2 0x5BF PUSH2 0x56B JUMP JUMPDEST JUMPDEST DUP1 PUSH1 0x40 MSTORE POP POP POP JUMP JUMPDEST PUSH0 PUSH2 0x5D2 PUSH2 0x4C0 JUMP JUMPDEST SWAP1 POP PUSH2 0x5DE DUP3 DUP3 PUSH2 0x598 JUMP JUMPDEST SWAP2 SWAP1 POP JUMP JUMPDEST PUSH0 PUSH8 0xFFFFFFFFFFFFFFFF DUP3 GT ISZERO PUSH2 0x5FD JUMPI PUSH2 0x5FC PUSH2 0x56B JUMP JUMPDEST JUMPDEST PUSH1 0x20 DUP3 MUL SWAP1 POP PUSH1 0x20 DUP2 ADD SWAP1 POP SWAP2 SWAP1 POP JUMP JUMPDEST PUSH0 DUP1 REVERT JUMPDEST PUSH0 PUSH2 0x624 PUSH2 0x61F DUP5 PUSH2 0x5E3 JUMP JUMPDEST PUSH2 0x5C9 JUMP JUMPDEST SWAP1 POP DUP1 DUP4 DUP3 MSTORE PUSH1 0x20 DUP3 ADD SWAP1 POP PUSH1 0x20 DUP5 MUL DUP4 ADD DUP6 DUP2 GT ISZERO PUSH2 0x647 JUMPI PUSH2 0x646 PUSH2 0x60E JUMP JUMPDEST JUMPDEST DUP4 JUMPDEST DUP2 DUP2 LT ISZERO PUSH2 0x670 JUMPI DUP1 PUSH2 0x65C DUP9 DUP3 PUSH2 0x4F0 JUMP JUMPDEST DUP5 MSTORE PUSH1 0x20 DUP5 ADD SWAP4 POP POP PUSH1 0x20 DUP2 ADD SWAP1 POP PUSH2 0x649 JUMP JUMPDEST POP POP POP SWAP4 SWAP3 POP POP POP JUMP JUMPDEST PUSH0 DUP3 PUSH1 0x1F DUP4 ADD SLT PUSH2 0x68E JUMPI PUSH2 0x68D PUSH2 0x557 JUMP JUMPDEST JUMPDEST DUP2 CALLDATALOAD PUSH2 0x69E DUP5 DUP3 PUSH1 0x20 DUP7 ADD PUSH2 0x612 JUMP JUMPDEST SWAP2 POP POP SWAP3 SWAP2 POP POP JUMP JUMPDEST PUSH0 PUSH1 0x20 DUP3 DUP5 SUB SLT ISZERO PUSH2 0x6BC JUMPI PUSH2 0x6BB PUSH2 0x4C9 JUMP JUMPDEST JUMPDEST PUSH0 DUP3 ADD CALLDATALOAD PUSH8 0xFFFFFFFFFFFFFFFF DUP2 GT ISZERO PUSH2 0x6D9 JUMPI PUSH2 0x6D8 PUSH2 0x4CD JUMP JUMPDEST JUMPDEST PUSH2 0x6E5 DUP5 DUP3 DUP6 ADD PUSH2 0x67A JUMP JUMPDEST SWAP2 POP POP SWAP3 SWAP2 POP POP JUMP JUMPDEST PUSH0 DUP2 MLOAD SWAP1 POP SWAP2 SWAP1 POP JUMP JUMPDEST PUSH0 DUP3 DUP3 MSTORE PUSH1 0x20 DUP3 ADD SWAP1 POP SWAP3 SWAP2 POP POP JUMP JUMPDEST PUSH0 DUP2 SWAP1 POP PUSH1 0x20 DUP3 ADD SWAP1 POP SWAP2 SWAP1 POP JUMP JUMPDEST PUSH2 0x720 DUP2 PUSH2 0x4D1 JUMP JUMPDEST DUP3 MSTORE POP POP JUMP JUMPDEST PUSH0 PUSH2 0x731 DUP4 DUP4 PUSH2 0x717 JUMP JUMPDEST PUSH1 0x20 DUP4 ADD SWAP1 POP SWAP3 SWAP2 POP POP JUMP JUMPDEST PUSH0 PUSH1 0x20 DUP3 ADD SWAP1 POP SWAP2 SWAP1 POP JUMP JUMPDEST PUSH0 PUSH2 0x753 DUP3 PUSH2 0x6EE JUMP JUMPDEST PUSH2 0x75D DUP2 DUP6 PUSH2 0x6F8 JUMP JUMPDEST SWAP4 POP PUSH2 0x768 DUP4 PUSH2 0x708 JUMP JUMPDEST DUP1 PUSH0 JUMPDEST DUP4 DUP2 LT ISZERO PUSH2 0x798 JUMPI DUP2 MLOAD PUSH2 0x77F DUP9 DUP3 PUSH2 0x726 JUMP JUMPDEST SWAP8 POP PUSH2 0x78A DUP4 PUSH2 0x73D JUMP JUMPDEST SWAP3 POP POP PUSH1 0x1 DUP2 ADD SWAP1 POP PUSH2 0x76B JUMP JUMPDEST POP DUP6 SWAP4 POP POP POP POP SWAP3 SWAP2 POP POP JUMP JUMPDEST PUSH0 PUSH1 0x20 DUP3 ADD SWAP1 POP DUP2 DUP2 SUB PUSH0 DUP4 ADD MSTORE PUSH2 0x7BD DUP2 DUP5 PUSH2 0x749 JUMP JUMPDEST SWAP1 POP SWAP3 SWAP2 POP POP JUMP JUMPDEST PUSH0 DUP2 ISZERO ISZERO SWAP1 POP SWAP2 SWAP1 POP JUMP JUMPDEST PUSH2 0x7D9 DUP2 PUSH2 0x7C5 JUMP JUMPDEST DUP3 MSTORE POP POP JUMP JUMPDEST PUSH0 PUSH1 0x20 DUP3 ADD SWAP1 POP PUSH2 0x7F2 PUSH0 DUP4 ADD DUP5 PUSH2 0x7D0 JUMP JUMPDEST SWAP3 SWAP2 POP POP JUMP JUMPDEST PUSH0 DUP2 SWAP1 POP SWAP2 SWAP1 POP JUMP JUMPDEST PUSH2 0x80A DUP2 PUSH2 0x7F8 JUMP JUMPDEST DUP2 EQ PUSH2 0x814 JUMPI PUSH0 DUP1 REVERT JUMPDEST POP JUMP JUMPDEST PUSH0 DUP2 CALLDATALOAD SWAP1 POP PUSH2 0x825 DUP2 PUSH2 0x801 JUMP JUMPDEST SWAP3 SWAP2 POP POP JUMP JUMPDEST PUSH0 PUSH1 0x20 DUP3 DUP5 SUB SLT ISZERO PUSH2 0x840 JUMPI PUSH2 0x83F PUSH2 0x4C9 JUMP JUMPDEST JUMPDEST PUSH0 PUSH2 0x84D DUP5 DUP3 DUP6 ADD PUSH2 0x817 JUMP JUMPDEST SWAP2 POP POP SWAP3 SWAP2 POP POP JUMP JUMPDEST PUSH32 0x4E487B7100000000000000000000000000000000000000000000000000000000 PUSH0 MSTORE PUSH1 0x11 PUSH1 0x4 MSTORE PUSH1 0x24 PUSH0 REVERT JUMPDEST PUSH0 PUSH2 0x88D DUP3 PUSH2 0x4D1 JUMP JUMPDEST SWAP2 POP PUSH2 0x898 DUP4 PUSH2 0x4D1 JUMP JUMPDEST SWAP3 POP DUP3 DUP3 ADD SWAP1 POP DUP1 DUP3 GT ISZERO PUSH2 0x8B0 JUMPI PUSH2 0x8AF PUSH2 0x856 JUMP JUMPDEST JUMPDEST SWAP3 SWAP2 POP POP JUMP JUMPDEST PUSH0 PUSH2 0x8C0 DUP3 PUSH2 0x4D1 JUMP JUMPDEST SWAP2 POP PUSH32 0xFFFFFFFFFFFFFFFFFFFFFFFFFFFFFFFFFFFFFFFFFFFFFFFFFFFFFFFFFFFFFFFF DUP3 SUB PUSH2 0x8F2 JUMPI PUSH2 0x8F1 PUSH2 0x856 JUMP JUMPDEST JUMPDEST PUSH1 0x1 DUP3 ADD SWAP1 POP SWAP2 SWAP1 POP JUMP JUMPDEST PUSH32 0x4E487B7100000000000000000000000000000000000000000000000000000000 PUSH0 MSTORE PUSH1 0x32 PUSH1 0x4 MSTORE PUSH1 0x24 PUSH0 REVERT JUMPDEST PUSH0 PUSH2 0x934 DUP3 PUSH2 0x4D1 JUMP JUMPDEST SWAP2 POP PUSH2 0x93F DUP4 PUSH2 0x4D1 JUMP JUMPDEST SWAP3 POP DUP3 DUP3 SUB SWAP1 POP DUP2 DUP2 GT ISZERO PUSH2 0x957 JUMPI PUSH2 0x956 PUSH2 0x856 JUMP JUMPDEST JUMPDEST SWAP3 SWAP2 POP POP JUMP JUMPDEST PUSH0 PUSH2 0x967 DUP3 PUSH2 0x4D1 JUMP JUMPDEST SWAP2 POP PUSH0 DUP3 SUB PUSH2 0x979 JUMPI PUSH2 0x978 PUSH2 0x856 JUMP JUMPDEST JUMPDEST PUSH1 0x1 DUP3 SUB SWAP1 POP SWAP2 SWAP1 POP JUMP INVALID LOG2 PUSH5 0x6970667358 0x22 SLT KECCAK256 MCOPY 0xFB 0xC1 EXP 0xDD DUP12 CODESIZE SWAP15 TSTORE 0xE8 PUSH0 0xCC GT ORIGIN PUSH27 0x5527123F7065AFDAAA9E10EDE47355EC9664736F6C634300081A00 CALLER "
		},
		"gasEstimates": {
			"creation": {
				"codeDepositCost": "498000",
				"executionCost": "528",
				"totalCost": "498528"
			},
			"external": {
				"insertionSortWrongError(uint256[])": "infinite",
				"insertionSortWrongSuccess(uint256[])": "infinite",
				"isZero(uint256)": "633",
				"sumNumberDoWhile(uint256)": "infinite",
				"sumNumberFor(uint256)": "infinite",
				"sumNumberWhile(uint256)": "infinite",
				"threeOprate(int256)": "679"
			}
		},
		"methodIdentifiers": {
			"insertionSortWrongError(uint256[])": "fe4d46ff",
			"insertionSortWrongSuccess(uint256[])": "420a11a0",
			"isZero(uint256)": "7a38f9eb",
			"sumNumberDoWhile(uint256)": "120c8d92",
			"sumNumberFor(uint256)": "1b8182a0",
			"sumNumberWhile(uint256)": "9c6f47d9",
			"threeOprate(int256)": "d1dce488"
		}
	},
	"abi": [
		{
			"inputs": [
				{
					"internalType": "uint256[]",
					"name": "a",
					"type": "uint256[]"
				}
			],
			"name": "insertionSortWrongError",
			"outputs": [
				{
					"internalType": "uint256[]",
					"name": "",
					"type": "uint256[]"
				}
			],
			"stateMutability": "pure",
			"type": "function"
		},
		{
			"inputs": [
				{
					"internalType": "uint256[]",
					"name": "a",
					"type": "uint256[]"
				}
			],
			"name": "insertionSortWrongSuccess",
			"outputs": [
				{
					"internalType": "uint256[]",
					"name": "",
					"type": "uint256[]"
				}
			],
			"stateMutability": "pure",
			"type": "function"
		},
		{
			"inputs": [
				{
					"internalType": "uint256",
					"name": "number",
					"type": "uint256"
				}
			],
			"name": "isZero",
			"outputs": [
				{
					"internalType": "bool",
					"name": "",
					"type": "bool"
				}
			],
			"stateMutability": "pure",
			"type": "function"
		},
		{
			"inputs": [
				{
					"internalType": "uint256",
					"name": "number",
					"type": "uint256"
				}
			],
			"name": "sumNumberDoWhile",
			"outputs": [
				{
					"internalType": "uint256",
					"name": "",
					"type": "uint256"
				}
			],
			"stateMutability": "pure",
			"type": "function"
		},
		{
			"inputs": [
				{
					"internalType": "uint256",
					"name": "number",
					"type": "uint256"
				}
			],
			"name": "sumNumberFor",
			"outputs": [
				{
					"internalType": "uint256",
					"name": "",
					"type": "uint256"
				}
			],
			"stateMutability": "pure",
			"type": "function"
		},
		{
			"inputs": [
				{
					"internalType": "uint256",
					"name": "number",
					"type": "uint256"
				}
			],
			"name": "sumNumberWhile",
			"outputs": [
				{
					"internalType": "uint256",
					"name": "",
					"type": "uint256"
				}
			],
			"stateMutability": "pure",
			"type": "function"
		},
		{
			"inputs": [
				{
					"internalType": "int256",
					"name": "number",
					"type": "int256"
				}
			],
			"name": "threeOprate",
			"outputs": [
				{
					"internalType": "bool",
					"name": "",
					"type": "bool"
				}
			],
			"stateMutability": "pure",
			"type": "function"
		}
	]
}