{
	"data": {
		"bytecode": {
			"linkReferences": {},
			"object": "60806040525f80553480156011575f80fd5b506101f88061001f5f395ff3fe60806040526004361061003e575f3560e01c8063303810a6146100425780634f2be91f146100605780638381f58a14610076578063b041dd35146100a0575b5f80fd5b61004a6100b6565b6040516100579190610116565b60405180910390f35b34801561006b575f80fd5b506100746100c5565b005b348015610081575f80fd5b5061008a6100da565b6040516100979190610116565b60405180910390f35b3480156100ab575f80fd5b506100b46100df565b005b5f6100bf6100e9565b47905090565b60015f546100d3919061015c565b5f81905550565b5f5481565b6100e76100e9565b565b60015f546100f7919061018f565b5f81905550565b5f819050919050565b610110816100fe565b82525050565b5f6020820190506101295f830184610107565b92915050565b7f4e487b71000000000000000000000000000000000000000000000000000000005f52601160045260245ffd5b5f610166826100fe565b9150610171836100fe565b92508282019050808211156101895761018861012f565b5b92915050565b5f610199826100fe565b91506101a4836100fe565b92508282039050818111156101bc576101bb61012f565b5b9291505056fea2646970667358221220452737f70b2a0a375d4928b4fbf675f8ccea25a686ef3a767d54004e8730d64264736f6c634300081a0033",
			"opcodes": "PUSH1 0x80 PUSH1 0x40 MSTORE PUSH0 DUP1 SSTORE CALLVALUE DUP1 ISZERO PUSH1 0x11 JUMPI PUSH0 DUP1 REVERT JUMPDEST POP PUSH2 0x1F8 DUP1 PUSH2 0x1F PUSH0 CODECOPY PUSH0 RETURN INVALID PUSH1 0x80 PUSH1 0x40 MSTORE PUSH1 0x4 CALLDATASIZE LT PUSH2 0x3E JUMPI PUSH0 CALLDATALOAD PUSH1 0xE0 SHR DUP1 PUSH4 0x303810A6 EQ PUSH2 0x42 JUMPI DUP1 PUSH4 0x4F2BE91F EQ PUSH2 0x60 JUMPI DUP1 PUSH4 0x8381F58A EQ PUSH2 0x76 JUMPI DUP1 PUSH4 0xB041DD35 EQ PUSH2 0xA0 JUMPI JUMPDEST PUSH0 DUP1 REVERT JUMPDEST PUSH2 0x4A PUSH2 0xB6 JUMP JUMPDEST PUSH1 0x40 MLOAD PUSH2 0x57 SWAP2 SWAP1 PUSH2 0x116 JUMP JUMPDEST PUSH1 0x40 MLOAD DUP1 SWAP2 SUB SWAP1 RETURN JUMPDEST CALLVALUE DUP1 ISZERO PUSH2 0x6B JUMPI PUSH0 DUP1 REVERT JUMPDEST POP PUSH2 0x74 PUSH2 0xC5 JUMP JUMPDEST STOP JUMPDEST CALLVALUE DUP1 ISZERO PUSH2 0x81 JUMPI PUSH0 DUP1 REVERT JUMPDEST POP PUSH2 0x8A PUSH2 0xDA JUMP JUMPDEST PUSH1 0x40 MLOAD PUSH2 0x97 SWAP2 SWAP1 PUSH2 0x116 JUMP JUMPDEST PUSH1 0x40 MLOAD DUP1 SWAP2 SUB SWAP1 RETURN JUMPDEST CALLVALUE DUP1 ISZERO PUSH2 0xAB JUMPI PUSH0 DUP1 REVERT JUMPDEST POP PUSH2 0xB4 PUSH2 0xDF JUMP JUMPDEST STOP JUMPDEST PUSH0 PUSH2 0xBF PUSH2 0xE9 JUMP JUMPDEST SELFBALANCE SWAP1 POP SWAP1 JUMP JUMPDEST PUSH1 0x1 PUSH0 SLOAD PUSH2 0xD3 SWAP2 SWAP1 PUSH2 0x15C JUMP JUMPDEST PUSH0 DUP2 SWAP1 SSTORE POP JUMP JUMPDEST PUSH0 SLOAD DUP2 JUMP JUMPDEST PUSH2 0xE7 PUSH2 0xE9 JUMP JUMPDEST JUMP JUMPDEST PUSH1 0x1 PUSH0 SLOAD PUSH2 0xF7 SWAP2 SWAP1 PUSH2 0x18F JUMP JUMPDEST PUSH0 DUP2 SWAP1 SSTORE POP JUMP JUMPDEST PUSH0 DUP2 SWAP1 POP SWAP2 SWAP1 POP JUMP JUMPDEST PUSH2 0x110 DUP2 PUSH2 0xFE JUMP JUMPDEST DUP3 MSTORE POP POP JUMP JUMPDEST PUSH0 PUSH1 0x20 DUP3 ADD SWAP1 POP PUSH2 0x129 PUSH0 DUP4 ADD DUP5 PUSH2 0x107 JUMP JUMPDEST SWAP3 SWAP2 POP POP JUMP JUMPDEST PUSH32 0x4E487B7100000000000000000000000000000000000000000000000000000000 PUSH0 MSTORE PUSH1 0x11 PUSH1 0x4 MSTORE PUSH1 0x24 PUSH0 REVERT JUMPDEST PUSH0 PUSH2 0x166 DUP3 PUSH2 0xFE JUMP JUMPDEST SWAP2 POP PUSH2 0x171 DUP4 PUSH2 0xFE JUMP JUMPDEST SWAP3 POP DUP3 DUP3 ADD SWAP1 POP DUP1 DUP3 GT ISZERO PUSH2 0x189 JUMPI PUSH2 0x188 PUSH2 0x12F JUMP JUMPDEST JUMPDEST SWAP3 SWAP2 POP POP JUMP JUMPDEST PUSH0 PUSH2 0x199 DUP3 PUSH2 0xFE JUMP JUMPDEST SWAP2 POP PUSH2 0x1A4 DUP4 PUSH2 0xFE JUMP JUMPDEST SWAP3 POP DUP3 DUP3 SUB SWAP1 POP DUP2 DUP2 GT ISZERO PUSH2 0x1BC JUMPI PUSH2 0x1BB PUSH2 0x12F JUMP JUMPDEST JUMPDEST SWAP3 SWAP2 POP POP JUMP INVALID LOG2 PUSH5 0x6970667358 0x22 SLT KECCAK256 GASLIMIT 0x27 CALLDATACOPY 0xF7 SIGNEXTEND 0x2A EXP CALLDATACOPY TSTORE BLOBHASH 0x28 0xB4 0xFB 0xF6 PUSH22 0xF8CCEA25A686EF3A767D54004E8730D64264736F6C63 NUMBER STOP ADDMOD BYTE STOP CALLER "
		},
		"gasEstimates": {
			"creation": {
				"codeDepositCost": "100800",
				"executionCost": "5150",
				"totalCost": "105950"
			},
			"external": {
				"add()": "infinite",
				"minusOnExtrnal()": "infinite",
				"minusPayable()": "infinite",
				"number()": "2446"
			},
			"internal": {
				"minus()": "infinite"
			}
		},
		"methodIdentifiers": {
			"add()": "4f2be91f",
			"minusOnExtrnal()": "b041dd35",
			"minusPayable()": "303810a6",
			"number()": "8381f58a"
		}
	},
	"abi": [
		{
			"inputs": [],
			"name": "add",
			"outputs": [],
			"stateMutability": "nonpayable",
			"type": "function"
		},
		{
			"inputs": [],
			"name": "minusOnExtrnal",
			"outputs": [],
			"stateMutability": "nonpayable",
			"type": "function"
		},
		{
			"inputs": [],
			"name": "minusPayable",
			"outputs": [
				{
					"internalType": "uint256",
					"name": "balance",
					"type": "uint256"
				}
			],
			"stateMutability": "payable",
			"type": "function"
		},
		{
			"inputs": [],
			"name": "number",
			"outputs": [
				{
					"internalType": "uint256",
					"name": "",
					"type": "uint256"
				}
			],
			"stateMutability": "view",
			"type": "function"
		}
	]
}